:020000040800F2
:10000000A80A002049010008FF2F00086524000805
:10001000FB2F0008DD140008535400080000000006
:100020000000000000000000000000008541000802
:10003000891A000800000000953400089F4300085A
:100040006301000863010008630100086301000800
:1000500063010008630100086301000863010008F0
:1000600063010008630100086301000863010008E0
:1000700063010008630100086301000863010008D0
:1000800063010008630100086301000863010008C0
:1000900063010008630100086301000863010008B0
:1000A00063010008630100086301000863010008A0
:1000B000C946000889470008A147000863010008F5
:1000C0006301000863010008630100086301000880
:1000D00063010008C95100080D52000863010008BF
:1000E000B11A0008630100086301000863010008F9
:1000F0006301000863010008630100086301000850
:10010000630100086301000863010008630100083F
:10011000630100088D510008B94700086301000819
:10012000630100086301000863010008630100081F
:10013000DFF810D000F026FD004800473D7E0008A3
:10014000AFF30080A80A0020064880470648004711
:10015000FEE7FEE7FEE7FEE7FEE7FEE7FEE7FEE777
:10016000FEE7FEE7A1430008310100082DE9F04158
:100170000024061B254671F1000605DA012400273C
:10018000D0EB070067EB0101161E73F1000605DADC
:100190000027D2EB0702012567EB030300F076FB93
:1001A00086460E4617469C46AC4204D00025D0EB4E
:1001B000050E65EB010624B10020D2EB000760EBD1
:1001C000030C704631463A466346BDE8F08140EA8A
:1001D00001039B0703D009E008C9121F08C0042AC5
:1001E000FAD203E011F8013B00F8013B521EF9D2AC
:1001F0007047D2B201E000F8012B491EFBD27047D4
:100200000022F6E710B513460A4604461946FFF7E2
:10021000F0FF204610BD421E12F8013F002BFBD11B
:1002200011F8013B02F8013B002BF9D17047421C49
:1002300010F8011B0029FBD1801A704730B5044625
:100240000020034600E05B1C934203D2E05CCD5CDF
:10025000401BF8D030BDF0B480EA0102D40F420058
:10026000B2EB410F02D20246084611464A0042D084
:10027000C30DDDB2C1F3C752AD1A202D35DAC1F37B
:10028000160141F4000204B15242C5F1200602FAFF
:1002900006F12A411044B3EBD05F23D0C4B1012D45
:1002A000A0EBC35009DCF0BC4FF0004202EAC3529D
:1002B000DBB200F5000000F092BB400000F180705E
:1002C00000EBC350A0F1807040EAD170490009E012
:1002D000490841EAC071A0EBC35000F50000400896
:1002E00000EBC350F0BC00F071BB6142012202EB95
:1002F0004101001BF6E7F0BC704781F00041AAE71E
:1003000080F00040A7E780EA010210B502F0004348
:10031000400022D04A001FD0010E01EB1261C0F351
:100320005600C2F3560240F4000042F40002A0FB63
:10033000022000047F39140400D0401C50EA12400F
:1003400001D44000491EC2B20C0604EBD010401C80
:100350004008802A02D003E0002010BD20F00100F8
:10036000002900DA0020184310BD30B480EA0102F1
:1003700002F0004530F0004221F0004013D090B16F
:10038000C30DD40DC2F31601C0F31600E41A41F4F4
:10039000000140F400027D34914201D3641C00E06E
:1003A0004900002C02DA30BC002070474FF40000F6
:1003B0000023914201D3891A034340084FEA4101C7
:1003C000F7D151B1914202D14FF0004105E002D284
:1003D0004FF0010101E06FF0010103EBC45028442C
:1003E00030BC00F0F3BA2DE9FE4F804681EA0300ED
:1003F000C00F0C46009021F0004123F00045B8EBFF
:100400000200A94105D24046214690461C460B46B3
:10041000024623F00040104347D0270DC7F30A00DF
:10042000C3F30A510290401A019040286BDAC3F3DB
:10043000130040F4801B0098924620B10023D2EBB9
:10044000030A63EB0B0B01985946C0F1400250467A
:1004500000F04DFA06460D4650465946019A00F006
:1004600055FA10EB08006141002487EA115284EA32
:10047000E7731A4340D0009A62B3019A012A4FEA07
:10048000075215DC001B61EB02014FF0004202EA4B
:100490000752CDE90042001C41F5801132462B463F
:1004A00000F0DAFA03B0BDE8F08F40462146F9E7E4
:1004B000001B61EB0201001C41F5801300185B4139
:1004C0002018A2F5001747EB030140EAD570B619D2
:1004D0006D4111E06D084FEA360645EAC0754FEAF6
:1004E0000752001B61EB0201001C41F58011490815
:1004F0004FEA30000019514132462B4603B0BDE8A7
:10050000F04F00F09ABA0098012240000023D0EB8F
:10051000020263EBE073009821464FEAE074B8EB07
:10052000000061EB0401E9E783F000435BE781F041
:10053000004158E72DE9FE4F81EA030404F000442E
:1005400021F0004100944FF0000B23F0004350EAEB
:1005500001045ED052EA03045BD0C3F30A54C1F332
:100560000A552C44A4F2F3340194A0FB0254C1F3C5
:10057000130141F48011C3F3130343F4801301FB0F
:10058000024400FB034E840A970A44EA815447EA76
:100590008357A4FB076802958D0A05FB07854FEA80
:1005A000932C04FB0C542705029D4FEA065847EA9A
:1005B0001637B5EB08056EEB070C870E920E47EA6F
:1005C000811742EA8312A7FB0201B6EB0B0164EB31
:1005D00000042B0D43EA0C335E1844EB1C50DA4642
:1005E0005146E7FB0201C5F313044FEA0B3343EA1C
:1005F00014534FEA0432019C43EA0603A4F10C04AD
:100600000294009CCDE900B400F026FA03B0BDE8E6
:10061000F08F00200146F9E72DE9F04D81EA03044F
:1006200004F0004B21F0004514464FF0000A23F07F
:10063000004150EA050220D054EA01021DD0C5F362
:100640000A570246C5F31303C1F31300C1F30A5658
:1006500040F4801543F48013A7EB0608101BD64620
:1006600008F2FD3873EB050002D308F1010801E040
:1006700092185B41B8F1000F03DA00200146BDE893
:10068000F08D00204FF48011064684460EE0171BC3
:1006900073EB050705D3121B63EB050306434CEA16
:1006A000010C49084FEA300092185B4150EA0107FB
:1006B000EDD152EA030012D082EA040083EA050178
:1006C000084305D0101BAB4106D20122002306E0EF
:1006D00000224FF0004302E06FF0010253101AEBCA
:1006E00006004CEB085110EB0A0041EB0B01BDE892
:1006F000F04D00F0A2B9C10F80EAE0700844CA07CB
:100700009623002100F06BB996230022114600F0D9
:1007100066B90EB5C10F80EAE0700844CA0700212F
:1007200040F233438DE80E000A460B4600F094F980
:1007300003B000BD0EB540F2334102910021CDE976
:1007400000110A460B4600F087F903B000BD00F027
:10075000004220F00040C10DC0F3160040F400003C
:100760007F2901DA00207047962903DCC1F1960148
:10077000C84001E096398840002AF4D040427047D2
:1007800020F00040C10DC0F3160040F400007F29A6
:1007900001DA00207047962903DCC1F19601C840B8
:1007A000704796398840704700F0004230F00040B2
:1007B0000AD0C10D01F56071C0F3160042EA015183
:1007C000C2084007114370470020014670470000EF
:1007D00030B5041E71F1000404DB4FF000444042C8
:1007E00064EB0101141E73F1000405DB1C464FF09D
:1007F0000043524263EB04038B4208BF824230BD88
:1008000001F0004330B421F0004150EA010206D06B
:100810000A0DA2F56072C1F31301002A02DC30BC9C
:1008200000207047440F44EAC104C100E01830BC06
:1008300000EBC25000F0CAB8002801DBC0F1004054
:10084000002901DBC1F1004181427047002801DB32
:10085000C0F10040002901DBC1F10041884270472E
:1008600030B50B46014600202022012409E021FA80
:1008700002F59D4205D303FA02F5491B04FA02F57D
:100880002844151EA2F10102F1DC30BD2DE9F05F14
:100890000546002092469B468846064681464024EF
:1008A0001BE0284641464746224600F07DF9534664
:1008B0005A46C01A914110D311461846224600F0FC
:1008C00016F82D1A67EB01084F4622460120002139
:1008D00000F00DF817EB00094E41201EA4F10104B1
:1008E000DFDC484631462A464346BDE8F09F202AD1
:1008F00004DB203A00FA02F1002070479140C2F177
:10090000200320FA03F3194390407047202A06DBA6
:10091000CB17203A41FA02F043EAE07306E041FACD
:1009200002F3D040C2F120029140084319467047BB
:100930000FB4002300B589B00CA900910B996FF09A
:100940000042CB601E4B06931E4B07930423CDE958
:1009500001321D4A089202466B46002000F0CEF993
:1009600009B05DF814FB70B586B006464FF0FF3055
:100970000091CDE90101002015460C460490324655
:10098000694604A8FFF7D4FF02460498211825B150
:1009900008B1084600E020462860049800280DD0E1
:1009A000002A02DD0098884208D0081B0094CDE997
:1009B00001043246694604A8FFF7BAFF06B070BDCD
:1009C000350F0008530F0008C90B00080029A8BF05
:1009D0007047401C490008BF20F00100704710B468
:1009E000B0FA80FC00FA0CF050EA010404BF10BC1D
:1009F000704749B1CCF1200421FA04F411FA0CF14A
:100A000018BF012121430843A3EB0C01CB1D4FEA82
:100A100000614FEA102042BF002010BC704700EB7D
:100A2000C35010440029A4BF10BC7047401C4900AB
:100A300008BF20F0010010BC704710B5141E73F100
:100A4000000408DA401C41F1000192185B411A438E
:100A500001D120F0010010BD2DE9F04D92469B46DA
:100A600011B1B1FA81F202E0B0FA80F22032904680
:100A7000FFF73DFF04460F4640EA0A0041EA0B013A
:100A800053465A46084313D0114653EA010019D081
:100A9000C8F14002504600F087F805460E46504621
:100AA00059464246FFF723FF084305D0012004E0E2
:100AB00020463946BDE8F08D0020054346EAE07641
:100AC0002C4337430A986305E40AA0EB0800002290
:100AD000FD0A44EA47540A3002D500200146E9E7FE
:100AE000010510196941DDE9084500196941BDE8B2
:100AF000F04DA2E770B521F0004303430CD0C1F3E1
:100B00000A550024D5EB040564EB0403D617AD1A8F
:100B1000B34102DB0020014670BD201841EB0251B9
:100B200070BDC1F30A52C1F3130140F2FF3341F427
:100B300080119A4202DA00200146704740F23343A6
:100B40009A42A2F2334202DC524200F02DB8FFF783
:100B5000CEBE000030B5041E71F1000404DB4FF07E
:100B60000044404264EB0101141E73F1000405DBF4
:100B70001C464FF00043524263EB0403994208BF06
:100B8000904230BD064C074D06E0E06840F001039E
:100B900094E8070098471034AC42F6D3FFF7CCFA3C
:100BA00088C90008A8C90008202A04DB203A21FAD5
:100BB00002F00021704721FA02F3D040C2F1200276
:100BC0009140084319467047C0B24FF4F05100F00D
:100BD00023BA00002DE9FF4F087883B09946FF281B
:100BE00005D0491C2D2804D00024002008E0002056
:100BF0000BE00124F9E700EB800003EB4000491C07
:100C00000B78FF2BF7D104B14042002302931478F4
:100C100019461D462D2C01D02B2C04D1521C2D2CF5
:100C200013D000240294AA461478FF2C0FD00A2572
:100C3000A3FB057801FB05814FF0000C03FB0C11B1
:100C4000521CE3194AEB0101EEE70124EAE7814473
:100C500053EA010002D019F5C87F06DA0398002193
:100C6000C0E9001107B0BDE8F08F0025AE4E2F4659
:100C7000DFF8B882184600F0E3F9CDE90001B9F1D8
:100C8000000002DAC9F1000400E004460023A74A8C
:100C90001AEB030B42EB045A12E0E00707D02A4696
:100CA000334638464146FFF745FC074688462A4604
:100CB000334610461946FFF73DFC05460E466410C4
:100CC000002CEAD1DDE90001B9F1000F5A46534684
:100CD00006DAFFF7A1FC3A464346FFF79DFC05E024
:100CE000FFF728FC3A464346FFF724FC029A0AB174
:100CF00081F00041039AC2E90001B3E72DE9FF4FFB
:100D00001F468DB0D7E901464FF0FF382E204546EB
:100D10004FF000090B90B9696D1C0E988847396A2D
:100D2000824688470028F6D1BAF1FF3F0AD024F462
:100D3000D064002E11DDBAF12B0F08D0BAF12D0FBF
:100D40000BD102E0404611B08DE744F48064B969EC
:100D50006D1C0E9888478246761E6946600501D54F
:100D60002D2000E02B208DF8000001F1010B0DF18A
:100D7000200809E0B9696D1C0E98884782460F98D3
:100D800044F40074761E0560002E02DDBAF1300FC7
:100D9000F0D00B998A453ED144F0800406E00F99CB
:100DA000681CA9F1010944F400740860B9696D1C5C
:100DB000761E0E98884782463028F0D02BE00B999B
:100DC0008A4505D1200603D444F08004761E18E03D
:100DD000504604F091FD08B30DF11301761E44F462
:100DE00000748B4508D2AAF130000BF8010B2006E5
:100DF00007D5A9F1010003E0200602D409F10100A2
:100E00008146A00502D50F99681C0860B9696D1C60
:100E10000E9888478246002ED1DC53E0002E51DD2B
:100E2000BAF1650F02D0BAF1450F4BD1A00549D5F3
:100E3000B9696D1C24F44074761E0E98884782466A
:100E4000002E0CDD2B2804D0BAF12D0F07D144F46D
:100E50008074B9696D1C0E9888478246761EE0053D
:100E600001D52D2100E02B2108F8011BCDF82C80A5
:100E700021E00DF12901761E44F4007488450CD25E
:100E8000AAF1300010F0FF0088F8000002D10B99A1
:100E9000884509D908F1010806E0E00501D5244894
:100EA00001E042F20F708146B9696D1C0E988847C7
:100EB00082460F980560002E04DD504604F01CFDAC
:100EC0000028D6D1F9690E988847FF208BF80000DA
:100ED00088F800000020069007904B466A4608A953
:100EE00006A8FFF777FEA00502D46FF001002AE7FD
:100EF00014F0240F0AD0E00714D1DDE90612386897
:100F0000031D3B600068C0E900120BE0DDE906014B
:100F1000FFF776FC0146E00704D13868021D3A600D
:100F20000068016028460EE7000014400000F03F12
:100F3000F1D8FFFF426842B1016811F8013B23B1CB
:100F4000521EC0E90012184670470121C160881E78
:100F5000704742685AB1C368016843B983688B42DD
:100F600005D0491E521CC0E90012002070474FF006
:100F7000FF3070472DE9F04D00231A461B1A8A41B5
:100F800003DB00200146BDE8F08DC1F30A52C1F336
:100F9000130141F480154FF0000BD10702D1001866
:100FA0006D41521E0027044640F2FF11384601EB06
:100FB000620A3E468046024600204FF48011FFF749
:100FC000F3FDC2197141BB1846EB0100B4EB030CF1
:100FD00075EB000C04D3E41A65EB000517460E46CA
:100FE000241908F101006D4180463428E3DDF91928
:100FF00046EB0600091BA84103D24FF0FF3213460F
:1010000001E0002213461BEB070046EB0A51BDE846
:10101000F04DFFF712BD00007F2801D9002208E043
:10102000064A02EB5002C007127800D1120902F002
:101030000F0201209040084070470000F8C80008E7
:101040000EB540F2334202920022CDE9002213464F
:10105000FFF702FD03B000BD70B58C1810F8015BFE
:1010600015F0070301D110F8013B2A1106D110F841
:10107000012B03E010F8016B01F8016B5B1EF9D145
:101080002B0705D40023521E0DD401F8013BFAE7CB
:1010900010F8013BCB1A921C03E013F8015B01F836
:1010A000015B521EF9D5A142D8D3002070BD21B1F9
:1010B000826842F00102826003E0826822F001024D
:1010C0008260704710B504461248844208D101215D
:1010D000401502F00DFD0021601502F009FD17E03A
:1010E0000D48844208D10121001502F001FD0021C4
:1010F000201502F0FDFC0BE00848844208D10121D4
:10110000C80302F0F5FC00214FF4004002F0F0FCAF
:1011100010BD00000024014000280140003C0140B7
:10112000014600208A6802F004020AB1012000E0B2
:10113000002070470146C86C80B27047024600200C
:1011400013680B400BB1012000E0002070470146FE
:1011500000208A6802F008020AB1012000E00020A5
:101160007047000030B502460020002350680F4C45
:1011700020400D790C6844EA0524204350609068B3
:101180000B4C2040D1E902542C434D7944EA4504EC
:1011900020439060D06A20F470000C7C641EE4B29E
:1011A000234340EA0350D06230BD0000FFFEF0FF51
:1011B000FDF7F1FFF0B504460D4600200021092D92
:1011C00011DDE068A5F10A0606EB4607072606FAD8
:1011D00007F18843A5F10A0606EB460603FA06F175
:1011E0000843E0600CE0206905EB4507072606FA96
:1011F00007F1884305EB450603FA06F10843206131
:10120000072A0FDA606B561E06EB86071F2606FAC2
:1012100007F18843561E06EB860605FA06F10843D9
:10122000606322E00D2A0FDA206BD61F06EB8607DB
:101230001F2606FA07F18843D61F06EB860605FA35
:1012400006F10843206310E0E06AA2F10D0606EB08
:1012500086071F2606FA07F18843A2F10D0606EB62
:10126000860605FA06F10843E062F0BD816841F0A8
:1012700008018160704721B1826842F4A002826057
:1012800003E0826822F4A00282607047816841F026
:10129000040181607047000008B50121102002F0B0
:1012A00017FC4FF47070ADF8000018208DF80300A3
:1012B00003208DF802006946014800F071FD08BD69
:1012C0000010014030B587B005460C4601214803A7
:1012D00002F0FEFB254803F02DFB681E80B2ADF83E
:1012E0001400ADF810400020ADF81600ADF8120063
:1012F00004A91E4803F036FE6020ADF8000001206E
:10130000ADF802000020ADF80600ADF8080069460F
:10131000164803F09DFC6946144803F0EFFC69464B
:10132000124803F04BFD6946104803F0A1FD01216E
:101330000E4803F0EFFA08210C4803F0D5FC082111
:101340000A4803F02DFD0821084803F087FD082115
:10135000064803F0CBFD0121044803F0BDFA01214A
:10136000024803F0CBFA07B030BD00000034014062
:101370002DE9FC5F04460D461F480068FFF7BBF9E6
:1013800080462146FEF7B9FF064629460020FEF7B3
:10139000B4FF0190194801680198FEF7B4FF824636
:1013A0001749FEF7E2FF81461648006880F0004BBF
:1013B00013495846FEF7D9FF82463146FEF7A3FF90
:1013C00049460090FEF799FF8046FFF7C0F90746AF
:1013D0000D48007801280CD13846FFF78CF981467A
:1013E0000A4801684846FEF78EFF8046FFF7AFF9CE
:1013F00007463846BDE8FC9F24000020F40000208A
:101400000000C842F0000020310000200801002048
:1014100070B504464FF47A750723012221460B4824
:10142000FFF7C8FE01210948FFF725FF00BF022191
:101430000648FFF783FE20B9281EA5F101018DB2F1
:10144000F5D10248FFF776FE70BD00000024014090
:1014500000B587B001214FF4017002F039FB4FF461
:10146000004002F009FB2020ADF8040000208DF8B8
:10147000070001A9174800F093FC1748FFF722FE68
:10148000002002908DF80C008DF80D004FF46020C4
:1014900004900020059001208DF8180002A90E4844
:1014A000FFF760FE01210C48FFF701FE0A48FFF735
:1014B000DDFE00BF0848FFF74AFE0028FAD10648C3
:1014C000FFF7E4FE00BF0448FFF72AFE0028FAD128
:1014D00007B000BD000801400024014000BFFEE746
:1014E0002DE9F0478648006801287DD185480468C9
:1014F00085480568854986480068FEF736FF8549B6
:101500000860854800688549086085480068FFF7DD
:1015100011F906460022834BFFF77EF88146FFF75C
:101520006FF9804650218048FEF76AFE7E487FA111
:10153000096801600A217E48FEF762FE7D480021AD
:101540000160416001810A217B48FEF759FE7B481A
:1015500000210160416001810A217948FEF750FEB7
:101560007848002101604160018177492046FFF7FA
:1015700063F90FD875492046FFF768F90AD8204665
:10158000FFF712F9064632460B4671A1684804F08F
:1015900045F801E0BDE8F0876B492846FFF74CF9B4
:1015A0000FD86A492846FFF751F90AD82846FFF7AD
:1015B000FBF8064632460B4665A15E4804F02EF85D
:1015C00000E0E7E7644953480068FFF73FF913D2AA
:1015D000624950480068FFF72FF90DD24D48006866
:1015E000FFF7E2F8064600E088E032460B4658A1D5
:1015F000514804F013F800E0CCE759494748006827
:10160000FFF724F911D2574944480068FFF714F94D
:101610000BD242480068FFF7C7F8064632460B4631
:101620004BA1464803F0FAFF00E0B3E70021404633
:10163000FFF70CF90FD84B494046FFF7FDF80AD2E7
:101640004046FFF7B1F8064632460B4640A13C48FB
:1016500003F0E4FF00E09DE7002143480068FFF746
:10166000F5F811D8414940480068FFF7E5F80BD27A
:101670003D480068FFF798F8064632460B4634A10D
:10168000304803F0CBFF00E084E729492648FEF705
:10169000C2FD37A12448FEF7BEFD26492248FEF7C9
:1016A000BAFD34A12048FEF7B6FD23491E48FEF7D7
:1016B000B2FD31A11C48FEF7AEFD20491A48FEF7E5
:1016C000AAFD2EA11848FEF7A6FD1D491648FEF7F3
:1016D000A2FD2CA11448FEF79EFD1A491248FEF700
:1016E0009AFD29A11048FEF796FD50212748FEF7E4
:1016F00087FD50220C492548FEF769FD00BF49E7E8
:1017000038010020E8000020EC0000200000C84262
:101710001C0000208001002008000020840100201F
:10172000D800002000002440A4040020244C5600CF
:10173000440500204E0500205805002062050020C9
:101740006C0500207605002000007A4400007AC471
:1017500025332E32660000000000FAC40000FA446F
:1017600000401CC600401C46E00000200000A041D4
:101770002C5256002C4143002C4759002C43534215
:10178000000000002C56540023000000F404002048
:101790002DE9F05F05460C46124E134801682046BD
:1017A000FEF7B1FD8346114801685846FEF753FD28
:1017B000804631464FF07E50FEF79FFD82464146FF
:1017C000FEF7A1FD074631462846FEF79CFD8146FF
:1017D0003946FEF740FD0549086008460068BDE847
:1017E000F09F00000AD7A33CB8010020F8010020B8
:1017F0002DE9F05F05460C46124E1348016820465D
:10180000FEF781FD8346114801685846FEF723FD27
:10181000804631464FF07E50FEF76FFD82464146CE
:10182000FEF771FD074631462846FEF76CFD8146FE
:101830003946FEF710FD0549086008460068BDE816
:10184000F09F00000AD7A33CB80100203802002016
:101850000146072323EA01021202054B18684FF6DE
:10186000FF031840034B18431043014B18607047A7
:101870000CED00E00000FA0538B5002000906B4642
:1018800001227521682006F0FBF92CA003F0B6FEBA
:101890009DF8000068280ED000BF3148006800F4B1
:1018A000E06030490843001D2D490860BFF34F8FA9
:1018B00000BF00BFFEE706F09DFC00283CD1782069
:1018C00007F0A2FA10B91DA003F098FE782006F0E8
:1018D0007FFB10B924A003F091FEC82007F046FA60
:1018E00010B92BA003F08AFE05F040FA10B932A01F
:1018F00003F084FE3D4806F065FA044605F090FCCE
:1019000010B93BA003F07AFE40F2731005F0D6F850
:1019100010B941A003F072FEC82005F0B1FB10B968
:1019200047A003F06BFE07F0A3FB012007F01AF9B4
:1019300010B94CA003F062FE38BD00006D70755FF9
:101940007365745F73656E736F7220636F6D706C17
:10195000657465202E2E2E2E2E2E0D0A00000000FE
:101960000CED00E00000FA056D70755F636F6E6648
:1019700069677572655F6669666F20636F6D706C0D
:10198000657465202E2E2E2E2E2E0D0A00000000CE
:101990006D70755F7365745F73616D706C655F7298
:1019A00061746520636F6D706C657465202E2E2EDA
:1019B0002E2E2E0D0A000000646D705F6C6F616446
:1019C0005F6D6F74696F6E5F6472697665725F6672
:1019D00069726D7761726520636F6D706C65746597
:1019E000202E2E2E2E2E2E0D0A0000008C00002000
:1019F000646D705F7365745F6F7269656E74617436
:101A0000696F6E20636F6D706C657465202E2E2E6D
:101A10002E2E2E0D0A000000646D705F656E6162EF
:101A20006C655F6665617475726520636F6D706C5F
:101A3000657465202E2E2E2E2E2E0D0A000000001D
:101A4000646D705F7365745F6669666F5F72617401
:101A50006520636F6D706C657465202E2E2E2E2EA2
:101A60002E0D0A006D70755F7365745F646D705F35
:101A7000737461746520636F6D706C657465202E7E
:101A80002E2E2E2E2E0D0A00704701B500200AE0E2
:101A9000002001E0411CC8B20A28FBDB9DF80010C1
:101AA000491EC9B200919DF800100029F0D108BD6F
:101AB0002DE9F0412D480068002855D14FF48050A1
:101AC0002B4908602B48007800F0FEF9002002F056
:101AD000B7F98046012002F0B3F947423946404643
:101AE00000F03AFC2448016824480068FFF740FCF5
:101AF00004463946404603F0AFFC054620480068DE
:101B000003F0C4FA0646601930441E4908606019A3
:101B1000801B1D4908601B48006801F0A5FC19499D
:101B200008601948006801F09FFC17490860174ACF
:101B300051421448006801F0A4FC12490860134A9D
:101B400051421148006801F09CFC0F4908601048A0
:101B500001680A48006803F061FA28B90A48016878
:101B60000848006802F0A4FBBDE8F0813001214282
:101B700014040140000000200800002004000020A0
:101B80000C0000201000002014000020D8F5FFFFFA
:101B9000E0000020002123498279002A3AD00A4639
:101BA000126803689A430B461A600A1D126803689C
:101BB0009A430B1D1A60027911440A6803681A439C
:101BC0000A60184A0832126803689A43154B0833B2
:101BD0001A601A1D126803689A43124B0C331A607C
:101BE0004279102A0ED11A1F126803681A430D4B4E
:101BF00008331A601A1D126803681A43094B0C3324
:101C00001A600DE00749427911440A6803681A43D3
:101C10000A6005E0027911440A6803689A430A6081
:101C2000704700000004014000B587B00121022088
:101C300001F02EFF0121042001F04AFFC020ADF881
:101C4000000004208DF8030069461C4800F0A8F845
:101C500004A803F0D9F90020ADF810004FF6FF708A
:101C6000ADF814000020ADF81600ADF8120004A97C
:101C7000134803F077F900231A460321104802F0B5
:101C80004DFF01A802F0D2FF0A20ADF80C0001A917
:101C90000B4802F075FF0121094802F029FE0122DC
:101CA0001146074802F0CBFF0021054803F02BF94D
:101CB0000121034802F022FE07B000BD00080140E8
:101CC0000004004000B587B00121042001F0E0FECF
:101CD0000121082001F0FCFEC020ADF80000042026
:101CE0008DF8030069461C4800F05AF804A803F078
:101CF0008BF90020ADF810004FF6FF70ADF814001E
:101D00000020ADF81600ADF8120004A9134803F046
:101D100029F900231A460321104802F0FFFE01A80A
:101D200002F084FF0A20ADF80C0001A90B4802F074
:101D300027FF0121094802F0DBFD01221146074877
:101D400002F07DFF0021054803F0DDF80121034882
:101D500002F0D4FD07B000BD000C014000080040B7
:101D600030B500228B071C0F0F2303FA04F20B4B34
:101D70008C1053F824309343084C8D1044F82530D0
:101D800023468C1053F824308C07240F00FA04F4F7
:101D90002343024C8D1044F8253030BD080001402B
:101DA0002DE9F041024600250026002000230024F2
:101DB000002791F803C00CF00F0591F803C00CF058
:101DC000100CBCF1000F03D091F802C04CEA0505DD
:101DD00091F800C0BCF1000F31D0146800202BE056
:101DE0004FF0010C0CFA00F3B1F800C00CEA030646
:101DF0009E4220D183004FF00F0C0CFA03F7BC4336
:101E000005FA03FC4CEA040491F803C0BCF1280F66
:101E100006D14FF0010C0CFA00FCC2F814C00AE025
:101E200091F803C0BCF1480F05D14FF0010C0CFA3A
:101E300000FCC2F810C0401C0828D1D31460B1F8CF
:101E400000C0BCF1FF0F34DD546800202EE000F12B
:101E5000080C4FF0010808FA0CF3B1F800C00CEAC6
:101E600003069E4221D183004FF00F0C0CFA03F7BA
:101E7000BC4305FA03FC4CEA040491F803C0BCF12E
:101E8000280F05D100F1080C08FA0CF8C2F81480EC
:101E900091F803C0BCF1480F07D100F1080C4FF0D6
:101EA000010808FA0CF8C2F81080401C0828CED3AC
:101EB0005460BDE8F0810246002093680B400BB1EE
:101EC000012000E0002070472DE9F04F91B08046DE
:101ED00001F0D2FFE2490860B8F1010F1BD101F017
:101EE00081FEE0480068E0490860E049B1F900007F
:101EF000FEF701FCDE490860DC49B1F90400FEF799
:101F0000FAFBDC490860DC49B1F90400FEF7F3FB99
:101F1000DA490860A1E14421D02000F0A5FA834607
:101F20004321D02000F0A0FA0BEB00200990FEF72F
:101F3000E2FB06464621D02000F096FA8346452172
:101F4000D02000F091FA0BEB00200990FEF7D3FBB4
:101F50000A904821D02000F087FA83464721D020FC
:101F600000F082FA0BEB00200990FEF7C4FB074655
:101F70003C21D02000F078FA83463B21D02000F0AD
:101F800073FA0BEB00200990FEF7B5FB0D903E2194
:101F9000D02000F069FA83463D21D02000F064FA99
:101FA0000BEB00200990FEF7A6FB82464021D020D3
:101FB00000F05AFA83463F21D02000F055FA0BEB8F
:101FC00000200990FEF797FB05464FF08E41304602
:101FD000FEF73CFC05D24FF08F413046FEF78DF9FD
:101FE00006464FF08E410A98FEF730FC05D24FF0BE
:101FF0008F410A98FEF781F90A904FF08E413846DA
:10200000FEF724FC05D24FF08F413846FEF775F9F4
:1020100007464FF08E410D98FEF718FC05D24FF0A1
:102020008F410D98FEF769F90D904FF08E415046A3
:10203000FEF70CFC05D24FF08F415046FEF75DF9DC
:1020400082464FF08E412846FEF700FC05D24FF045
:102050008F412846FEF751F9054686F00040844935
:1020600008600D98FEF7A0FB854A864BCDE9060176
:10207000FEF7D2FACDE90801FEF7C2FB10905046F8
:10208000FEF792FB7E4A7F4BCDE90601FEF7C4FACC
:10209000CDE90801FEF7B4FB0F902846FEF784FB5C
:1020A000774A784BCDE90601FEF7B6FACDE908018B
:1020B000FEF7A6FB0E903046FEF776FB4FF0663239
:1020C000714BCDE90601FEF7A7FACDE90801FEF74D
:1020D00097FB81460A98FEF767FB4FF066326A4B22
:1020E000CDE90601FEF798FACDE90801FEF788FB75
:1020F000044666480078022837D189F0004002463D
:102100000390DDE90E1000F0F3FB8346FEF74CFB75
:102110005F4A604BCDE90401FEF77EFA00225E4B78
:10212000CDE90601FEF706FACDE90801FEF768FBE6
:102130004C49086022460E99109800F035FD834600
:10214000FEF732FB524A534BCDE90401FEF764FA25
:102150000022514BCDE90601FEF7ECF9CDE908016B
:10216000FEF74EFB4D4908606FE0484800780328B1
:102170006BD12846FEF718FBCDE902015046FEF769
:1021800013FBCDE90001DDE9022304F0E1F90022AF
:10219000414BCDE90401FEF7CDF93D4A3D4BCDE978
:1021A0000601FEF739FACDE90801FEF729FB0C908C
:1021B0002846FEF7F9FACDE902010D98FEF7F4FA88
:1021C000CDE90001DDE9022304F0C2F90022324B1F
:1021D000CDE90401FEF7AEF92D4A2E4BCDE90601FB
:1021E000FEF71AFACDE90801FEF70AFB0B9030461C
:1021F000FEF7DAFA4FF06632294BCDE90601FEF719
:102200000BFACDE90801FEF7FBFA834659460C9814
:10221000FFF7BEFA80F00040124908600A98FEF706
:10222000C3FA4FF066321E4BCDE90601FEF7F4F912
:10223000CDE90801FEF7E4FA834659460B98FFF70B
:10224000D7FA80F000401549086006480068064942
:102250000860084807600948056011B0BDE8F08FC4
:1022600018000020740000200400002060000020FE
:10227000080000200C000020660000201C00002048
:102280008FC2F5285C1F9A40665E8D4000000020DA
:10229000F1D4C853FB210940008066407000002043
:1022A0006666304010B500F045F804460349204604
:1022B000FEF729F80446204610BD0000C3F5804013
:1022C00010B50120164908600F2004F0BBFB002068
:1022D0001449C1F880011448007800F08000E8B18A
:1022E0001148007800F03F00104908600846008857
:1022F00000040860084600680D49098808440B4935
:10230000086008460068AA2148434FF47A71B0FB80
:10231000F1F00649086000200349088010BD000064
:102320008001214200002142DC000020D800002072
:10233000DE00002070B50520FFF76AF80546284644
:10234000FEF7E2F906460349FDF7DDFF04462046A5
:1023500070BD00003333533A2DE9F04F87B0834608
:102360008A465846FEF7D5F90022344BCDE90001E4
:10237000FEF7E0F80022324BCDE90201FEF74CF9FE
:10238000804600222F4BFEF747F9064600222E4BCF
:10239000FEF742F90446FEF733FA05900598FEF77A
:1023A00003FA2A4A2A4BCDE90201FEF7C3F8804618
:1023B0000022284BFEF7BEF806460022264BFEF709
:1023C0002BF90446FEF71CFA244908605046FEF734
:1023D000A0F90022194BCDE90001FEF7ABF8064643
:1023E0000022174BFEF718F904460022154BFEF7A2
:1023F00013F980460022144BFEF70EF9CDE90201D5
:10240000FEF7FEF904900498FEF7CEF980460F4AD5
:102410000F4BFEF78FF800220E4BCDE90201FEF7BD
:1024200089F8064600220C4BFEF7F6F80446FEF744
:10243000E7F90B49086007B0BDE8F08F000069407C
:102440000000104000003E4000002640F1D4C85378
:10245000FB21094000C0504000002440E80000205B
:10246000EC00002000BFFEE770B505460E460024D4
:1024700000F0EAF8284600F0B5F8641C00F03CF9DA
:10248000304600F0AFF8641C00F036F900F0DCF8DC
:10249000691CC8B200F0A6F8641C00F02DF90020F9
:1024A00000F068F8044600F003F9204670BD000013
:1024B00010B500200E4908600E48006820F47060D6
:1024C0000C4908600846006840F44070086000202D
:1024D0000949C1F8A801012004F0B4FA0120044917
:1024E000086004F0AFFA00200349C1F8AC0110BD48
:1024F000AC812142040C01400080214208B5012139
:10250000082001F0E5FA4FF44060ADF8000010201B
:102510008DF8030003208DF8020069460148FFF79B
:102520003FFC08BD000C014010B500200E490860BA
:102530000E48006820F470600C4908600846006886
:1025400040F44070086001200949C1F8A80104F076
:1025500079FA01200449086004F074FA0020044963
:10256000C1F8AC0110BD0000AC812142040C014057
:102570000080214270B5054600241748006820F409
:102580007060154908600846006840F40060086003
:10259000002616E0002011490860022004F052FADB
:1025A00001200F49C1F8AC016006040E0B488438C5
:1025B000006808B1601CC4B2022004F043FA701C29
:1025C000C6B2082EE6DB15B1FFF772FF01E0FFF798
:1025D000ABFF204670BD0000040C0140AC812142DD
:1025E0000080214270B504461448006820F47060F1
:1025F000124908600846006840F4407008600020F6
:102600000F490860002516E0E0090D49091F086020
:102610006006040E012004F015FA01200949C1F8F2
:10262000AC0104F00FFA002005490860012004F015
:1026300009FA681CC5B2082DE6DB70BD040C014028
:10264000AC8121420080214210B51648006820F478
:102650007060144908600846006840F440700860E3
:102660000120114908601148D0F8280108B900205C
:1026700010BD01200C49091D086004F0E3F9002099
:102680000A49C1F8A80108488038006808B100204C
:10269000EEE7012004F0D6F900200349091D086087
:1026A0000120E5E7040C0140A8812142008021427D
:1026B00010B50E48006820F470600C4908600846A8
:1026C000006840F44070086000200949086009492A
:1026D000C1F8A801012004F0B5F9012004490860FF
:1026E0000449C1F8A80104F0ADF910BD040C014083
:1026F000AC8121420080214210B5002415480068B9
:1027000020F47060134908600846006840F40060D7
:10271000086001201049086004F094F901200F4975
:10272000C1F8AC0104F08EF90AE0601CC4B2322C8E
:1027300003DDFFF7BDFF002010BD012004F082F98A
:102740000548803800680028EFD10349091D08605A
:102750000120F1E7040C0140A881214200802142C0
:1027600070B505460E46144631462846FFF77CFEF6
:102770002070012070BDF8B506460F4614461D4670
:102780006A4639463046FFF7EBFF2DB10120A040E5
:102790009DF80010084305E00120A0409DF80010BE
:1027A00021EA0000C0B200909DF800203946304672
:1027B00000F036F8F8BD2DE9F84307468846144680
:1027C0001D46089E6A4641463846FFF7C9FF28B3B2
:1027D000601CFF2101FA00F0C4F108012944491EE0
:1027E000FF220A41104300F0FF09C5F1080006FA74
:1027F00000F0C6B2C4F1070006419DF8000000EAEF
:10280000090000909DF80000304300909DF80020E2
:102810004146384600F004F8BDE8F8830020FBE7A5
:1028200037B504460D4602AB01222946204600F08A
:1028300001F83EBD2DE9F04180460D4616461F4683
:102840000024FFF701FF4046FFF7CCFEFFF754FFDF
:102850002846FFF7C7FEFFF74FFF00BF06E0385DD1
:10286000FFF7C0FEFFF748FF601CC4B2B442F6DBBE
:10287000FFF71EFF0120BDE8F08100000948006855
:10288000094908600948006848600948006888608C
:1028900008480068C8600848006808610748006880
:1028A00048617047F00000205C060020F400002022
:1028B000F8000020FC00002000010020040100209E
:1028C00001464906084A926942F00102064B9A61A4
:1028D000064A526822F0E062044B5A601A46526877
:1028E0000A435A6070470000001002400000014097
:1028F0002DE9F04FADB0044689469246A3482B908F
:10290000A349D1E90023D1E90201CDE92723CDE98B
:102910002901CDF898A09E4B1033D3E90021D3E9CB
:102920000203CDE92403CDE922219949203103C9CD
:10293000CDE920019649283103C9CDE91E01944B08
:1029400030330FCB1AAD0FC5914840300068199055
:102950008F4B4433D3E90020D3E9021316AD0BC5E6
:1029600015928B49543103C9CDE913010020119010
:1029700012900F9010900B900C900D900E9007906D
:10298000089009900A900590069004904846FDF73B
:102990000BFF0746884684F000400190FDF704FFD6
:1029A0003A464346CDE9020103F0D2FD0546FDF764
:1029B00027FF834611A8774922AA0123CDE90021E8
:1029C000029002221146104606F0C6FA0FA826A968
:1029D00020AA0123CDE9002102901A4619460220BF
:1029E00006F0BAFA0F991198FDF735FC6A490860AC
:1029F00010991298FDF72FFC674948600BA86749AA
:102A000022AA0223CDE9002102901A46194618464F
:102A100006F0A2FA07A815A90BAA0223CDE9002106
:102A200002901A461946184606F096FA1A9907981F
:102A3000FDF711FC5A4908601B990898FDF70BFC3B
:102A4000574948601C990998FDF705FC544988606E
:102A50001D990A98FDF7FFFB5149C86005A81EAAF9
:102A60000223CDE9002102901A461946012006F002
:102A700073FA04A813A905AA0123CDE90021029045
:102A800002221146184606F067FA19990498FDF7D4
:102A9000E2FB054629464FF07E50FDF766FC0490A8
:102AA00011A813A93E4A0123CDE900210290022278
:102AB0001146104606F050FA3A4804A911AA01231B
:102AC000CDE9002102901A461946022006F044FA88
:102AD00004A831491EAA0123CDE900210290022257
:102AE0001146184606F038FA58460499FDF705FCD9
:102AF000049011A804A92B4A0123CDE900210290DA
:102B00001A461946022006F027FA234A119910683E
:102B1000FDF7A1FB1F4908601F4A12995068FDF795
:102B20009AFB1C4948600BA81EA91E4A0223CDE946
:102B30000021029001221146184606F00DFA0B9969
:102B40002798FDF7DAFB0B900C992898FDF7D5FB39
:102B50000C900D992998FDF7D0FB0D9027AA0E999E
:102B6000D068FDF7CAFB0E900C480D490BAA022352
:102B7000CDE9002102901A461946184606F0ECF9F4
:102B8000044800682DB0BDE8F08F00000AD7A33BD1
:102B90004CC700083C020020440200204C020020E8
:102BA000840600205C0200202DE9F04FADB0044601
:102BB00089469246A3482B90A349D1E90023D1E945
:102BC0000201CDE92723CDE92901CDF898A09E4B3C
:102BD0001033D3E90021D3E90203CDE92403CDE981
:102BE00022219949203103C9CDE920019649283194
:102BF00003C9CDE91E01944B30330FCB1AAD0FC57D
:102C000091484030006819908F4B4433D3E900203D
:102C1000D3E9021316AD0BC515928B49543103C984
:102C2000CDE913010020119012900F9010900B909D
:102C30000C900D900E900790089009900A900590C6
:102C4000069004904846FDF7AFFD0746884684F09D
:102C500000400190FDF7A8FD3A464346CDE9020148
:102C600003F076FC0546FDF7CBFD834611A87749B6
:102C700022AA0123CDE9002102900222114610462A
:102C800006F06AF90FA826A920AA0123CDE90021A0
:102C900002901A461946022006F05EF90F99119823
:102CA000FDF7D9FA6A49086010991298FDF7D3FA2E
:102CB000674948600BA8674922AA0223CDE9002191
:102CC00002901A461946184606F046F907A815A9B3
:102CD0000BAA0223CDE9002102901A461946184694
:102CE00006F03AF91A990798FDF7B5FA5A490860BB
:102CF0001B990898FDF7AFFA574948601C99099845
:102D0000FDF7A9FA544988601D990A98FDF7A3FABE
:102D10005149C86005A81EAA0223CDE900210290EE
:102D20001A461946012006F017F904A813A905AAA6
:102D30000123CDE90021029002221146184606F037
:102D40000BF919990498FDF786FA054629464FF0C4
:102D50007E50FDF70AFB049011A813A93E4A0123F7
:102D6000CDE90021029002221146104606F0F4F847
:102D70003A4804A911AA0123CDE9002102901A467C
:102D80001946022006F0E8F804A831491EAA0123DA
:102D9000CDE90021029002221146184606F0DCF827
:102DA00058460499FDF7A9FA049011A804A92B4AE2
:102DB0000123CDE9002102901A461946022006F0AF
:102DC000CBF8234A11991068FDF745FA1F490860AE
:102DD0001F4A12995068FDF73EFA1C4948600BA83B
:102DE0001EA91E4A0223CDE90021029001221146AC
:102DF000184606F0B1F80B992798FDF77EFA0B906C
:102E00000C992898FDF779FA0C900D992998FDF7FF
:102E100074FA0D9027AA0E99D068FDF76EFA0E90FD
:102E20000C480D490BAA0223CDE9002102901A4655
:102E30001946184606F090F8044800682DB0BDE821
:102E4000F08F00000AD7A33BA8C700086402002047
:102E50006C020020740200209406002084020020EE
:102E600008B50121042000F033FE4FF48070ADF866
:102E7000000048208DF8030069460248FEF790FFE5
:102E800008BD00000008014010B5044600F022F81B
:102E900001280BD1601C0D490988B1EB400F0ADAFB
:102EA0000A480088401C0949088004E000200749BE
:102EB00008800749088005480088022803D10120BE
:102EC0000349088010BD0020FCE70000D40000206A
:102ED000D200002010B54FF480710448FEF7EBFFDC
:102EE00008B9012010BD0020FCE7000000080140E7
:102EF0001FB50121084600F0EBFD0121042000F080
:102F0000E7FD4FF48050ADF80C0048208DF80F001D
:102F100003A91248FEF744FF0C210020FEF720FF12
:102F20004FF48050019000208DF808000C208DF89F
:102F3000090001208DF80A0001A8FEF72BFE2820C9
:102F40008DF8000002208DF8010001208DF80200AC
:102F50008DF80300684600F053F81FBD00080140DB
:102F600010B5022000F010F8032000F021F8002036
:102F700000F014F8002000F037F8002000F02BF8E3
:102F8000002000F01FF810BD38B5044603230222CC
:102F90006B21D0200094FFF70EFC38BD38B50446F5
:102FA000022304221C21D0200094FFF704FC38BD2A
:102FB00038B50446022304221B21D0200094FFF7D9
:102FC000FAFB38BD10B50446234601223721D02034
:102FD000FFF7D1FB10BD10B50446234605226A2138
:102FE000D020FFF7C8FB10BD10B5044623460622CB
:102FF0006B21D020FFF7BFFB10BD00BFFEE770477D
:1030000070B5002100230F22C47804B3154C246846
:1030100004F4E064C4F5E064210AC1F10403CA4089
:10302000447804FA03F184781440214309010E4CDA
:103030000678A155047804F01F050124AC400578FA
:103040006D11AD0005F1E025C5F8004109E00478F7
:1030500004F01F050124AC40044D0678761145F8B4
:10306000264070BD0CED00E000E400E080E100E0EF
:1030700010B5002000F0E2FF10BDF8B507460C4681
:1030800015461E46002C0CDD032C0ADC601E00EBEE
:1030900080004006020E2B4600213846009600F0C4
:1030A00001F8F8BD2DE9F04107460C4615461E46CD
:1030B000DDF818800EB1FFF7DBFF2946204600F04F
:1030C000CDFF01220549384601F022F8B8F1000F82
:1030D00001D000F095F9BDE8F0810000A8000020C3
:1030E00010B500F013F800F0E9F801231A4619466C
:1030F00001A0FFF7C2FF10BD6F6C656420696E69A7
:1031000074207375636365737321000008488069D8
:1031100040F00800064988610648006820F0FF007A
:10312000044908600846006840F0330008607047B2
:1031300000100240040C014070B5044614480068B9
:1031400020F0F000124908600846006840F03000A6
:10315000086000200F490860002516E0E0090D49CD
:10316000091D08606006040E0120FEF78EFC012098
:103170000949C1F8A001FEF788FC00200549086054
:103180000120FEF782FC681CC5B2082DE6DB70BD8D
:10319000040C0140A08121420080214210B5164854
:1031A000006820F0F000144908600846006840F00C
:1031B000300008600120114908601148D0F824014E
:1031C00008B9002010BD01200C49091F0860FEF756
:1031D0005CFC00200A49C1F8A40108488038006856
:1031E00008B10020EEE70220FEF74FFC0020034963
:1031F000091F08600120E5E7040C0140A481214279
:103200000080214210B51048006820F0F0000E49FF
:1032100008600846006840F03000086000200B4954
:1032200008600B49C1F8A4010220FEF72EFC012022
:1032300006490860FEF729FC01200549C1F8A401F0
:103240000220FEF722FC10BD040C0140A0812142A7
:103250000080214210B500241548006820F0F000DD
:10326000134908600846006840F0800008600120AB
:1032700010490860FEF709FC01200F49C1F8A001C0
:10328000FEF703FC0AE0601CC4B2322C03DDFFF73A
:10329000B9FF002010BD0120FEF7F7FB054880387C
:1032A00000680028EFD10349091F08600120F1E7F9
:1032B000040C0140A48121420080214210B540F657
:1032C000C41400E0641E002CFCD1AE2200213C207E
:1032D00005F084FFA62200213C2005F07FFFAE22EE
:1032E00000213C2005F07AFFD52200213C2005F08A
:1032F00075FF802200213C2005F070FFA8220021EC
:103300003C2005F06BFF1F2200213C2005F066FFEA
:10331000D32200213C2005F061FF002211463C2011
:1033200005F05CFF402200213C2005F057FF8D2274
:1033300000213C2005F052FF142200213C2005F022
:103340004DFF202200213C2005F048FF02220021F1
:103350003C2005F043FFA12200213C2005F03EFF68
:10336000C82200213C2005F039FFDA2200213C2050
:1033700005F034FF022200213C2005F02FFF8122BE
:1033800000213C2005F02AFFCF2200213C2005F03F
:1033900025FFD92200213C2005F020FFF122002149
:1033A0003C2005F01BFFDB2200213C2005F016FF2E
:1033B000402200213C2005F011FF2E2200213C205C
:1033C00005F00CFFA42200213C2005F007FFA622F7
:1033D00000213C2005F002FFAF2200213C2005F037
:1033E000FDFE002000F02AFE00F0A8FE00200349A8
:1033F000088048800120487110BD0000A000002016
:1034000010B500F09BFE10BD2DE9F04105460E46BB
:1034100017469846FFF7C2FE10B90120BDE8F081BB
:103420006906080EFFF788FEFFF714FF18B9FFF7CB
:10343000E9FE0120F2E73046FFF77EFEFFF70AFFC4
:1034400000240BE018F80400FFF776FEFFF702FFF8
:1034500018B9FFF7D7FE0020E0E7641CBC42F1DB9F
:10346000FFF7D0FE0020D9E70146002902DD01F276
:1034700014507047002902DAA1F21450F9E7084607
:10348000F7E703461846884200DD0846904200DA16
:1034900010467047704700002DE9F0438BB0D348C9
:1034A00040783038052818D2DFE800F01303070B06
:1034B0000F000120CE49087013E00220CC490870AB
:1034C0000FE00320CA4908700BE00420C8490870C7
:1034D00007E00020C649087003E00020C4490870D6
:1034E00000BF00BFC148C078312802D10520C049C3
:1034F0000870BE48C078322802D10620BC49087046
:10350000BA48FCF794FE15280CD20020B94908707F
:103510005021B648FCF774FEB7A001F049FE0BB08D
:10352000BDE8F083B1484079312807D100F0A2F915
:10353000052003F069FA00F09DF90AE0AB484079F4
:10354000322806D100F0D8FC00F094F9AFA001F0C9
:103550002FFEA648C079312806D10120AD49086068
:10356000AAA001F025FE09E0A048C079322805D1C3
:103570000020A8490860A5A001F01AFE9B48407AE7
:10358000312860D11C2104A8FCF73AFE00200290EB
:10359000039000900190A0A1944800F0C7FE8146DE
:1035A00009F1010000B9BAE79C480068A0EB0902E4
:1035B0008E4800EB090104A8FCF709FE98A104A8B5
:1035C00000F0B4FE0446601C00B9A8E7A21E0DF18D
:1035D000120102A8FCF7FBFD02A803F087F80746DA
:1035E0000022904BFCF7A6FF0546FDF709F98E492E
:1035F00008601C2104A8FCF703FE09EB0400874BBC
:103600001B681A1A794848442044411C04A8FCF756
:10361000DEFD83A104A800F089FE0446601C00B909
:103620007DE7A21E0DF112016846FCF7D0FD684649
:1036300003F05CF80546FDF7E3F87C49086073A0E9
:1036400001F0B6FD00BF6948C07A312860D11C2165
:1036500004A8FCF7D5FD0020029003900090019093
:1036600073A1624800F062FE814609F1010000B9D1
:1036700055E76A480068A0EB09025C4800EB0901C5
:1036800004A8FCF7A4FD66A104A800F04FFE0446C0
:10369000601C00B943E7A21E0DF1120102A8FCF75D
:1036A00096FD02A803F022F8074600225D4BFCF7C6
:1036B00041FF0546FDF7A4F85E4908601C2104A8F7
:1036C000FCF79EFD09EB0400544B1B681A1A47488F
:1036D00048442044411C04A8FCF779FD50A104A8EB
:1036E00000F024FE0446601C00B918E7A21E0DF18C
:1036F00012016846FCF76BFD684602F0F7FF0546CD
:10370000FDF77EF84C49086040A001F051FD00BF74
:103710003648407B312860D11C2104A8FCF770FD9D
:103720000020029003900090019044A12F4800F0E7
:10373000FDFD814609F1010000B9F0E63748006857
:10374000A0EB0902294800EB090104A8FCF73FFDA2
:1037500033A104A800F0EAFD0446601C00B9DEE6CF
:10376000A21E0DF1120102A8FCF731FD02A802F021
:10377000BDFF074600222B4BFCF7DCFE0546FDF79C
:103780003FF82F4908601C2104A8FCF739FD09EB1C
:103790000400224B1B681A1A144848442044411C58
:1037A00004A8FCF714FD27A104A800F0BFFD0446FF
:1037B000601C00B9B3E6A21E0DF112016846FCF7C9
:1037C00006FD684602F092FF0546FDF719F81E490E
:1037D00008600EA001F0ECFC00BF00200549087055
:1037E00050210248FCF70CFD00BF98E6D0050020F0
:1037F0004C0100203C010020245265636569766518
:103800005061636B4572726F72230000244F4B232B
:103810000000000038010020415000004801002055
:103820002C00000000005940F0000020F4000020AF
:1038300056500000F8000020FC000020545000000A
:1038400000010020230000000401002010B50648FC
:103850000268521C05490648FCF7B9FC5021034890
:10386000FCF7CEFC10BD00004001002080050020C8
:10387000D005002070B532216548FCF7C1FC6448D2
:1038800064A109680160002163480068FCF7DEFF5D
:103890000FD8624960480068FCF767FD0646FCF7F0
:1038A00083FF044622460B465DA15F4801F0B6FE49
:1038B00003E05EA001F07CFC70BD00215F48006861
:1038C000FCF7C4FF0BD85D480068FCF76DFF0446A9
:1038D00022460B4652A15A4801F0A0FE03E053A035
:1038E00001F066FCE8E7002156480068FCF7AEFFEF
:1038F0000FD84A4953480068FCF737FD0646FCF7E5
:1039000053FF044622460B4645A14F4801F086FE70
:1039100003E046A001F04CFCCEE700214B480068D4
:10392000FCF794FF0BD849480068FCF73DFF0446BC
:1039300022460B463AA1464801F070FE03E03BA048
:1039400001F036FCB8E7002142480068FCF77EFF32
:103950000FD832493F480068FCF707FD0646FCF7E0
:1039600023FF044622460B462DA13B4801F056FE9C
:1039700003E02EA001F01CFC9EE700213748006800
:10398000FCF764FF0BD835480068FCF70DFF0446D0
:1039900022460B4622A1324801F040FE03E023A05C
:1039A00001F006FC88E720491948FCF734FC2DA1FA
:1039B0001748FCF730FC22491548FCF72CFC2AA1DB
:1039C0001348FCF728FC20491148FCF724FC27A1E8
:1039D0000F48FCF720FC1E490D48FCF71CFC24A1F5
:1039E0000B48FCF718FC1C490948FCF714FC21A102
:1039F0000748FCF710FC1A490548FCF70CFC0EA11F
:103A00000348FCF708FC024801F0D2FB00BF53E773
:103A10004D01002024415000F00000200000C84269
:103A200025332E32660000002006002024476574EE
:103A30005049444572726F7223000000F400002068
:103A40002A060020F800002034060020FC00002098
:103A50003E0600200001002048060020040100204E
:103A6000520600202C4144002C5650002C56490090
:103A70002C5450002C54440001460020034A506846
:103A800020F440400843506070470000001002409E
:103A900029B1064AD2690243044BDA6104E0034AC1
:103AA000D2698243014BDA61704700000010024086
:103AB00029B1064A12690243044B1A6104E0034A21
:103AC00012698243014B1A617047000000100240E6
:103AD00029B1064A92690243044B9A6104E0034A01
:103AE00092698243014B9A617047000000100240C6
:103AF00029B1064AD2680243044BDA6004E0034A63
:103B0000D2688243014BDA60704700000010024027
:103B100030B500210022002400232D4D6D6805F0F2
:103B20000C0121B1042905D0082923D105E0294D34
:103B3000056022E0274D05601FE0254D6D6805F406
:103B40007012234D6D6805F48034022505EB924216
:103B50001CB9214D554305600BE01D4D6D6805F402
:103B600000351DB11C4D5543056002E0194D55430C
:103B7000056002E0174D056000BF00BF144D6D6881
:103B800005F0F0010909154D6B5C0568DD404560E5
:103B90000F4D6D6805F4E061090A104D6B5C4568D6
:103BA000DD4085600A4D6D6805F46051C90A0B4D12
:103BB0006B5C4568DD40C560054D6D6805F44041AE
:103BC000890B074D6B5CC568B5FBF3F5056130BD2E
:103BD0000010024000127A0000093D004800002059
:103BE000580000202DE9F04F8FB00CA889490DAB8B
:103BF00008AACDE900108849884803F0C3F8854831
:103C0000008800F4807000287ED00898FCF773FDCF
:103C100004464FF09D41FCF7A8FB814908600998D4
:103C2000FCF769FD04464FF09D41FCF79EFB7D4982
:103C300008600A98FCF75FFD04464FF09D41FCF7D1
:103C400094FB794908600B98FCF755FD04464FF04A
:103C50009D41FCF78AFB75490860714801684FF087
:103C60008040FCF750FB06906F4801680698FCF70F
:103C70004AFB82466B4801684FF04040FCF743FB2B
:103C800006906A4801680698FCF73DFB834651465A
:103C9000FCF7E1FA0790FCF787FD804602F010FA86
:103CA00006464FF06632624BFCF744FC0446FCF7D4
:103CB000A7FD604908605C4801684FF08040FCF750
:103CC00022FB0390584801680398FCF71CFB8246CE
:103CD000544801684FF04040FCF715FB03905148F1
:103CE00001680398FCF70FFB83465146FCF705FB80
:103CF00081464FF07E51FCF7AEFA0446FCF754FDC6
:103D0000CDE90401464800E081E001684FF08040C1
:103D1000FCF7F9FA8346434801685846FCF7F3FA82
:103D20008146414801684FF08040FCF7ECFA834639
:103D30003E4801685846FCF7E6FA82464946FCF7D9
:103D40008AFA0446FCF730FD0746DDE9042302F059
:103D5000FFFB4FF06632364BCDE90601FCF7EAFB7C
:103D60000546FCF74DFD344908603048016800689D
:103D7000FCF7C9FA03902C4801680068FCF7C3FA05
:103D80000290284801680068FCF7BDFA8346244881
:103D900001680068FCF7B7FA59460190FCF75BFA36
:103DA00082460299FCF7A9FA81460399FCF7A5FA25
:103DB0000446FCF7F9FCCDE904011C4801681848E9
:103DC0000068FCF7A0FA82461748016815480068A9
:103DD000FCF799FA83465146FCF73DFA81464FF0CD
:103DE0008041FCF790FA0446FCF7DEFC0746DDE96B
:103DF000042302F0ADFB4FF066320D4BCDE9060116
:103E0000FCF798FB0546FCF7FBFC0C4908600FB07B
:103E1000BDE8F08F6C0000206600002060000020EC
:103E20007C0000208000002084000020880000200A
:103E300066A64C407000002074000020780000202E
:103E4000014611B101290ED106E0094A128810B2CB
:103E50000022074B1A8008E0064A128810B200229E
:103E6000044B1A8001E0002000BF00BF7047000033
:103E700024040040240800402DE9F05F4221D020B6
:103E8000FEF7F2FA05464121D020FEF7EDFA05EBE8
:103E900000242046FCF72FFC82464FF08E4150460E
:103EA000FCF7D4FC05D24FF08F415046FCF725FAC1
:103EB00082460D495046FCF758FA8346FCF774FCDD
:103EC00080460A4A0A4BFCF78EFA06460022094B46
:103ED000FCF730FB0446FCF793FC82465046FCF7A7
:103EE00036FCBDE8F09F00000000AA43A4703D0A24
:103EF000D74342400000244010B5214801682148C2
:103F00000068FCF799FC03D01D4800681D49086053
:103F10001B4841681C480068FCF78EFC03D0184819
:103F20004068194908601648816818480068FCF71D
:103F300083FC03D012488068144908601048C168A7
:103F400013480068FCF778FC03D00D48C06810499E
:103F500008600B4801690F480068FCF76DFC03D04E
:103F6000074800690B490860054841690A4800682C
:103F7000FCF762FC03D0024840690749086010BDA5
:103F80005C060020F0000020F4000020F800002073
:103F9000FC0000200001002004010020F0B50346D1
:103FA0001446802B01DA202900DBF0BD214800797E
:103FB00020B10CB9012000E000200446012C1CD1E6
:103FC000CD1701EB5575ED1003EBC5151A4E755D58
:103FD0000A46CE1701EB5676F610A1EBC60701266E
:103FE000BE403543EEB20846CD1701EB5575ED10D6
:103FF00003EBC515104F7E551AE0CD1701EB557533
:10400000ED1003EBC5150C4E755D0A46CE1701EB9E
:104010005676F610A1EBC6070126BE40B54308460A
:10402000CE1701EB5676F61003EBC616024FBD55C0
:1040300000BFBAE7A0000020A402002010B504468B
:104040000CB9002000E0FF2002464FF40071024846
:10405000FCF7CFF810BD0000A4020020014A108038
:1040600051807047A00000202DE9F04307460C4620
:1040700090462648008821780844802805DA23489D
:10408000408861780844202802DB0020BDE8F083E6
:10409000002530E0A7F12000617800FB0150616845
:1040A00031F81090002622E009FA06F000F40040F2
:1040B00058B1164A52882A4491B2144A128832449E
:1040C00090B24246FFF76AFF10E0B8F1000F01D14D
:1040D000012300E000231A460C4B5B882B4499B265
:1040E0000A4B1B88334498B2FFF758FF761C2078A0
:1040F000B042D9D86D1C6078A842CBD8034800885C
:1041000021780844014908803846BFE7A000002014
:1041100070B504460D4616460AE020783246294618
:10412000FFF7A2FF2178884201D0207870BD641C7F
:1041300020780028F1D12078F8E7000010B500249D
:104140001BE004F1B000C2B200213C2005F046F8AB
:10415000002211463C2005F041F8102200213C20AD
:1041600005F03CF80648802101FB04020B46402183
:104170003C2005F03DF8601CC4B2082CE1DB10BD0A
:10418000A40200207047000010B50C480068401ED3
:104190000A4908600A480068012807D108460068F3
:1041A00020B9FDF79DF9074801F002F803480068BF
:1041B00010B901200149086010BD000088010020ED
:1041C00038010020F404002010B500F001F810BD03
:1041D0000CB50020019000903348006840F4803016
:1041E0003149086000BF3048006800F4003000909A
:1041F0000198401C0190009818B90198B0F5A06F83
:10420000F1D12948006800F4003010B1012000907D
:1042100001E0002000900098012843D12348006865
:1042200040F01000214908600846006820F00300B3
:1042300008600846006840F0020008601A484068BC
:10424000194948600846406848600846406840F49C
:10425000806048600846406820F47C10486008464A
:10426000406840F4E81048600846006840F08070FC
:10427000086000BF0C48006800F000700028F9D00A
:104280000948406820F00300074948600846406834
:1042900040F00200486000BF0348406800F00C0096
:1042A0000828F9D10CBD0000001002400020024097
:1042B00070B505460C4625B900201B490880091D2C
:1042C00008802CB90020184908310880091D088091
:1042D000002D09DD284604F099FE1349091D0880C8
:1042E0000020091F088008E000200F49091D0880F0
:1042F000284604F08BFE0C490880002C09DD20467E
:1043000004F084FE0849083108800020091D088057
:1043100009E00020044908310880204604F076FEB8
:1043200001490C31088070BD3434014030B503467A
:104330000C4600211AE0585C2578A84200D014E011
:10434000002206E0521CA05C8D185D5DA84200D0E2
:1043500005E0A05C18B18818185C0028F2D100BFF5
:10436000A05C08B9084630BD00BF491C585C002855
:10437000E1D1401EF7E7042808D14FF0E021096998
:1043800041F004014FF0E022116107E04FF0E0211D
:10439000096921F004014FF0E02211617047704774
:1043A00010B51348006840F0010011490860084644
:1043B0004068104908400E494860084600680E49A8
:1043C00008400B4908600846006820F48020086017
:1043D0000846406820F4FE0048604FF41F008860E3
:1043E000FFF7F2FE4FF000600449086010BD0000C6
:1043F000001002400000FFF8FFFFF6FE08ED00E0AD
:10440000F0B50C46154600220021068C4FF6FE77CB
:104410003E400684028B018C4FF60C7632407E1CA7
:1044200006EA03162E433243104EB0420ED0104E11
:10443000B0420BD0B0F1804F08D00E4EB04205D044
:104440000D4EB04202D00D4EB04206D14FF6FD7671
:10445000314044F00106314305E04FF6F576314036
:1044600044F00106314302830184F0BD002C014079
:10447000003401400004004000080040000C0040EF
:10448000F0B50C461546002200210026078C4FF699
:10449000EF7C07EA0C070784028B018C4FF6FF774D
:1044A00007EA041640F6FF473A404FF6FF7707EA5F
:1044B00003373A434FF6FF7707EA05273A43114F90
:1044C000B8420ED0104FB8420BD0B0F1804F08D098
:1044D0000E4FB84205D00E4FB84202D00D4FB84231
:1044E00006D14FF6DF77394046F01007394305E033
:1044F0004FF65F77394044F0100739430283018457
:10450000F0BD0000002C01400034014000040040D8
:1045100000080040000C0040F0B50C461546002293
:1045200000210026078C4FF6FF6C07EA0C07078472
:10453000828B018C4FF6FF7707EA04264FF60C7743
:104540003A404FF6FF7707EA03172F433A43114FDC
:10455000B8420ED0104FB8420BD0B0F1804F08D007
:104560000E4FB84205D00E4FB84202D00D4FB842A0
:1045700006D14FF6FF57394046F48077394305E0BE
:104580004FF2FF57394044F48077394382830184E6
:10459000F0BD0000002C0140003401400004004048
:1045A00000080040000C0040F0B50C461546002203
:1045B00000210026078C4EF6FF7C07EA0C070784D3
:1045C000828B018C4FF6FF7707EA043640F6FF47EF
:1045D0003A404FF6FF7707EA05273A434FF6FF7751
:1045E00007EA03373A43114FB8420ED0104FB84292
:1045F0000BD0B0F1804F08D00E4FB84205D00E4F0F
:10460000B84202D00D4FB84206D14DF6FF7739407F
:1046100046F48057394305E047F6FF57394044F4E4
:104620008057394382830184F0BD0000002C014093
:10463000003401400004004000080040000C00402D
:1046400030B587B005460C4604F030FE012108461F
:10465000FFF71EFAADF80850ADF804400020ADF8A1
:104660000A00ADF8060001A94FF0804000F07AFC86
:104670000420ADF810000020ADF812000120ADF8C4
:1046800014000020ADF81600ADF8180004A94FF092
:10469000804000F075FA1C208DF8000001208DF894
:1046A00001008DF802008DF803006846FEF7A8FCB3
:1046B00001220521880700F0C2FA0121880700F0D5
:1046C0001DF907B030BD00004FF08041088A2C4929
:1046D000097801F0800100294DD100F00101D1B12C
:1046E0002749097801F04001A9B12549097801F06D
:1046F0003F013F290AD12249098841F08001204A1F
:1047000011804FF6FF711F4A118004E01C4909888F
:10471000491C1B4A118000F0040161B31849097853
:1047200001F0400199B11649098841F08001144A0D
:1047300011804FF08041098F124A11804FF0804163
:10474000098C21F020014FF08042118413E00021F8
:104750000B4A11800B4A11800949098841F0400138
:10476000074A118000214FF0804291841146098C44
:1047700041F02001118400214FF0804211827047E6
:10478000DC000020DE000020044800880348008888
:1047900020F001000149088070470000100400402B
:1047A000044800880348008820F00100014908807F
:1047B000704700001008004010B50121254800F0A6
:1047C000CEF9002845D00121224800F094F8224873
:1047D0000088401C2049088020480078401C1F4960
:1047E00008701F480088002804DD1D480088401E0E
:1047F0001B490880FDF764FD01201A49087017481D
:104800000078022823DD002014490870FDF74AFDD6
:104810000446154801682046FBF71DFD1249086053
:1048200012480078401C1149087008460078322868
:104830000DD10F490C480068FBF797FD0D49086042
:104840000020094908600949087004F0E7FB01F0FD
:10485000F3FF10BD00100040CC000020C500002078
:10486000C6000020CF000020C0000020C4000020AF
:1048700000004842E00000201FB501211020FFF792
:1048800007F941F61F40ADF804006320ADF80800B9
:1048900001A9104800F066FB01210E4800F028F83D
:1048A000012211460B4800F0CAF936208DF80000AD
:1048B00004208DF8010002208DF8020001208DF8FF
:1048C00003006846FEF79CFB0121024800F016F841
:1048D0001FBD00000010004021B1028842F080029C
:1048E000028004E002884FF67F731A40028070470E
:1048F000CA4302827047CA430282704721B10288CC
:1049000042F00102028004E002884FF6FE731A4072
:104910000280704731B1B0F8442042F40042A0F860
:10492000442005E0B0F84420C2F30E02A0F8442071
:104930007047000010B504466848844208D1012140
:10494000C014FFF7D5F80021E014FFF7D1F8C4E058
:10495000B4F1804F08D101210846FFF7A9F80021E2
:104960000120FFF7A5F8B8E05D48844208D1012195
:104970000220FFF79DF800210220FFF799F8ACE034
:104980005848844208D101210420FFF791F8002102
:104990000420FFF78DF8A0E05348844208D101219C
:1049A0000820FFF785F800210820FFF781F894E040
:1049B0004E48844208D101211020FFF779F80021E8
:1049C0001020FFF775F888E04948844208D101219A
:1049D0002020FFF76DF800212020FFF769F87CE028
:1049E0004448844208D101214014FFF781F8002196
:1049F0006014FFF77DF870E03F48844209D101213F
:104A0000C804FFF775F800214FF40020FFF770F895
:104A100063E03A48844209D101210805FFF768F8AC
:104A200000214FF48010FFF763F856E034488442C9
:104A300009D101214805FFF75BF800214FF4001070
:104A4000FFF756F849E02F48844208D10121402061
:104A5000FFF72EF800214020FFF72AF83DE02A4812
:104A6000844208D101218020FFF722F80021802014
:104A7000FFF71EF831E02548844208D10121801556
:104A8000FFF716F80021A015FFF712F825E02048DF
:104A9000844209D101210804FFF72AF800214FF4CC
:104AA0008030FFF725F818E01A48844209D1012127
:104AB0004804FFF71DF800214FF40030FFF718F805
:104AC0000BE01548844208D101218804FFF710F853
:104AD00000214FF48020FFF70BF810BD002C01409F
:104AE0000004004000080040000C0040001000409E
:104AF0000014004000340140004C014000500140CF
:104B00000054014000180040001C004000200040FC
:104B1000004001400044014000480140F0B50C460F
:104B200015461E460021002200230189028B038CBA
:104B30004FF6F877394021434FF6FC473A4040F2B0
:104B400001173A434FF6DD773B404FF6FF7707EA10
:104B500006172F433B43018102830384F0BD30B528
:104B60000246002000230024158A05EA01039589E6
:104B700005EA010413B10CB1012000E0002030BDB2
:104B800070B505460C46244885420ED02348854220
:104B90000BD0B5F1804F08D02148854205D021487F
:104BA000854202D02048854200D100E000BF208825
:104BB00050B92389A28861882846FFF721FCE18843
:104BC000284600F0A2F925E0208804280AD123898C
:104BD000A28861882846FFF753FCE188284600F048
:104BE0009DF917E0208808280AD12389A2886188C6
:104BF0002846FFF791FCE188284600F09CF909E07F
:104C00002389A28861882846FFF7CEFCE1882846E0
:104C100000F09AF970BD0000002C01400034014002
:104C20000004004000080040000C0040002101800A
:104C30004180012181800021C180018170471AB12A
:104C400083890B43838102E083898B43838170478F
:104C500070B5002400220023058C4FF6FE76354007
:104C60000584028C8388048B4FF68F752C40B51E0B
:104C70002C400D882C43751E2A400D892A434D88EF
:104C80002A43144DA8420BD0134DA84208D0134D0F
:104C9000A84205D0124DA84202D0124DA84213D10D
:104CA0004FF6F7752A404D892A434FF6FB752A4087
:104CB0008D882A434FF6FF652B404FF6FF552B405A
:104CC0008D892B43CD892B4383800483CD888586B2
:104CD000028470BD002C01400034014000400140BE
:104CE00000440140004801400A460021018B4FF674
:104CF000F7731940114301837047000070B5002419
:104D000000220023058C4FF6EF7635400584028C97
:104D10008388048B48F6FF752C404FF6FF452C40E6
:104D20000D884FF6FF7606EA05252C434FF6DF7512
:104D30002A400D8906EA05152A434D8806EA05151D
:104D40002A43154DA84202D0144DA8421DD14FF65A
:104D50007F752A404D894FF6FF7606EA05152A43EE
:104D60004FF6BF752A408D8806EA05152A434FF68F
:104D7000FF352B404FF2FF752B408D8906EA8505E4
:104D80002B43CD8906EA85052B4383800483CD8898
:104D90000587028470BD0000002C014000340140F2
:104DA0000A460021018B4FF2FF7319404FF6FF7343
:104DB00003EA0223194301837047000070B5002401
:104DC00000220023058C4FF6FF6635400584028CD7
:104DD0008388848B4FF68F752C404FF6FC752C40E2
:104DE0000D882C434FF6FF552A400D894FF6FF766C
:104DF00006EA05252A434D8806EA05252A43154D6E
:104E0000A84202D0144DA8421DD14FF2FF752A408E
:104E10004D894FF6FF7606EA05252A434FF6FF3502
:104E20002A408D8806EA05252A434EF6FF752B4059
:104E30004DF6FF752B408D8906EA05152B43CD896C
:104E400006EA05152B4383808483CD8885870284F9
:104E500070BD0000002C0140003401400A460021D2
:104E6000818B4FF6F773194011438183704700001F
:104E700070B5002200230024058C4EF6FF763540E5
:104E80000584038C8488828B48F6FF752A404FF690
:104E9000FF452A400D884FF6FF7606EA05252A438E
:104EA0004DF6FF752B400D8906EA05352B434D88DD
:104EB00006EA05352B430B4DA84202D00A4DA84205
:104EC00008D14BF6FF752C408D894FF6FF7606EA28
:104ED00085152C4384808283CD88A0F840500384BC
:104EE00070BD0000002C0140003401400A46002142
:104EF000818B4FF2FF7319404FF6FF7303EA0223D1
:104F000019438183704781847047028B4FF6F37396
:104F10001A400283028B0A4302837047028B4FF2CE
:104F2000FF331A400283028B4FF6FF7303EA01231B
:104F30001A4302837047828B4FF6F3731A408283C1
:104F4000828B0A4382837047828B4FF2FF331A4071
:104F50008283828B4FF6FF7303EA01231A43828315
:104F600070470000002202881D4B98420ED01D4B56
:104F700098420BD0B0F1804F08D01B4B984205D01F
:104F80001A4B984202D01A4B984204D14FF68F73B5
:104F90001A404B881A43174B984207D0164B984239
:104FA00004D04FF6FF431A40CB881A4302808B8807
:104FB00083850B8803850A4B98420BD0094B984296
:104FC00008D00E4B984205D00D4B984202D00D4BA5
:104FD000984201D10B7A0386012383827047000037
:104FE000002C014000340140000400400008004053
:104FF000000C004000100040001400400040014040
:1050000000440140004801404FF6FF7181800021BB
:105010000180C18041800172704700002DE9F0419C
:105020000546884613492846FBF706FC13D3124968
:105030002846FBF70BFC0ED310480068FBF7B4FBC7
:1050400006464FF033320E4BFBF7C2FB03D30D483D
:10505000007801280AD1012400200B490880091D8D
:105060000880091D0880091D088000E000242046F2
:10507000BDE8F081000020C200002042E0000020D6
:105080003333234030000020343401402DE9F04711
:1050900005463248066832480078032806D1314870
:1050A000006880F00040304908601BE02C48007820
:1050B000042804D12B4800682B49086012E02848D6
:1050C0000078052803D12948274908600AE02448C8
:1050D0000078062803D126482349086002E0002012
:1050E000214908601E480078012803D01C48007838
:1050F000022802D11F48046800E000242146284607
:10510000FBF701F982461C49FBF72FF9804631462F
:1051100015480068FBF7F7F882461749FBF725F9B1
:1051200081464146FBF797F8074614480168384620
:10513000FBF791F81249086012480078012807D15E
:10514000114801680E480068FBF7DDF80C4908605B
:105150000B480068FBF7FBFABDE8F0870001002070
:105160004C0100201801002030010020000048C23E
:1051700000004842040100200000C8422C0000202A
:1051800034010020310000201001002010B540F251
:105190002551064800F098F830B1044800F050F965
:1051A000C4B2204601F09EFB10BD0000005000403C
:1051B00070B505462C4603E0207800F04DF8641CDD
:1051C00020780028F8D170BD10B5002440F2255198
:1051D000054800F079F830B1034800F031F9C4B265
:1051E000204600F003F810BD0038014010B5044619
:1051F00000BF8021044800F05AF80028F9D0214669
:10520000014800F022F910BD0038014010B540F20D
:105210002551084800F058F858B140F2255105488A
:1052200000F02AF8034800F00BF9C4B2204600F061
:1052300003F810BD0044004010B5044600BF8021B3
:10524000044800F034F80028F9D02146014800F065
:10525000FCF810BD0044004010B5044600BF80219A
:10526000044800F024F80028F9D02146014800F055
:10527000ECF810BD0050004010B50022002340F6AD
:105280006A14A14200D100BF0A1201249440A3B2C3
:10529000DC43048010BD21B1828942F40052828136
:1052A00004E082894DF6FF731A40828170470246FE
:1052B0000020B1F5007F00D100BF13880B400BB177
:1052C000012000E00020704770B502460024002352
:1052D0000025002040F66A16B14200D100BFC1F39C
:1052E000421501F01F03012606FA03F3012D02D136
:1052F0009689334006E0022D02D1168A334001E040
:10530000968A33400C12012606FA04F416883440BB
:1053100013B10CB1012000E0002070BDF0B50346D0
:10532000002400260025002040F66A17B94200D16B
:1053300000BF1846C1F3421401F01F06012707FA07
:1053400006F5012C01D10C3004E0022C01D1103003
:1053500000E014301AB107682F43076002E00768C5
:10536000AF430760F0BD00002DE9F04786B0054669
:105370000E460024A24600BFA1460027B08900B116
:1053800000BF2F462C8A4CF6FF700440F08804437F
:105390002C82AC894EF6F3100440B0883189084362
:1053A000718908430443AC81AC8A4FF6FF40044046
:1053B000B0890443AC8201A8FEF7AAFB1F488742CC
:1053C00002D1DDF810A001E0DDF80CA0A88900F4FE
:1053D000004040B10AEBCA0000EB0A1031684900F6
:1053E000B0FBF1F807E00AEBCA0000EB0A103168E5
:1053F0008900B0FBF1F86420B8FBF0F0040120094B
:10540000642101FB1089A88900F4004040B13220DA
:1054100000EBC900B0FBF1F000F00700044308E026
:10542000322000EB09106421B0FBF1F000F00F0016
:1054300004432C8106B0BDE8F0870000003801402D
:1054400001468888C0F308007047C1F308028280D3
:10545000704700BFFEE700002DE9FC5F0446894667
:1054600051480078012804D150480068504908602C
:105470000EE04D480078022806D14C48006880F0C4
:1054800000404B49086003E04A480068484908600A
:1054900004EB09014842FBF72EF9474908604748E9
:1054A0000068FBF781F90746454A464BFBF742F88F
:1054B0000546FBF7A5F9414908603F480068FBF73E
:1054C00073F90546404A414BFBF734F807468846D6
:1054D0003A480068FBF768F982463A464346FAF7CD
:1054E00082FFCDE90001FBF78BF9344908600846DB
:1054F000016837480068FAF7AEFE354908602C4865
:10550000016833480068FAF7A6FE3149086031495E
:105510002F480068FBF79AF902D22E482C49086000
:105520002D492B480068FBF787F902D22A48284901
:1055300008602A48016826480068FAF7E4FE074632
:105540002749FAF712FF05461C48006880F000481A
:10555000244801684046FAF7D6FE07462049FAF784
:1055600004FF06462946FAF7C8FE1F4908601F488F
:1055700001681F480068FFF751FD012802D1002093
:10558000134908601B480078012807D11A480168B0
:1055900015480068FAF7B7FE13490860124800681A
:1055A000FBF7D5F8BDE8FC9F4C010020140100205A
:1055B00028010020280000202001002024010020D4
:1055C000E17A14AE47E1EA3F7B14AE47E17AC43F8B
:1055D0002C0100200000FA450000FAC5FC00002064
:1055E0000000C842F80000201C010020E00000205C
:1055F00004000020310000200C0100200FB4054BF6
:1056000010B503A9044A029800F07EF910BC5DF8B9
:1056100014FB0000357600089C0000200FB4084BF6
:1056200010B504A902AA039800F06EF9044602A975
:10563000002000F0ECFC204610BC5DF814FB0000DC
:105640000F600008490050EAC12018BF04204A0D2D
:1056500018BF40F0010040F2FF72B2EB515F08BF8B
:1056600040F00200012808BF052070472DE9F041F5
:105670004F1E00EBC7010446D1E9000115461E4646
:1056800037F006020DD02A463346FAF753FF7F1E45
:1056900004EBC703D3E90023FAF7A5FE37F00602AF
:1056A000F1D1022F25D0042F13D0062F18BFBDE84B
:1056B000F0812A463346FAF73DFFD4E90A23FAF788
:1056C00092FE2A463346FAF735FFD4E90823FAF763
:1056D0008AFE2A463346FAF72DFFD4E90623FAF765
:1056E00082FE2A463346FAF725FFD4E90423FAF767
:1056F0007AFE2A463346FAF71DFFD4E90223FAF769
:1057000072FE2A463346FAF715FFD4E90023BDE8B6
:10571000F041FAF768BE0122FBF7ECB9FAF763BE75
:105720000022134610461146FAF776BF024A0020BF
:105730001107FBF7DFB9000001FDFFFF014800681A
:10574000704700008C02002002E008C8121F08C148
:10575000002AFAD170477047002001E001C1121FF2
:10576000002AFBD170470000014908607047000023
:105770008C0200202DE9FF5F82B00021DDE90430BA
:10578000020DDDF840B0034318D044F61050A2F2E9
:10579000FF3242431514119801281FD0A5EB0B00CE
:1057A000401C5FEA000A4FF000064E4FDFF83891C8
:1057B000B046504615D5CAF1000413E011980124F3
:1057C0004AA3012801D16FEA0B010298119AC0E99E
:1057D0000031C0E9024206B0BDE8F09FCBF1000005
:1057E000DFE704460021404A491842EB0450CDE966
:1057F000001012E0E00707D032463B4640464946DB
:10580000FAF798FE8046894632463B4610461946CE
:10581000FAF790FE06460F466410002CEAD1DDE947
:105820000401DDE90023BAF1000F06DAFAF782FE7F
:1058300042464B46FAF77EFE05E0FAF7EDFE424699
:105840004B46FAF7E9FE04460E460022284BFBF7CA
:1058500081F903D84FF0FF30014607E00022254BC5
:1058600020463146FAF7BFFDFBF75BF9102409E04B
:10587000002C0ADB0A220023FBF708F8039B3032D6
:105880001A55641E50EA0102F2D1641C039AC4F155
:1058900011031444119A012A03D0012208430DD1A7
:1058A0000AE0084304D000204FF0110B119072E77A
:1058B000A3EB0B056D1E0DE05B4504DD4FF0000210
:1058C00005F1010504E003DA4FF00002A5F101053E
:1058D000002AECD002981199C0E90231C0E90045D4
:1058E00079E70000000014400000F03F30000000A5
:1058F0000000F0430000E03F30380A2801D20120C8
:1059000070470020704700002DE9FF4F95B09A4680
:10591000884606460025EEE1252877D10024274653
:10592000F94A0121039400E0044316F8013F203BAB
:1059300001FA03F01042F7D130782A2811D06FF025
:105940002F033078A0F13002092A16D8039A44F0C8
:10595000020402EB820203EB42021044761C039025
:10596000EFE758F8042B0392002A03DA504244F47C
:105970000054039044F00204761C30782E2816D18F
:1059800016F8010F44F004042A280DD06FF02F02FE
:105990003078A0F13003092B09D807EB870302EB1D
:1059A0004303C718761CF3E758F8047B761C30785D
:1059B0006C280FD006DC4C2817D068280DD06A2838
:1059C00014D104E0742810D07A280FD10DE044F4EB
:1059D00000140AE044F4801401E044F440147278A6
:1059E000824202D104F58014761C761C3078662839
:1059F0000BD013DC582877D009DC002875D0452857
:105A0000F6D04628F4D047281AD193E118E063284D
:105A100035D0642879D0652812D18BE1702873D0F5
:105A200008DC6728F1D069286FD06E280DD06F2868
:105A300006D1ACE073282CD0752874D0782853D0C8
:105A40005246179990476D1C54E1C4F30250022846
:105A500009D003280DD0D8F8001004280DD00D600F
:105A600008F1040846E1D8F80010EA17C1E900522D
:105A7000F6E7D8F800100D80F2E70D70F0E718F89F
:105A8000041B8DF8001000208DF80100EB4601206A
:105A900003E058F804BB4FF0FF3061074FF00001FE
:105AA00002D40DE009F101018946B9420FDA8145BE
:105AB000F8DB1BF809100029F4D108E009F1010115
:105AC00089468142FADB1BF809100029F6D10398B8
:105AD0005346A0EB090721463846179A00F080FA92
