:0300000002040DEA
:0C040D00787FE4F6D8FD75811302018DA4
:10000E005A68616E674368616E675F3230323532AF
:10001E003130353534202020205A756F58696E677F
:10002E006C655F323032353231303536312020203A
:10003E00205A68616E6759757876616E5F3230321C
:10004E0035323130353630202020204C756F4261EC
:10005E00697368756F5F323032353231303535390C
:10006E00003230323630355F53656C665F42616CFC
:10007E00616E63696E675F526F626F740000FC00A1
:10008E0044000400FC0044000400FD008200040053
:10009E00FD0082000400FD00C8000400FD00C80041
:1000AE000400FD0082000800FD0034000400FD0085
:1000BE0034000400FD0009000400FD0009000400E6
:1000CE00FC00AC000400FC00AC000400FC0044008A
:1000DE000800FD0082000400FD0082000400FD0007
:1000EE0034000400FD0034000400FD00090004008B
:1000FE00FD0009000400FC00AC000800FD008200B9
:10010E000400FD0082000400FD0034000400FD0028
:10011E0034000400FD0009000400FD000900040085
:10012E00FC00AC000800FC0044000400FC0044008D
:10013E000400FD0082000400FD0082000400FD00AA
:10014E00C8000400FD00C8000400FD008200080085
:10015E00FD0034000400FD0034000400FD00090021
:10016E000400FD0009000400FC00AC000400FC00CB
:0F017E00AC000400FC004400080000000000007A
:10018D00E4F5081203BD1203681203FEE4F510E551
:10019D001090000E93C39420748094804004051039
:1001AD0080EDE4F511E51190006F93C394207480F8
:1001BD0094804004051180ED758901D2AFD2A9C29A
:1001CD008CE4F512AF1212029475F002E508A42426
:1001DD008BF582E5F03400F5837401937002E4939E
:1001ED00701975F002E508A4248DF582E5F0340050
:1001FD00F5837401937002E493604785081375F0DD
:10020D0002E508A4248FF582E5F03400F58374012E
:10021D0093F509D28CE4F50AF50BC3E50B9509E5C9
:10022D000A940050117F987E3A120419050BE50BC4
:10023D0070E8050A80E4C28CD29574032508F50890
:10024D008003E4F5080512E5102410FFE433FEAD3C
:10025D00127C00D3ED9FEE6480F87480984017E512
:10026D00112410FFE433FED3ED9FEE6480F874800B
:10027D00984003E4F5127FB87E0B1204197FB87E07
:07028D000B1204190201D15C
:03000B00020326C7
:10032600C0E0C0F0C083C082C0D075F002E513A45F
:10033600248BF582E5F03400F583E4740193F58CA3
:1003460075F002E513A4248DF582E5F03400F583FB
:10035600740193F58AB295D0D0D082D083D0F0D0F4
:02036600E03283
:020294008F0CCD
:100296007D017F011203A7E4FD7F801203A7E4F529
:1002A6000DC3E50D941074809480502FE50D250C38
:1002B60024F0F50EFF3395E0FEC36480948040126F
:1002C600EF95107480F86E985008EF90000E93FF2B
:1002D60080027F201203EB050D80C6E4FD7FC0126D
:1002E60003A7E4F50DC3E50D941074809480502F98
:1002F600E50D250C24F0F50EFF3395E0FEC3648072
:1003060094804012EF95117480F86E985008EF9023
:0F031600006F93FF80027F201203EB050D80C65E
:0103250022B5
:10036800E4F580FD7F381203A71203FE1203A312DF
:1003780003FE1203A31203FE7D017F381203A77D3B
:10038800017F081203A77D017F011203A77D017F6A
:0B039800061203A77D017F0C0203A7E3
:0403A300E4FD7F38BE
:1003A7008F0FED60031203D6850F80C290C291C2F2
:0603B70092C292D29222D4
:1003EB008F0F1203D6850F80D290C291C292C29208
:0303FB00D2922279
:1003D6007580FFC290D291C292C292D292E58020DD
:0503E600E7FBAF8022DF
:0E03FE007FB07E15EF1FAC0670011E4C70F62E
:01040C0022CD
:1003BD007D05AC051DEC60107E1C7F65EF1FAA0648
:0803CD0070011E4A60EC80F48F
:0103D5002205
:0B041900EF1FAC0670011E4C70F622B5
:00000001FF
