:030000000200E813
:0C00E800787FE4F6D8FD75810F02012F2F
:10020300426C75655F546F6F746820202020202036
:1002130020002020202020202020202020202020FB
:1002230020200051525F436F64655F436F6E7472A9
:030233006F6C00ED
:03000300010C539A
:0B023600E4FD7F381202D97F057E0036
:10024100E4FDFCC3ED9FEC9E5015E4FBFA0BBB00F3
:0F025100010AEB64784A70F50DBD00010C80E4E2
:01026000227B
:10000E007580FFC290D291C292C292D292E58020A8
:05001E00E7FBAF8022AA
:1002D900AE07ED600312000E8E80C290C291C292E9
:0502E900C292D2922236
:1002EE00AE0712000E8E80D290C291C292C292D2EE
:0202FE0092224A
:10026100E4F5801202371202361202367D017F3820
:100271001202D97F081202D97F011202D97F061218
:0702810002D97F0C0202D933
:0601BD007C027D157F02AB
:0401C3008C0E8D0F02
:1001C700EF640170047F8080027FC07D011202D935
:1001D7001DEDC39410748094805020E50F2DF58297
:1001E700E4350EF583E493FFC39420748094804034
:0B01F7000280027F201202EE0D80D675
:0102020022D9
:1002C30053890F438920758DFD758BFDD28E7598EB
:0602D30050D2ACD2AF22B4
:10030000BF4204E4F5A022BF510475A0FE2275A0EF
:02031000FB22CE
:0E031200438902758CA4758AA4D2A9D28C22CC
:10028800EFD394197480948040027F19EFC39405CA
:0E0298007480948050027F058F08E4F50B22DD
:030023000202A630
:1002A600C0E0C0D075D000C00730980AC2988599C2
:0D02B6000CAF0C120300D007D0D0D0E03206
:03000B000201747B
:10017400C0E0C0D00509C3E509946474809480404C
:1001840003750900E509C3950A50028001C39297DB
:10019400E50A6508601C050BC3E50B941474809490
:1001A40080400F750B00E50A95085004050A80028B
:0901B400150AD295D0D0D0E0323A
:100026001202C3120312E4F509750A0F75080FF5DB
:100036000B750C537F531203007F2C7E0112024175
:0F0046001202617C027D037F011201C31201BD12
:10005500E4F50D20B7247F147E0012024120B71A63
:10006500D3E5089414748094805007E5082405FFAF
:1000750080027F1912028830B7FD20B6247F147ED6
:100085000012024120B61AC3E508940A74809480D0
:100095004007E50824FBFF80027F0512028830B681
:1000A500FDE50C64517016E50D6451602C750D511C
:1000B5007D017F011202D97C027D268014E50D6445
:1000C500517016850C0D7D017F011202D97C027DD0
:1000D500037F011201C31201BD7F0A7E0012024196
:0300E500020058BE
:1000F400020026E493A3F8E493A34003F68001F2FC
:1001040008DFF48029E493A3F85407240CC8C3330C
:10011400C4540F4420C8834004F456800146F6DFDB
:10012400E4800B0102040810204080900003E47E68
:10013400019360BCA3FF543F30E509541FFEE493D0
:10014400A360010ECF54C025E060A840B8E493A397
:10015400FAE493A3F8E493A3C8C582C8CAC583CAC2
:10016400F0A3C8C582C8CAC583CADFE9DEE780BE7A
:0100060000F9
:00000001FF
