:020000040800F2
:10000000C00A0020490100082B3200089126000890
:1000100027320008F91400083758000800000000D3
:10002000000000000000000000000000B1430008D4
:10003000211C000800000000C1360008CB45000864
:100040006301000863010008630100086301000800
:1000500063010008630100086301000863010008F0
:1000600063010008630100086301000863010008E0
:1000700063010008630100086301000863010008D0
:1000800063010008630100086301000863010008C0
:1000900063010008630100086301000863010008B0
:1000A00063010008630100086301000863010008A0
:1000B000F5480008B5490008CD490008630100086B
:1000C0006301000863010008630100086301000880
:1000D00063010008F553000839540008DD55000895
:1000E000491C00086301000863010008630100085F
:1000F0006301000863010008630100086301000850
:10010000630100086301000863010008630100083F
:1001100063010008B9530008E549000863010008BD
:10012000630100086301000863010008630100081F
:10013000DFF810D000F034FD00480047418200088D
:10014000AFF30080C00A00200648804706480047F9
:10015000FEE7FEE7FEE7FEE7FEE7FEE7FEE7FEE777
:10016000FEE7FEE7CD450008310100082DE9F0412A
:100170000024061B254671F1000605DA012400273C
:10018000D0EB070067EB0101161E73F1000605DADC
:100190000027D2EB0702012567EB030300F084FB85
:1001A00086460E4617469C46AC4204D00025D0EB4E
:1001B000050E65EB010624B10020D2EB000760EBD1
:1001C000030C704631463A466346BDE8F08140EA8A
:1001D00001039B0703D009E008C9121F08C0042AC5
:1001E000FAD203E011F8013B00F8013B521EF9D2AC
:1001F0007047D2B201E000F8012B491EFBD27047D4
:100200000022F6E710B513460A4604461946FFF7E2
:10021000F0FF204610BD421E12F8013F002BFBD11B
:1002200011F8013B02F8013B002BF9D17047421C49
:1002300010F8011B0029FBD1801A704710B500226D
:1002400000E0521C835C8C5CA34201D1002BF8D1EE
:10025000D8B2E1B2401A10BD30B5044600200346C2
:1002600000E05B1C934203D2E05CCD5C401BF8D005
:1002700030BDF0B480EA0102D40F4200B2EB410F6E
:1002800002D20246084611464A0042D0C30DDDB2F2
:10029000C1F3C752AD1A202D35DAC1F3160141F46E
:1002A000000204B15242C5F1200602FA06F12A41C9
:1002B0001044B3EBD05F23D0C4B1012DA0EBC350E9
:1002C00009DCF0BC4FF0004202EAC352DBB200F599
:1002D000000000F092BB400000F1807000EBC350C2
:1002E000A0F1807040EAD170490009E0490841EA74
:1002F000C071A0EBC35000F50000400800EBC350F4
:10030000F0BC00F071BB6142012202EB4101001B15
:10031000F6E7F0BC704781F00041AAE780F00040AA
:10032000A7E780EA010210B502F00043400022D0A6
:100330004A001FD0010E01EB1261C0F35600C2F358
:10034000560240F4000042F40002A0FB0220000428
:100350007F39140400D0401C50EA124001D4400000
:10036000491EC2B20C0604EBD010401C4008802A83
:1003700002D003E0002010BD20F00100002900DAC7
:100380000020184310BD30B480EA010202F000459D
:1003900030F0004221F0004013D090B1C30DD40DD5
:1003A000C2F31601C0F31600E41A41F4000140F450
:1003B00000027D34914201D3641C00E04900002C0E
:1003C00002DA30BC002070474FF400000023914255
:1003D00001D3891A034340084FEA4101F7D151B1D3
:1003E000914202D14FF0004105E002D24FF00101ED
:1003F00001E06FF0010103EBC450284430BC00F071
:10040000F3BA2DE9FE4F804681EA0300C00F0C4687
:10041000009021F0004123F00045B8EB0200A94113
:1004200005D24046214690461C460B46024623F024
:100430000040104347D0270DC7F30A00C3F30A5109
:100440000290401A019040286BDAC3F3130040F485
:10045000801B0098924620B10023D2EB030A63EB85
:100460000B0B01985946C0F14002504600F04DFA7E
:1004700006460D4650465946019A00F055FA10EBD3
:1004800008006141002487EA115284EAE7731A43A5
:1004900040D0009A62B3019A012A4FEA075215DC54
:1004A000001B61EB02014FF0004202EA0752CDE966
:1004B0000042001C41F5801132462B4600F0DAFA6A
:1004C00003B0BDE8F08F40462146F9E7001B61EB21
:1004D0000201001C41F5801300185B412018A2F5B1
:1004E000001747EB030140EAD570B6196D4111E0E2
:1004F0006D084FEA360645EAC0754FEA0752001B01
:1005000061EB0201001C41F5801149084FEA3000FF
:100510000019514132462B4603B0BDE8F04F00F0C0
:100520009ABA0098012240000023D0EB020263EB4C
:10053000E073009821464FEAE074B8EB000061EBED
:100540000401E9E783F000435BE781F0004158E7ED
:100550002DE9FE4F81EA030404F0004421F000413C
:1005600000944FF0000B23F0004350EA01045ED0EA
:1005700052EA03045BD0C3F30A54C1F30A552C4476
:10058000A4F2F3340194A0FB0254C1F3130141F42B
:100590008011C3F3130343F4801301FB024400FBF7
:1005A000034E840A970A44EA815447EA8357A4FB1E
:1005B000076802958D0A05FB07854FEA932C04FB1B
:1005C0000C542705029D4FEA065847EA1637B5EB4B
:1005D00008056EEB070C870E920E47EA811742EA78
:1005E0008312A7FB0201B6EB0B0164EB00042B0D99
:1005F00043EA0C335E1844EB1C50DA465146E7FBE5
:100600000201C5F313044FEA0B3343EA14534FEAD4
:100610000432019C43EA0603A4F10C040294009CFA
:10062000CDE900B400F026FA03B0BDE8F08F002059
:100630000146F9E72DE9F04D81EA030404F0004B8F
:1006400021F0004514464FF0000A23F0004150EA23
:10065000050220D054EA01021DD0C5F30A57024614
:10066000C5F31303C1F31300C1F30A5640F4801518
:1006700043F48013A7EB0608101BD64608F2FD389A
:1006800073EB050002D308F1010801E092185B4109
:10069000B8F1000F03DA00200146BDE8F08D00201C
:1006A0004FF48011064684460EE0171B73EB0507D6
:1006B00005D3121B63EB050306434CEA010C490802
:1006C0004FEA300092185B4150EA0107EDD152EA3F
:1006D000030012D082EA040083EA0501084305D032
:1006E000101BAB4106D20122002306E000224FF08E
:1006F000004302E06FF0010253101AEB06004CEBCE
:10070000085110EB0A0041EB0B01BDE8F04D00F081
:10071000A2B9C10F80EAE0700844CA0796230021FD
:1007200000F06BB996230022114600F066B90EB5B1
:10073000C10F80EAE0700844CA07002140F2334349
:100740008DE80E000A460B4600F094F903B000BD98
:100750000EB540F2334102910021CDE900110A4665
:100760000B4600F087F903B000BD00F0004220F016
:100770000040C10DC0F3160040F400007F2901DAEB
:1007800000207047962903DCC1F19601C84001E0C2
:1007900096398840002AF4D04042704720F000404B
:1007A000C10DC0F3160040F400007F2901DA0020DB
:1007B0007047962903DCC1F19601C840704796390D
:1007C0008840704700F0004230F000400AD0C10D70
:1007D00001F56071C0F3160042EA0151C2084007FA
:1007E00011437047002001467047000030B5041ED9
:1007F00071F1000404DB4FF00044404264EB01015E
:10080000141E73F1000405DB1C464FF000435242F6
:1008100063EB04038B4208BF824230BD01F000430A
:1008200030B421F0004150EA010206D00A0DA2F5D1
:100830006072C1F31301002A02DC30BC0020704753
:10084000440F44EAC104C100E01830BC00EBC250C0
:1008500000F0CAB8002801DBC0F10040002901DB2C
:10086000C1F1004181427047002801DBC0F1004026
:10087000002901DBC1F100418842704730B50B46C9
:10088000014600202022012409E021FA02F59D42C0
:1008900005D303FA02F5491B04FA02F52844151E94
:1008A000A2F10102F1DC30BD2DE9F05F0546002028
:1008B00092469B4688460646814640241BE02846D1
:1008C00041464746224600F07DF953465A46C01A33
:1008D000914110D311461846224600F016F82D1A01
:1008E00067EB01084F4622460120002100F00DF879
:1008F00017EB00094E41201EA4F10104DFDC48463D
:1009000031462A464346BDE8F09F202A04DB203AC0
:1009100000FA02F1002070479140C2F1200320FA52
:1009200003F3194390407047202A06DBCB17203A87
:1009300041FA02F043EAE07306E041FA02F3D040E4
:10094000C2F1200291400843194670470FB40023BA
:1009500000B589B00CA900910B996FF00042CB60F3
:100960001E4B06931E4B07930423CDE901321D4A0B
:10097000089202466B46002000F0CEF909B05DF8FF
:1009800014FB70B586B006464FF0FF300091CDE9FC
:100990000101002015460C4604903246694604A821
:1009A000FFF7D4FF02460498211825B108B1084684
:1009B00000E020462860049800280DD0002A02DDBF
:1009C0000098884208D0081B0094CDE90104324603
:1009D000694604A8FFF7BAFF06B070BD510F0008C2
:1009E0006F0F0008E50B00080029A8BF7047401CE6
:1009F000490008BF20F00100704710B4B0FA80FC35
:100A000000FA0CF050EA010404BF10BC704749B171
:100A1000CCF1200421FA04F411FA0CF118BF0121E1
:100A200021430843A3EB0C01CB1D4FEA00614FEAC1
:100A3000102042BF002010BC704700EBC350104490
:100A40000029A4BF10BC7047401C490008BF20F01B
:100A5000010010BC704710B5141E73F1000408DAD1
:100A6000401C41F1000192185B411A4301D120F072
:100A7000010010BD2DE9F04D92469B4611B1B1FA2F
:100A800081F202E0B0FA80F220329046FFF73DFF9B
:100A900004460F4640EA0A0041EA0B0153465A4613
:100AA000084313D0114653EA010019D0C8F140029F
:100AB000504600F087F805460E46504659464246D5
:100AC000FFF723FF084305D0012004E02046394604
:100AD000BDE8F08D0020054346EAE0762C4337431D
:100AE0000A986305E40AA0EB08000022FD0A44EA24
:100AF00047540A3002D500200146E9E701051019E4
:100B00006941DDE9084500196941BDE8F04DA2E7FA
:100B100070B521F0004303430CD0C1F30A55002403
:100B2000D5EB040564EB0403D617AD1AB34102DB21
:100B30000020014670BD201841EB025170BDC1F389
:100B40000A52C1F3130140F2FF3341F480119A427B
:100B500002DA00200146704740F233439A42A2F283
:100B6000334202DC524200F02DB8FFF7CEBE000047
:100B700030B5041E71F1000404DB4FF00044404224
:100B800064EB0101141E73F1000405DB1C464FF0F9
:100B90000043524263EB0403994208BF904230BDC8
:100BA000064C074D06E0E06840F0010394E80700BA
:100BB00098471034AC42F6D3FFF7BEFAB0CD000828
:100BC000D0CD0008202A04DB203A21FA02F00021CF
:100BD000704721FA02F3D040C2F12002914008434D
:100BE00019467047C0B24FF4F05100F023BA00002C
:100BF0002DE9FF4F087883B09946FF2805D0491C9E
:100C00002D2804D00024002008E000200BE001245F
:100C1000F9E700EB800003EB4000491C0B78FF2B49
:100C2000F7D104B1404200230293147819461D46BF
:100C30002D2C01D02B2C04D1521C2D2C13D0002490
:100C40000294AA461478FF2C0FD00A25A3FB05783E
:100C500001FB05814FF0000C03FB0C11521CE31942
:100C60004AEB0101EEE70124EAE7814453EA01007F
:100C700002D019F5C87F06DA03980021C0E90011F7
:100C800007B0BDE8F08F0025AE4E2F46DFF8B882E2
:100C9000184600F0E3F9CDE90001B9F1000002DAED
:100CA000C9F1000400E004460023A74A1AEB030B35
:100CB00042EB045A12E0E00707D02A463346384692
:100CC0004146FFF745FC074688462A46334610460C
:100CD0001946FFF73DFC05460E466410002CEAD18C
:100CE000DDE90001B9F1000F5A46534606DAFFF775
:100CF000A1FC3A464346FFF79DFC05E0FFF728FCC0
:100D00003A464346FFF724FC029A0AB181F00041BB
:100D1000039AC2E90001B3E72DE9FF4F1F468DB0EA
:100D2000D7E901464FF0FF382E2045464FF0000925
:100D30000B90B9696D1C0E988847396A82468847BE
:100D40000028F6D1BAF1FF3F0AD024F4D064002E77
:100D500011DDBAF12B0F08D0BAF12D0F0BD102E043
:100D6000404611B08DE744F48064B9696D1C0E985B
:100D700088478246761E6946600501D52D2000E031
:100D80002B208DF8000001F1010B0DF1200809E086
:100D9000B9696D1C0E98884782460F9844F4007418
:100DA000761E0560002E02DDBAF1300FF0D00B99EF
:100DB0008A453ED144F0800406E00F99681CA9F1F1
:100DC000010944F400740860B9696D1C761E0E9820
:100DD000884782463028F0D02BE00B998A4505D110
:100DE000200603D444F08004761E18E0504604F038
:100DF00075FF08B30DF11301761E44F400748B45A2
:100E000008D2AAF130000BF8010B200607D5A9F192
:100E1000010003E0200602D409F101008146A0058B
:100E200002D50F99681C0860B9696D1C0E98884737
:100E30008246002ED1DC53E0002E51DDBAF1650F61
:100E400002D0BAF1450F4BD1A00549D5B9696D1C47
:100E500024F44074761E0E9888478246002E0CDDDE
:100E60002B2804D0BAF12D0F07D144F48074B9694E
:100E70006D1C0E9888478246761EE00501D52D210F
:100E800000E02B2108F8011BCDF82C8021E00DF1AA
:100E90002901761E44F4007488450CD2AAF1300072
:100EA00010F0FF0088F8000002D10B99884509D99D
:100EB00008F1010806E0E00501D5244801E042F20E
:100EC0000F708146B9696D1C0E98884782460F984D
:100ED0000560002E04DD504604F000FF0028D6D146
:100EE000F9690E988847FF208BF8000088F8000009
:100EF0000020069007904B466A4608A906A8FFF70F
:100F000077FEA00502D46FF001002AE714F0240F49
:100F10000AD0E00714D1DDE906123868031D3B60F2
:100F20000068C0E900120BE0DDE90601FFF776FC7E
:100F30000146E00704D13868021D3A60006801608C
:100F400028460EE7000014400000F03FF1D8FFFFF4
:100F5000426842B1016811F8013B23B1521EC0E959
:100F60000012184670470121C160881E7047426810
:100F70005AB1C368016843B983688B4205D0491EE2
:100F8000521CC0E90012002070474FF0FF3070473C
:100F90002DE9F04D00231A461B1A8A4103DB00207D
:100FA0000146BDE8F08DC1F30A52C1F3130141F4CB
:100FB00080154FF0000BD10702D100186D41521E71
:100FC0000027044640F2FF11384601EB620A3E4614
:100FD0008046024600204FF48011FFF7F3FDC2194E
:100FE0007141BB1846EB0100B4EB030C75EB000C30
:100FF00004D3E41A65EB000517460E46241908F1E0
:1010000001006D4180463428E3DDF91946EB060006
:10101000091BA84103D24FF0FF32134601E0002222
:1010200013461BEB070046EB0A51BDE8F04DFFF7F6
:1010300012BD00007F2801D9002208E0064A02EB19
:101040005002C007127800D1120902F00F020120ED
:10105000904008407047000020CD00080EB540F2D7
:10106000334202920022CDE900221346FFF702FD2F
:1010700003B000BD70B58C1810F8015B15F00703C4
:1010800001D110F8013B2A1106D110F8012B03E021
:1010900010F8016B01F8016B5B1EF9D12B0705D429
:1010A0000023521E0DD401F8013BFAE710F8013B72
:1010B000CB1A921C03E013F8015B01F8015B521E8E
:1010C000F9D5A142D8D3002070BD21B1826842F089
:1010D0000102826003E0826822F0010282607047B0
:1010E00010B504461248844208D10121401502F08F
:1010F00015FE0021601502F011FE17E00D48844234
:1011000008D10121001502F009FE0021201502F08E
:1011100005FE0BE00848844208D10121C80302F013
:10112000FDFD00214FF4004002F0F8FD10BD00006D
:101130000024014000280140003C014001460020FD
:101140008A6802F004020AB1012000E00020704722
:101150000146C86C80B270470246002013680B40FD
:101160000BB1012000E000207047014600208A6892
:1011700002F008020AB1012000E0002070470000E0
:1011800030B502460020002350680F4C20400D79F6
:101190000C6844EA05242043506090680B4C2040C2
:1011A000D1E902542C434D7944EA45042043906030
:1011B000D06A20F470000C7C641EE4B2234340EA41
:1011C0000350D06230BD0000FFFEF0FFFDF7F1FFDD
:1011D000F0B504460D4600200021092D11DDE06820
:1011E000A5F10A0606EB4607072606FA07F188432B
:1011F000A5F10A0606EB460603FA06F10843E0608D
:101200000CE0206905EB4507072606FA07F188433D
:1012100005EB450603FA06F108432061072A0FDAB9
:10122000606B561E06EB86071F2606FA07F18843F9
:10123000561E06EB860605FA06F10843606322E0B7
:101240000D2A0FDA206BD61F06EB86071F2606FA3B
:1012500007F18843D61F06EB860605FA06F1084318
:10126000206310E0E06AA2F10D0606EB86071F2658
:1012700006FA07F18843A2F10D0606EB860605FA89
:1012800006F10843E062F0BD816841F00801816029
:10129000704721B1826842F4A002826003E0826854
:1012A00022F4A00282607047816841F004018160ED
:1012B0007047000008B50121102002F01FFD4FF417
:1012C0007070ADF8000018208DF8030003208DF831
:1012D00002006946014800F02FFE08BD00100140E1
:1012E00030B587B005460C460121480302F006FDE3
:1012F000254803F035FC681E80B2ADF81400ADF847
:1013000010400020ADF81600ADF8120004A91E48E8
:1013100003F03EFF6020ADF800000120ADF80200B0
:101320000020ADF80600ADF808006946164803F045
:10133000A5FD6946144803F0F7FD6946124803F01D
:1013400053FE6946104803F0A9FE01210E4803F040
:10135000F7FB08210C4803F0DDFD08210A4803F0E3
:1013600035FE0821084803F08FFE0821064803F0E7
:10137000D3FE0121044803F0C5FB0121024803F01C
:10138000D3FB07B030BD0000003401402DE9FC5F05
:1013900004460D461F480068FFF7BBF9804621460A
:1013A000FEF7B9FF064629460020FEF7B4FF01907C
:1013B000194801680198FEF7B4FF82461749FEF705
:1013C000E2FF81461648006880F0004B13495846FA
:1013D000FEF7D9FF82463146FEF7A3FF494600904B
:1013E000FEF799FF8046FFF7C0F907460D480078E1
:1013F00001280CD13846FFF78CF981460A4801686C
:101400004846FEF78EFF8046FFF7AFF9074638469D
:10141000BDE8FC9F24000020F80000200000C84226
:10142000F4000020310000200C01002070B50446BB
:101430004FF47A750723012221460B48FFF7C8FEB7
:1014400001210948FFF725FF00BF02210648FFF7E9
:1014500083FE20B9281EA5F101018DB2F5D1024805
:10146000FFF776FE70BD00000024014000B587B094
:1014700001214FF4017002F041FC4FF4004002F0F2
:1014800011FC2020ADF8040000208DF8070001A910
:10149000174800F051FD1748FFF722FE0020029088
:1014A0008DF80C008DF80D004FF4602004900020A2
:1014B000059001208DF8180002A90E48FFF760FE84
:1014C00001210C48FFF701FE0A48FFF7DDFE00BFCF
:1014D0000848FFF74AFE0028FAD10648FFF7E4FE65
:1014E00000BF0448FFF72AFE0028FAD107B000BD6C
:1014F000000801400024014000BFFEE72DE9F0474D
:101500008648006801287DD18548046885480568BB
:10151000854986480068FEF736FF8549086085489A
:1015200000688549086085480068FFF711F906469C
:101530000022834BFFF77EF88146FFF76FF9804664
:1015400050218048FEF75CFE7E487FA1096801605B
:101550000A217E48FEF754FE7D480021016041606B
:1015600001810A217B48FEF74BFE7B480021016088
:10157000416001810A217948FEF742FE7848002146
:1015800001604160018177492046FFF763F90FD878
:1015900075492046FFF768F90AD82046FFF712F987
:1015A000064632460B4671A1684804F029FA01E06C
:1015B000BDE8F0876B492846FFF74CF90FD86A4918
:1015C0002846FFF751F90AD82846FFF7FBF80646E8
:1015D00032460B4665A15E4804F012FA00E0E7E7E8
:1015E000644953480068FFF73FF913D262495048F5
:1015F0000068FFF72FF90DD24D480068FFF7E2F8B9
:10160000064600E088E032460B4658A1514804F0F7
:10161000F7F900E0CCE7594947480068FFF724F99B
:1016200011D2574944480068FFF714F90BD24248D9
:101630000068FFF7C7F8064632460B464BA14648FE
:1016400004F0DEF900E0B3E700214046FFF70CF9B3
:101650000FD84B494046FFF7FDF80AD24046FFF746
:10166000B1F8064632460B4640A13C4804F0C8F9A2
:1016700000E09DE7002143480068FFF7F5F811D826
:10168000414940480068FFF7E5F80BD23D48006843
:10169000FFF798F8064632460B4634A1304804F06E
:1016A000AFF900E084E729492648FEF7B4FD37A1E9
:1016B0002448FEF7B0FD26492248FEF7ACFD34A1D0
:1016C0002048FEF7A8FD23491E48FEF7A4FD31A1DE
:1016D0001C48FEF7A0FD20491A48FEF79CFD2EA1EC
:1016E0001848FEF798FD1D491648FEF794FD2CA1F9
:1016F0001448FEF790FD1A491248FEF78CFD29A107
:101700001048FEF788FD50212748FEF779FD50224A
:101710000C492548FEF75BFD00BF49E73C0100206E
:10172000EC000020F00000200000C8421C00002057
:10173000840100200800002088010020D80000203B
:1017400000002440AC040020244C56004C0500202E
:1017500056050020600500206A0500207405002061
:101760007E05002000007A4400007AC425332E3222
:10177000660000000000FAC40000FA4400401CC6E5
:1017800000401C46E40000200000A0412C525600FE
:101790002C4143002C4759002C43534200000000C9
:1017A0002C56540023000000FC04002010B52C48E7
:1017B0000078012853D100202949087029492AA01E
:1017C000FEF73CFD50B94FF0414029490860022026
:1017D00007F024FE00202649086040E0214925A0AA
:1017E000FEF72CFD50B94FF08240214908600220DD
:1017F00007F014FE00201E49086030E019491FA0C0
:10180000FEF71CFD98B9204820490860012007F028
:1018100005FE00201D4908604FF082401449086011
:10182000012007F0FBFD00201149086017E00D4979
:1018300017A0FEF703FD90B918481449086001206D
:1018400007F0ECFD0020114908604FF08240084984
:101850000860012007F0E2FD00200549086010BD86
:10186000920100207C060020676F6261636B0000BC
:1018700028000020676F6168656164007475726E8E
:101880006C6566740000000000007AC32C00002024
:101890007475726E726967687400000000007A43A4
:1018A0002DE9F05F05460C46124E134801682046AC
:1018B000FEF737FD8346114801685846FEF7D9FC0C
:1018C000804631464FF07E50FEF725FD8246414668
:1018D000FEF727FD074631462846FEF722FD8146E2
:1018E0003946FEF7C6FC0549086008460068BDE8B1
:1018F000F09F00000AD7A33CC00100200002002096
:101900002DE9F05F05460C46124E1348016820464B
:10191000FEF707FD8346114801685846FEF7A9FC0B
:10192000804631464FF07E50FEF7F5FC8246414638
:10193000FEF7F7FC074631462846FEF7F2FC8146E3
:101940003946FEF796FC0549086008460068BDE880
:10195000F09F00000AD7A33CC001002040020020F5
:101960000146072323EA01021202054B18684FF6CD
:10197000FF031840034B18431043014B1860704796
:101980000CED00E00000FA0538B5002000906B4631
:1019900001227521682006F075FB2CA004F020F8C8
:1019A0009DF8000068280ED000BF3148006800F4A0
:1019B000E06030490843001D2D490860BFF34F8F98
:1019C00000BF00BFFEE706F01DFE00283CD17820D6
:1019D00007F022FC10B91DA004F002F8782006F0F0
:1019E000FFFC10B924A003F0FBFFC82007F0C6FBE2
:1019F00010B92BA003F0F4FF05F0BAFB10B932A028
:101A000003F0EEFF3D4806F0DFFB044605F00AFE5A
:101A100010B93BA003F0E4FF40F2731005F050FA58
:101A200010B941A003F0DCFFC82005F02BFD10B970
:101A300047A003F0D5FF07F02FFD012007F09AFA29
:101A400010B94CA003F0CCFF38BD00006D70755F7D
:101A50007365745F73656E736F7220636F6D706C06
:101A6000657465202E2E2E2E2E2E0D0A00000000ED
:101A70000CED00E00000FA056D70755F636F6E6637
:101A800069677572655F6669666F20636F6D706CFC
:101A9000657465202E2E2E2E2E2E0D0A00000000BD
:101AA0006D70755F7365745F73616D706C655F7287
:101AB00061746520636F6D706C657465202E2E2EC9
:101AC0002E2E2E0D0A000000646D705F6C6F616435
:101AD0005F6D6F74696F6E5F6472697665725F6661
:101AE00069726D7761726520636F6D706C65746586
:101AF000202E2E2E2E2E2E0D0A0000008C000020EF
:101B0000646D705F7365745F6F7269656E74617424
:101B1000696F6E20636F6D706C657465202E2E2E5C
:101B20002E2E2E0D0A000000646D705F656E6162DE
:101B30006C655F6665617475726520636F6D706C4E
:101B4000657465202E2E2E2E2E2E0D0A000000000C
:101B5000646D705F7365745F6669666F5F726174F0
:101B60006520636F6D706C657465202E2E2E2E2E91
:101B70002E0D0A006D70755F7365745F646D705F24
:101B8000737461746520636F6D706C657465202E6D
:101B90002E2E2E2E2E0D0A0010B50446242C0AD10E
:101BA0001B48007838B901201949087014211948D8
:101BB000FEF726FB10BD16480078012826D1232CFD
:101BC00007D10020124908701349087001201349F9
:101BD00008700F480078012818D1242C16D00E4820
:101BE00001780078401C0C4A10700A484454104692
:101BF000007814280ADD0020114608700449087096
:101C00000649087014210348FEF7FAFA00BFD1E72D
:101C1000900100207C06002091010020920100200C
:101C2000704701B500200AE0002001E0411CC8B265
:101C30000A28FBDB9DF80010491EC9B200919DF8EF
:101C400000100029F0D108BD2DE9F0412D480068B1
:101C5000002855D14FF480502B4908602B4800785C
:101C600000F048FA002002F001FA8046012002F05C
:101C7000FDF947423946404600F084FC244801689B
:101C800024480068FFF782FB04463946404603F0CB
:101C9000D5FD05462048006803F00EFB0646601996
:101CA00030441E4908606019801B1D4908601B48AC
:101CB000006801F0EFFC194908601948006801F05C
:101CC000E9FC17490860174A51421448006801F0BE
:101CD000EEFC12490860134A51421148006801F0B5
:101CE000E6FC0F490860104801680A48006803F0E4
:101CF000ABFA28B90A4801680848006802F0EEFB10
:101D0000BDE8F081300121421404014000000020B0
:101D100008000020040000200C000020100000201B
:101D200014000020D8F5FFFFE40000200021234923
:101D30008279002A3AD00A46126803689A430B4611
:101D40001A600A1D126803689A430B1D1A60027913
:101D500011440A6803681A430A60184A0832126874
:101D600003689A43154B08331A601A1D12680368FA
:101D70009A43124B0C331A604279102A0ED11A1F63
:101D8000126803681A430D4B08331A601A1D126853
:101D900003681A43094B0C331A600DE00749427976
:101DA00011440A6803681A430A6005E00279114485
:101DB0000A6803689A430A60704700000004014003
:101DC00000B587B00121022001F078FF0121042035
:101DD00001F094FFC020ADF8000004208DF803004E
:101DE00069461C4800F0A8F804A803F023FA002074
:101DF000ADF810004FF6FF70ADF814000020ADF8FC
:101E00001600ADF8120004A9134803F0C1F900232D
:101E10001A460321104802F097FF01A803F01CF8AE
:101E20000A20ADF80C0001A90B4802F0BFFF012108
:101E3000094802F073FE01221146074803F015F825
:101E40000021054803F075F90121034802F06CFEFA
:101E500007B000BD000801400004004000B587B095
:101E60000121042001F02AFF0121082001F046FF92
:101E7000C020ADF8000004208DF8030069461C481E
:101E800000F05AF804A803F0D5F90020ADF81000CE
:101E90004FF6FF70ADF814000020ADF81600ADF855
:101EA000120004A9134803F073F900231A46032112
:101EB000104802F049FF01A802F0CEFF0A20ADF859
:101EC0000C0001A90B4802F071FF0121094802F042
:101ED00025FE01221146074802F0C7FF00210548F0
:101EE00003F027F90121034802F01EFE07B000BDF0
:101EF000000C01400008004030B500228B071C0F89
:101F00000F2303FA04F20B4B8C1053F82430934345
:101F1000084C8D1044F8253023468C1053F824309B
:101F20008C07240F00FA04F42343024C8D1044F86C
:101F3000253030BD080001402DE9F0410246002562
:101F40000026002000230024002791F803C00CF095
:101F50000F0591F803C00CF0100CBCF1000F03D07A
:101F600091F802C04CEA050591F800C0BCF1000FE1
:101F700031D0146800202BE04FF0010C0CFA00F374
:101F8000B1F800C00CEA03069E4220D183004FF056
:101F90000F0C0CFA03F7BC4305FA03FC4CEA0404EB
:101FA00091F803C0BCF1280F06D14FF0010C0CFAD8
:101FB00000FCC2F814C00AE091F803C0BCF1480F5D
:101FC00005D14FF0010C0CFA00FCC2F810C0401C07
:101FD0000828D1D31460B1F800C0BCF1FF0F34DD84
:101FE000546800202EE000F1080C4FF0010808FAB8
:101FF0000CF3B1F800C00CEA03069E4221D1830025
:102000004FF00F0C0CFA03F7BC4305FA03FC4CEA43
:10201000040491F803C0BCF1280F05D100F1080CAD
:1020200008FA0CF8C2F8148091F803C0BCF1480F0C
:1020300007D100F1080C4FF0010808FA0CF8C2F8BB
:102040001080401C0828CED35460BDE8F081000009
:10205000F0B50A46002300240021002500F00046C8
:10206000B6F1004F02D11D4EF16901E01B4E7168BF
:10207000C0F3034583B200F44016B6F5401F08D103
:1020800021F07061154E766826F07066134F7E6001
:1020900012E000F48016B6F5801F06D1032606FA7A
:1020A00005F4A14341F0706106E0460D360103FAE4
:1020B00006F6B14341F0706122B1460D360103FAD4
:1020C00006F6314300F00046B6F1004F02D1034E50
:1020D000F16101E0014E7160F0BD000000000140BF
:1020E0000246002093680B400BB1012000E0002065
:1020F000704700002DE9F04F91B0804601F0D2FF0B
:10210000E2490860B8F1010F1BD101F081FEE048FF
:102110000068E0490860E049B1F90000FEF7F9FA0B
:10212000DE490860DC49B1F90400FEF7F2FADC4947
:102130000860DC49B1F90400FEF7EBFADA490860FF
:10214000A1E14421D02000F0A5FA83464321D0200C
:1021500000F0A0FA0BEB00200990FEF7DAFA064631
:102160004621D02000F096FA83464521D02000F089
:1021700091FA0BEB00200990FEF7CBFA0A90482168
:10218000D02000F087FA83464721D02000F082FA61
:102190000BEB00200990FEF7BCFA07463C21D0204B
:1021A00000F078FA83463B21D02000F073FA0BEB65
:1021B00000200990FEF7ADFA0D903E21D02000F0EE
:1021C00069FA83463D21D02000F064FA0BEB002031
:1021D0000990FEF79EFA82464021D02000F05AFA7C
:1021E00083463F21D02000F055FA0BEB00200990E8
:1021F000FEF78FFA05464FF08E413046FEF734FB6E
:1022000005D24FF08F413046FEF785F806464FF075
:102210008E410A98FEF728FB05D24FF08F410A98AD
:10222000FEF779F80A904FF08E413846FEF71CFB16
:1022300005D24FF08F413846FEF76DF807464FF054
:102240008E410D98FEF710FB05D24FF08F410D988F
:10225000FEF761F80D904FF08E415046FEF704FBFB
:1022600005D24FF08F415046FEF755F882464FF0A9
:102270008E412846FEF7F8FA05D24FF08F412846E6
:10228000FEF749F8054686F00040844908600D983D
:10229000FEF798FA854A864BCDE90601FEF7CAF9A2
:1022A000CDE90801FEF7BAFA10905046FEF78AFA17
:1022B0007E4A7F4BCDE90601FEF7BCF9CDE9080166
:1022C000FEF7ACFA0F902846FEF77CFA774A784B77
:1022D000CDE90601FEF7AEF9CDE90801FEF79EFA59
:1022E0000E903046FEF76EFA4FF06632714BCDE934
:1022F0000601FEF79FF9CDE90801FEF78FFA814646
:102300000A98FEF75FFA4FF066326A4BCDE9060194
:10231000FEF790F9CDE90801FEF780FA0446664819
:102320000078022837D189F0004002460390DDE9A9
:102330000E1000F0F3FB8346FEF744FA5F4A604B51
:10234000CDE90401FEF776F900225E4BCDE90601E6
:10235000FEF7FEF8CDE90801FEF760FA4C49086087
:1023600022460E99109800F035FD8346FEF72AFAB2
:10237000524A534BCDE90401FEF75CF90022514B60
:10238000CDE90601FEF7E4F8CDE90801FEF746FACB
:102390004D4908606FE04848007803286BD1284613
:1023A000FEF710FACDE902015046FEF70BFACDE92F
:1023B0000001DDE9022304F0BDFA0022414BCDE922
:1023C0000401FEF7C5F83D4A3D4BCDE90601FEF795
:1023D00031F9CDE90801FEF721FA0C902846FEF705
:1023E000F1F9CDE902010D98FEF7ECF9CDE9000114
:1023F000DDE9022304F09EFA0022324BCDE904010C
:10240000FEF7A6F82D4A2E4BCDE90601FEF712F98C
:10241000CDE90801FEF702FA0B903046FEF7D2F93B
:102420004FF06632294BCDE90601FEF703F9CDE9FD
:102430000801FEF7F3F9834659460C98FFF730FA86
:1024400080F00040124908600A98FEF7BBF94FF08F
:1024500066321E4BCDE90601FEF7ECF8CDE9080126
:10246000FEF7DCF9834659460B98FFF749FA80F0EE
:102470000040154908600648006806490860084899
:1024800007600948056011B0BDE8F08F1800002012
:1024900074000020040000206000002008000020DC
:1024A0000C000020660000201C0000208FC2F528D0
:1024B0005C1F9A40665E8D4000000020F1D4C85336
:1024C000FB210940008066407000002066663040B5
:1024D00010B500F045F8044603492046FDF721FFFA
:1024E0000446204610BD0000C3F5804010B5012011
:1024F000164908600F2004F0A7FC00201449C1F819
:1025000080011448007800F08000E8B1114800789C
:1025100000F03F0010490860084600880004086089
:10252000084600680D49098808440B4908600846B8
:102530000068AA2148434FF47A71B0FBF1F00649D4
:10254000086000200349088010BD0000800121427E
:1025500000002142DC000020D8000020DE00002026
:1025600070B50520FEF762FF05462846FEF7DAF84B
:1025700006460349FDF7D5FE0446204670BD00001F
:102580003333533A2DE9F04F87B083468A46584695
:10259000FEF7CDF80022344BCDE90001FDF7D8FF5E
:1025A0000022324BCDE90201FEF744F880460022BA
:1025B0002F4BFEF73FF8064600222E4BFEF73AF867
:1025C0000446FEF72BF905900598FEF7FBF82A4A1A
:1025D0002A4BCDE90201FDF7BBFF80460022284BC4
:1025E000FDF7B6FF06460022264BFEF723F8044609
:1025F000FEF714F9244908605046FEF798F80022C7
:10260000194BCDE90001FDF7A3FF06460022174B49
:10261000FEF710F804460022154BFEF70BF8804633
:102620000022144BFEF706F8CDE90201FEF7F6F89A
:1026300004900498FEF7C6F880460F4A0F4BFDF74A
:1026400087FF00220E4BCDE90201FDF781FF064610
:1026500000220C4BFDF7EEFF0446FEF7DFF80B49B6
:10266000086007B0BDE8F08F00006940000010402E
:1026700000003E4000002640F1D4C853FB21094031
:1026800000C0504000002440EC000020F00000207A
:1026900000BFFEE770B505460E46002400F0EAF8DC
:1026A000284600F0B5F8641C00F03CF9304600F014
:1026B000AFF8641C00F036F900F0DCF8691CC8B211
:1026C00000F0A6F8641C00F02DF9002000F068F876
:1026D000044600F003F9204670BD000010B500204C
:1026E0000E4908600E48006820F470600C490860CC
:1026F0000846006840F44070086000200949C1F8AD
:10270000A801012004F0A0FB01200449086004F0A6
:102710009BFB00200349C1F8AC0110BDAC812142F4
:10272000040C01400080214208B50121082001F07D
:10273000E5FA4FF44060ADF8000010208DF803007A
:1027400003208DF8020069460148FFF7F5FB08BD3C
:10275000000C014010B500200E4908600E480068CA
:1027600020F470600C4908600846006840F440702E
:10277000086001200949C1F8A80104F065FB0120A7
:102780000449086004F060FB00200449C1F8AC0172
:1027900010BD0000AC812142040C014000802142A8
:1027A00070B5054600241748006820F4706015498C
:1027B00008600846006840F400600860002616E0E3
:1027C000002011490860022004F03EFB01200F495F
:1027D000C1F8AC016006040E0B488438006808B1EB
:1027E000601CC4B2022004F02FFB701CC6B2082E7D
:1027F000E6DB15B1FFF772FF01E0FFF7ABFF204604
:1028000070BD0000040C0140AC81214200802142D7
:1028100070B504461448006820F4706012490860DE
:102820000846006840F44070086000200F490860C6
:10283000002516E0E0090D49091F08606006040E36
:10284000012004F001FB01200949C1F8AC0104F0AA
:10285000FBFA002005490860012004F0F5FA681C25
:10286000C5B2082DE6DB70BD040C0140AC812142ED
:102870000080214210B51648006820F470601449A9
:1028800008600846006840F4407008600120114963
:1028900008601148D0F8280108B9002010BD0120B7
:1028A0000C49091D086004F0CFFA00200A49C1F85C
:1028B000A80108488038006808B10020EEE7012030
:1028C00004F0C2FA00200349091D08600120E5E771
:1028D000040C0140A88121420080214210B50E481D
:1028E000006820F470600C4908600846006840F4F5
:1028F000407008600020094908600949C1F8A80132
:10290000012004F0A1FA0120044908600449C1F83B
:10291000A80104F099FA10BD040C0140AC812142D9
:102920000080214210B500241548006820F4706032
:10293000134908600846006840F400600860012000
:102940001049086004F080FA01200F49C1F8AC0179
:1029500004F07AFA0AE0601CC4B2322C03DDFFF7FF
:10296000BDFF002010BD012004F06EFA054880383C
:1029700000680028EFD10349091D08600120F1E734
:10298000040C0140A88121420080214270B5054617
:102990000E46144631462846FFF77CFE2070012083
:1029A00070BDF8B506460F4614461D466A463946C0
:1029B0003046FFF7EBFF2DB10120A0409DF800103D
:1029C000084305E00120A0409DF8001021EA000026
:1029D000C0B200909DF800203946304600F036F82D
:1029E000F8BD2DE9F8430746884614461D46089E63
:1029F0006A4641463846FFF7C9FF28B3601CFF21ED
:102A000001FA00F0C4F108012944491EFF220A41DD
:102A1000104300F0FF09C5F1080006FA00F0C6B245
:102A2000C4F1070006419DF8000000EA090000908B
:102A30009DF80000304300909DF800204146384644
:102A400000F004F8BDE8F8830020FBE737B5044642
:102A50000D4602AB01222946204600F001F83EBD9A
:102A60002DE9F04180460D4616461F460024FFF72B
:102A700001FF4046FFF7CCFEFFF754FF2846FFF763
:102A8000C7FEFFF74FFF00BF06E0385DFFF7C0FE4F
:102A9000FFF748FF601CC4B2B442F6DBFFF71EFF2D
:102AA0000120BDE8F081000009480068094908607C
:102AB000094800684860094800688860084800685C
:102AC000C8600848006808610748006848617047A6
:102AD000F400002064060020F8000020FC00002024
:102AE00000010020040100200801002001464906E1
:102AF000084A926942F00102064B9A61064A5268FE
:102B000022F0E062044B5A601A4652680A435A6047
:102B10007047000000100240000001402DE9F04F16
:102B2000ADB0044689469246A3482B90A349D1E90B
:102B30000023D1E90201CDE92723CDE92901CDF810
:102B400098A09E4B1033D3E90021D3E90203CDE9CD
:102B50002403CDE922219949203103C9CDE920017F
:102B60009649283103C9CDE91E01944B30330FCB70
:102B70001AAD0FC591484030006819908F4B44330F
:102B8000D3E90020D3E9021316AD0BC515928B498A
:102B9000543103C9CDE913010020119012900F9018
:102BA00010900B900C900D900E900790089009904B
:102BB0000A900590069004904846FDF703FE0746EC
:102BC000884684F000400190FDF7FCFD3A464346FC
:102BD000CDE9020103F0AEFE0546FDF71FFE834678
:102BE00011A8774922AA0123CDE9002102900222EF
:102BF0001146104606F0B8FB0FA826A920AA01230B
:102C0000CDE9002102901A461946022006F0ACFBDD
:102C10000F991198FDF72DFB6A49086010991298D9
:102C2000FDF727FB674948600BA8674922AA0223E2
:102C3000CDE9002102901A461946184606F094FB89
:102C400007A815A90BAA0223CDE9002102901A4674
:102C50001946184606F088FB1A990798FDF709FBF4
:102C60005A4908601B990898FDF703FB57494860CB
:102C70001C990998FDF7FDFA544988601D990A9836
:102C8000FDF7F7FA5149C86005A81EAA0223CDE94D
:102C9000002102901A461946012006F065FB04A89F
:102CA00013A905AA0123CDE90021029002221146B1
:102CB000184606F059FB19990498FDF7DAFA05460B
:102CC00029464FF07E50FDF75EFB049011A813A932
:102CD0003E4A0123CDE9002102900222114610460E
:102CE00006F042FB3A4804A911AA0123CDE90021CC
:102CF00002901A461946022006F036FB04A8314914
:102D00001EAA0123CDE90021029002221146184695
:102D100006F02AFB58460499FDF7FDFA049011A825
:102D200004A92B4A0123CDE9002102901A46194635
:102D3000022006F019FB234A11991068FDF799FA51
:102D40001F4908601F4A12995068FDF792FA1C4902
:102D500048600BA81EA91E4A0223CDE9002102905B
:102D600001221146184606F0FFFA0B992798FDF745
:102D7000D2FA0B900C992898FDF7CDFA0C900D998A
:102D80002998FDF7C8FA0D9027AA0E99D068FDF78B
:102D9000C2FA0E900C480D490BAA0223CDE900217E
:102DA00002901A461946184606F0DEFA04480068F2
:102DB0002DB0BDE8F08F00000AD7A33B74CB00080C
:102DC000440200204C02002054020020A0060020F3
:102DD000640200202DE9F04FADB0044689469246CA
:102DE000A3482B90A349D1E90023D1E90201CDE901
:102DF0002723CDE92901CDF898A09E4B1033D3E9C4
:102E00000021D3E90203CDE92403CDE92221994928
:102E1000203103C9CDE920019649283103C9CDE904
:102E20001E01944B30330FCB1AAD0FC59148403083
:102E3000006819908F4B4433D3E90020D3E9021383
:102E400016AD0BC515928B49543103C9CDE9130159
:102E50000020119012900F9010900B900C900D90FC
:102E60000E900790089009900A90059006900490A3
:102E70004846FDF7A7FC0746884684F000400190CD
:102E8000FDF7A0FC3A464346CDE9020103F052FDAE
:102E90000546FDF7C3FC834611A8774922AA012302
:102EA000CDE90021029002221146104606F05CFA9C
:102EB0000FA826A920AA0123CDE9002102901A46D5
:102EC0001946022006F050FA0F991198FDF7D1F932
:102ED0006A49086010991298FDF7CBF96749486074
:102EE0000BA8674922AA0223CDE9002102901A46C5
:102EF0001946184606F038FA07A815A90BAA0223A6
:102F0000CDE9002102901A461946184606F02CFA1F
:102F10001A990798FDF7ADF95A4908601B99089866
:102F2000FDF7A7F9574948601C990998FDF7A1F9E1
:102F3000544988601D990A98FDF79BF95149C8606A
:102F400005A81EAA0223CDE9002102901A461946BF
:102F5000012006F009FA04A813A905AA0123CDE966
:102F60000021029002221146184606F0FDF9199937
:102F70000498FDF77EF9054629464FF07E50FDF78F
:102F800002FA049011A813A93E4A0123CDE90021B9
:102F9000029002221146104606F0E6F93A4804A9CA
:102FA00011AA0123CDE9002102901A4619460220F8
:102FB00006F0DAF904A831491EAA0123CDE900215F
:102FC000029002221146184606F0CEF9584604999E
:102FD000FDF7A1F9049011A804A92B4A0123CDE91A
:102FE000002102901A461946022006F0BDF9234A34
:102FF00011991068FDF73DF91F4908601F4A1299A1
:103000005068FDF736F91C4948600BA81EA91E4AF6
:103010000223CDE90021029001221146184606F054
:10302000A3F90B992798FDF776F90B900C9928983E
:10303000FDF771F90C900D992998FDF76CF90D9039
:1030400027AA0E99D068FDF766F90E900C480D4935
:103050000BAA0223CDE9002102901A461946184610
:1030600006F082F9044800682DB0BDE8F08F00003A
:103070000AD7A33BD0CB00086C02002074020020CA
:103080007C020020B00600208C02002008B501213F
:10309000042000F033FE4FF48070ADF800004820AB
:1030A0008DF8030069460248FEF746FF08BD0000A0
:1030B0000008014010B5044600F022F801280BD1A9
:1030C000601C0D490988B1EB400F0ADA0A480088F4
:1030D000401C0949088004E000200749088007498E
:1030E000088005480088022803D101200349088090
:1030F00010BD0020FCE70000D4000020D20000201A
:1031000010B54FF480710448FEF7EAFF08B90120BA
:1031100010BD0020FCE70000000801401FB50121A0
:10312000084600F0EBFD0121042000F0E7FD4FF41C
:103130008050ADF80C0048208DF80F0003A912480C
:10314000FEF7FAFE0C210020FEF7D6FE4FF4805069
:10315000019000208DF808000C208DF80900012056
:103160008DF80A0001A8FEF7E1FD28208DF8000087
:1031700002208DF8010001208DF802008DF8030077
:10318000684600F053F81FBD0008014010B502204A
:1031900000F010F8032000F021F8002000F014F8EF
:1031A000002000F037F8002000F02BF8002000F09D
:1031B0001FF810BD38B50446032302226B21D0202E
:1031C0000094FFF70EFC38BD38B5044602230422F4
:1031D0001C21D0200094FFF704FC38BD38B504460C
:1031E000022304221B21D0200094FFF7FAFB38BDF4
:1031F00010B50446234601223721D020FFF7D1FB2A
:1032000010BD10B50446234605226A21D020FFF7E1
:10321000C8FB10BD10B50446234606226B21D02002
:10322000FFF7BFFB10BD00BFFEE7704770B5002180
:1032300000230F22C47804B3154C246804F4E0641E
:10324000C4F5E064210AC1F10403CA40447804FAD9
:1032500003F184781440214309010E4C0678A155EE
:10326000047804F01F050124AC4005786D11AD0011
:1032700005F1E025C5F8004109E0047804F01F05D8
:103280000124AC40044D0678761145F8264070BD07
:103290000CED00E000E400E080E100E010B500206B
:1032A00000F0E2FF10BDF8B507460C4615461E4675
:1032B000002C0CDD032C0ADC601E00EB80004006B5
:1032C000020E2B4600213846009600F001F8F8BDAA
:1032D0002DE9F04107460C4615461E46DDF81880DC
:1032E0000EB1FFF7DBFF2946204600F0CDFF01229B
:1032F0000549384601F022F8B8F1000F01D000F07E
:1033000095F9BDE8F0810000A800002010B500F09C
:1033100013F800F0E9F801231A46194601A0FFF757
:10332000C2FF10BD6F6C656420696E69742073758F
:1033300063636573732100000848806940F00800EA
:10334000064988610648006820F0FF0004490860CB
:103350000846006840F033000860704700100240E3
:10336000040C014070B504461448006820F0F000D9
:10337000124908600846006840F0300008600020EC
:103380000F490860002516E0E0090D49091D086095
:103390006006040E0120FEF744FC01200949C1F833
:1033A000A001FEF73EFC0020054908600120FEF761
:1033B00038FC681CC5B2082DE6DB70BD040C01406A
:1033C000A08121420080214210B51648006820F0FB
:1033D000F000144908600846006840F030000860BA
:1033E0000120114908601148D0F8240108B90020D3
:1033F00010BD01200C49091F0860FEF712FC0020D7
:103400000A49C1F8A40108488038006808B10020C2
:10341000EEE70220FEF705FC00200349091F0860C3
:103420000120E5E7040C0140A481214200802142F3
:1034300010B51048006820F0F0000E4908600846FA
:10344000006840F03000086000200B4908600B491C
:10345000C1F8A4010220FEF7E4FB01200649086040
:10346000FEF7DFFB01200549C1F8A4010220FEF7A9
:10347000D8FB10BD040C0140A081214200802142F4
:1034800010B500241548006820F0F00013490860CA
:103490000846006840F0800008600120104908607C
:1034A000FEF7BFFB01200F49C1F8A001FEF7B9FBF1
:1034B0000AE0601CC4B2322C03DDFFF7B9FF002024
:1034C00010BD0120FEF7ADFB0548803800680028DC
:1034D000EFD10349091F08600120F1E7040C014006
:1034E000A48121420080214210B540F6C41400E0BE
:1034F000641E002CFCD1AE2200213C2006F082F894
:10350000A62200213C2006F07DF8AE2200213C20BE
:1035100006F078F8D52200213C2006F073F88022CE
:1035200000213C2006F06EF8A82200213C2006F085
:1035300069F81F2200213C2006F064F8D322002104
:103540003C2006F05FF8002211463C2006F05AF8B5
:10355000402200213C2006F055F88D2200213C201D
:1035600006F050F8142200213C2006F04BF82022EF
:1035700000213C2006F046F8022200213C2006F003
:1035800041F8A12200213C2006F03CF8C82200218D
:103590003C2006F037F8DA2200213C2006F032F811
:1035A000022200213C2006F02DF8812200213C203F
:1035B00006F028F8CF2200213C2006F023F8D9227B
:1035C00000213C2006F01EF8F12200213C2006F0EC
:1035D00019F8DB2200213C2006F014F840220021DB
:1035E0003C2006F00FF82E2200213C2006F00AF8BD
:1035F000A42200213C2006F005F8A62200213C2050
:1036000006F000F8AF2200213C2005F0FBFF00206F
:1036100000F02AFE00F0A8FE002003490880488040
:103620000120487110BD0000A000002010B500F07E
:103630009BFE10BD2DE9F04105460E461746984603
:10364000FFF7C2FE10B90120BDE8F0816906080E3F
:10365000FFF788FEFFF714FF18B9FFF7E9FE012016
:10366000F2E73046FFF77EFEFFF70AFF00240BE08B
:1036700018F80400FFF776FEFFF702FF18B9FFF70E
:10368000D7FE0020E0E7641CBC42F1DBFFF7D0FE70
:103690000020D9E70146002902DD01F214507047ED
:1036A000002902DAA1F21450F9E70846F7E70346C9
:1036B0001846884200DD0846904200DA10467047FE
:1036C000704700002DE9F0438BB0D3484078303884
:1036D000052818D2DFE800F01303070B0F000120C4
:1036E000CE49087013E00220CC4908700FE0032097
:1036F000CA4908700BE00420C849087007E00020A0
:10370000C649087003E00020C449087000BF00BF2C
:10371000C148C078312802D10520C0490870BE4890
:10372000C078322802D10620BC490870BA48FCF79C
:103730007EFD15280CD20020B94908705021B648EA
:10374000FCF75EFDB7A001F049FE0BB0BDE8F083C9
:10375000B1484079312807D100F0A2F9052003F0E3
:103760004BFB00F09DF90AE0AB484079322806D1C6
:1037700000F0D8FC00F094F9AFA001F02FFEA648AD
:10378000C079312806D10120AD490860AAA001F016
:1037900025FE09E0A048C079322805D10020A849BB
:1037A0000860A5A001F01AFE9B48407A312860D13C
:1037B0001C2104A8FCF724FD002002900390009037
:1037C0000190A0A1944800F0C7FE814609F10100D4
:1037D00000B9BAE79C480068A0EB09028E4800EBEC
:1037E000090104A8FCF7F3FC98A104A800F0B4FEBA
:1037F0000446601C00B9A8E7A21E0DF1120102A840
:10380000FCF7E5FC02A803F063F907460022904BA1
:10381000FCF79EFE0546FDF701F88E4908601C2165
:1038200004A8FCF7EDFC09EB0400874B1B681A1A8F
:10383000794848442044411C04A8FCF7C8FC83A1F3
:1038400004A800F089FE0446601C00B97DE7A21EB2
:103850000DF112016846FCF7BAFC684603F038F92E
:103860000546FCF7DBFF7C49086073A001F0B6FD5C
:1038700000BF6948C07A312860D11C2104A8FCF738
:10388000BFFC0020029003900090019073A1624859
:1038900000F062FE814609F1010000B955E76A486F
:1038A0000068A0EB09025C4800EB090104A8FCF7E2
:1038B0008EFC66A104A800F04FFE0446601C00B90F
:1038C00043E7A21E0DF1120102A8FCF780FC02A83A
:1038D00003F0FEF8074600225D4BFCF739FE054673
:1038E000FCF79CFF5E4908601C2104A8FCF788FCDB
:1038F00009EB0400544B1B681A1A474848442044FB
:10390000411C04A8FCF763FC50A104A800F024FEAD
:103910000446601C00B918E7A21E0DF112016846AA
:10392000FCF755FC684603F0D3F80546FCF776FF34
:103930004C49086040A001F051FD00BF3648407B73
:10394000312860D11C2104A8FCF75AFC0020029009
:1039500003900090019044A12F4800F0FDFD8146A6
:1039600009F1010000B9F0E637480068A0EB090250
:10397000294800EB090104A8FCF729FC33A104A89D
:1039800000F0EAFD0446601C00B9DEE6A21E0DF15F
:10399000120102A8FCF71BFC02A803F099F80746E5
:1039A00000222B4BFCF7D4FD0546FCF737FF2F49CF
:1039B00008601C2104A8FCF723FC09EB0400224B3F
:1039C0001B681A1A144848442044411C04A8FCF7F8
:1039D000FEFB27A104A800F0BFFD0446601C00B94F
:1039E000B3E6A21E0DF112016846FCF7F0FB684633
:1039F00003F06EF80546FCF711FF1E4908600EA0A3
:103A000001F0ECFC00BF002005490870502102487D
:103A1000FCF7F6FB00BF98E6D80500205001002017
:103A20004001002024526563656976655061636BCF
:103A30004572726F72230000244F4B230000000078
:103A40003C010020415000004C0100202C000000EF
:103A500000005940F4000020F800002056500000FB
:103A6000FC00002000010020545000000401002050
:103A7000230000000801002010B506480268521C0F
:103A800005490648FCF7A3FB50210348FCF7B8FBA7
:103A900010BD00004401002088050020D80500204A
:103AA00070B532216548FCF7ABFB644864A1096836
:103AB0000160002163480068FCF7D6FE0FD8624918
:103AC00060480068FCF75FFC0646FCF77BFE044696
:103AD00022460B465DA15F4801F092FF03E05EA025
:103AE00001F07CFC70BD00215F480068FCF7BCFE63
:103AF0000BD85D480068FCF765FE044622460B467D
:103B000052A15A4801F07CFF03E053A001F066FC8B
:103B1000E8E7002156480068FCF7A6FE0FD84A499E
:103B200053480068FCF72FFC0646FCF74BFE0446A2
:103B300022460B4645A14F4801F062FF03E046A034
:103B400001F04CFCCEE700214B480068FCF78CFEEE
:103B50000BD849480068FCF735FE044622460B4660
:103B60003AA1464801F04CFF03E03BA001F036FCCF
:103B7000B8E7002142480068FCF776FE0FD83249CA
:103B80003F480068FCF7FFFB0646FCF71BFE0446B7
:103B900022460B462DA13B4801F032FF03E02EA048
:103BA00001F01CFC9EE7002137480068FCF75CFE32
:103BB0000BD835480068FCF705FE044622460B4644
:103BC00022A1324801F01CFF03E023A001F006FC13
:103BD00088E720491948FCF71EFB2DA11748FCF780
:103BE0001AFB22491548FCF716FB2AA11348FCF7DB
:103BF00012FB20491148FCF70EFB27A10F48FCF7E8
:103C00000AFB1E490D48FCF706FB24A10B48FCF7F4
:103C100002FB1C490948FCF7FEFA21A10748FCF702
:103C2000FAFA1A490548FCF7F6FA0EA10348FCF720
:103C3000F2FA024801F0D2FB00BF53E75101002025
:103C400024415000F40000200000C84225332E32E9
:103C5000660000002806002024476574504944454A
:103C600072726F7223000000F800002032060020FC
:103C7000FC0000203C060020000100204606002039
:103C80000401002050060020080100205A060020F0
:103C90002C4144002C5650002C5649002C54500006
:103CA0002C54440001460020034A506820F4404050
:103CB00008435060704700000010024029B1064AD6
:103CC000D2690243044BDA6104E0034AD2698243B9
:103CD000014BDA61704700000010024029B1064A2A
:103CE00012690243044B1A6104E0034A12698243D9
:103CF000014B1A61704700000010024029B1064ACA
:103D000092690243044B9A6104E0034A9269824338
:103D1000014B9A61704700000010024029B1064A29
:103D2000D2680243044BDA6004E0034AD26882435B
:103D3000014BDA60704700000010024030B50021EE
:103D40000022002400232D4D6D6805F00C0121B1E7
:103D5000042905D0082923D105E0294D056022E07A
:103D6000274D05601FE0254D6D6805F47012234D49
:103D70006D6805F48034022505EB92421CB9214D93
:103D8000554305600BE01D4D6D6805F400351DB110
:103D90001C4D5543056002E0194D5543056002E096
:103DA000174D056000BF00BF144D6D6805F0F001B0
:103DB0000909154D6B5C0568DD4045600F4D6D6868
:103DC00005F4E061090A104D6B5C4568DD408560D3
:103DD0000A4D6D6805F46051C90A0B4D6B5C45686E
:103DE000DD40C560054D6D6805F44041890B074D08
:103DF0006B5CC568B5FBF3F5056130BD0010024092
:103E000000127A0000093D00480000205800002000
:103E10002DE9F04F8FB00CA889490DAB08AACDE968
:103E200000108849884803F0AFF98548008800F4FD
:103E3000807000287ED00898FCF76BFC04464FF099
:103E40009D41FCF7A0FA814908600998FCF761FCE4
:103E500004464FF09D41FCF796FA7D4908600A98A8
:103E6000FCF757FC04464FF09D41FCF78CFA79496A
:103E700008600B98FCF74DFC04464FF09D41FCF7A1
:103E800082FA75490860714801684FF08040FCF77C
:103E900048FA06906F4801680698FCF742FA824695
:103EA0006B4801684FF04040FCF73BFA06906A48C7
:103EB00001680698FCF735FA83465146FCF7D9F9B4
:103EC0000790FCF77FFC804602F0ECFA06464FF0C4
:103ED0006632624BFCF73CFB0446FCF79FFC6049F2
:103EE00008605C4801684FF08040FCF71AFA0390C4
:103EF000584801680398FCF714FA82465448016850
:103F00004FF04040FCF70DFA0390514801680398C8
:103F1000FCF707FA83465146FCF7FDF981464FF05E
:103F20007E51FCF7A6F90446FCF74CFCCDE90401F0
:103F3000464800E081E001684FF08040FCF7F1F96D
:103F40008346434801685846FCF7EBF981464148EF
:103F500001684FF08040FCF7E4F983463E48016871
:103F60005846FCF7DEF982464946FCF782F90446DA
:103F7000FCF728FC0746DDE9042302F0DBFC4FF0E8
:103F80006632364BCDE90601FCF7E2FA0546FCF74E
:103F900045FC34490860304801680068FCF7C1F905
:103FA00003902C4801680068FCF7BBF90290284890
:103FB00001680068FCF7B5F9834624480168006889
:103FC000FCF7AFF959460190FCF753F98246029984
:103FD000FCF7A1F981460399FCF79DF90446FCF72B
:103FE000F1FBCDE904011C48016818480068FCF7A2
:103FF00098F982461748016815480068FCF791F95E
:1040000083465146FCF735F981464FF08041FCF775
:1040100088F90446FCF7D6FB0746DDE9042302F0E5
:1040200089FC4FF066320D4BCDE90601FCF790FAA2
:104030000546FCF7F3FB0C4908600FB0BDE8F08FB4
:104040006C00002066000020600000207C00002042
:1040500080000020840000208800002066A64C40DC
:10406000700000207400002078000020014611B18B
:1040700001290ED106E0094A128810B20022074B2E
:104080001A8008E0064A128810B20022044B1A80F7
:1040900001E0002000BF00BF704700002404004082
:1040A000240800402DE9F05F4221D020FEF7F2FA0B
:1040B00005464121D020FEF7EDFA05EB002420460D
:1040C000FCF727FB82464FF08E415046FCF7CCFBB5
:1040D00005D24FF08F415046FCF71DF982460D493D
:1040E0005046FCF750F98346FCF76CFB80460A4AC1
:1040F0000A4BFCF786F906460022094BFCF728FA22
:104100000446FCF78BFB82465046FCF72EFBBDE8CD
:10411000F09F00000000AA43A4703D0AD74342402C
:104120000000244010B52148016821480068FCF7D0
:1041300091FB03D01D4800681D4908601B48416879
:104140001C480068FCF786FB03D0184840681949F2
:1041500008601648816818480068FCF77BFB03D0AC
:1041600012488068144908601048C1681348006804
:10417000FCF770FB03D00D48C068104908600B487D
:1041800001690F480068FCF765FB03D00748006928
:104190000B490860054841690A480068FCF75AFB6A
:1041A00003D0024840690749086010BD640600203A
:1041B000F4000020F8000020FC0000200001002096
:1041C0000401002008010020F0B503461446802BAE
:1041D00001DA202900DBF0BD2148007920B10CB9BB
:1041E000012000E000200446012C1CD1CD1701EB7A
:1041F0005575ED1003EBC5151A4E755D0A46CE17C1
:1042000001EB5676F610A1EBC6070126BE403543FA
:10421000EEB20846CD1701EB5575ED1003EBC51551
:10422000104F7E551AE0CD1701EB5575ED1003EBDD
:10423000C5150C4E755D0A46CE1701EB5676F61085
:10424000A1EBC6070126BE40B5430846CE1701EBD9
:104250005676F61003EBC616024FBD5500BFBAE7FF
:10426000A0000020AC02002010B504460CB90020CC
:1042700000E0FF2002464FF400710248FBF7B9FF4F
:1042800010BD0000AC020020014A10805180704730
:10429000A00000202DE9F04307460C469046264832
:1042A000008821780844802805DA2348408861780E
:1042B0000844202802DB0020BDE8F083002530E020
:1042C000A7F12000617800FB0150616831F810907F
:1042D000002622E009FA06F000F4004058B1164A20
:1042E00052882A4491B2144A1288324490B242460B
:1042F000FFF76AFF10E0B8F1000F01D1012300E0E1
:1043000000231A460C4B5B882B4499B20A4B1B883E
:10431000334498B2FFF758FF761C2078B042D9D8C2
:104320006D1C6078A842CBD80348008821780844E7
:10433000014908803846BFE7A000002070B5044658
:104340000D4616460AE0207832462946FFF7A2FFBE
:104350002178884201D0207870BD641C2078002824
:10436000F1D12078F8E7000010B500241BE004F13B
:10437000B000C2B200213C2005F044F900221146F1
:104380003C2005F03FF9102200213C2005F03AF9CD
:104390000648802101FB04020B4640213C2005F029
:1043A0003BF9601CC4B2082CE1DB10BDAC0200205C
:1043B0007047000010B50C480068401E0A490860AC
:1043C0000A480068012807D10846006820B9FDF7AF
:1043D00095F8074801F002F80348006810B9012079
:1043E0000149086010BD00008C0100203C01002044
:1043F000FC04002010B500F001F810BD0CB5002041
:10440000019000903348006840F4803031490860E2
:1044100000BF3048006800F4003000900198401C54
:104420000190009818B90198B0F5A06FF1D1294812
:10443000006800F4003010B10120009001E000207D
:1044400000900098012843D12348006840F01000F4
:10445000214908600846006820F00300086008460B
:10446000006840F0020008601A4840681949486036
:104470000846406848600846406840F480604860EC
:104480000846406820F47C1048600846406840F4C4
:10449000E81048600846006840F08070086000BF7F
:1044A0000C48006800F000700028F9D00948406806
:1044B00020F00300074948600846406840F00200C9
:1044C000486000BF0348406800F00C000828F9D19C
:1044D0000CBD0000001002400020024070B50546EF
:1044E0000C4625B900201B490880091D08802CB9FD
:1044F0000020184908310880091D0880002D09DDB9
:10450000284604F096FF1349091D08800020091F62
:10451000088008E000200F49091D0880284604F0A3
:1045200088FF0C490880002C09DD204604F081FF3B
:104530000849083108800020091D088009E0002092
:10454000044908310880204604F073FF01490C310A
:10455000088070BD3434014030B503460C4600215C
:104560001AE0585C2578A84200D014E0002206E04A
:10457000521CA05C8D185D5DA84200D005E0A05CD7
:1045800018B18818185C0028F2D100BFA05C08B9E7
:10459000084630BD00BF491C585C0028E1D1401ED0
:1045A000F7E7042808D14FF0E021096941F0040140
:1045B0004FF0E022116107E04FF0E021096921F09E
:1045C00004014FF0E02211617047704710B51348A5
:1045D000006840F001001149086008464068104931
:1045E00008400E494860084600680E4908400B49DB
:1045F00008600846006820F480200860084640688B
:1046000020F4FE0048604FF41F008860FFF7F2FEC0
:104610004FF000600449086010BD00000010024027
:104620000000FFF8FFFFF6FE08ED00E0F0B50C46D5
:10463000154600220021068C4FF6FE773E40068488
:10464000028B018C4FF60C7632407E1C06EA031674
:104650002E433243104EB0420ED0104EB0420BD01B
:10466000B0F1804F08D00E4EB04205D00D4EB04292
:1046700002D00D4EB04206D14FF6FD76314044F0E7
:104680000106314305E04FF6F576314044F001066E
:10469000314302830184F0BD002C0140003401400D
:1046A0000004004000080040000C0040F0B50C463B
:1046B0001546002200210026078C4FF6EF7C07EA02
:1046C0000C070784028B018C4FF6FF7707EA04166C
:1046D00040F6FF473A404FF6FF7707EA03373A4381
:1046E0004FF6FF7707EA05273A43114FB8420ED03D
:1046F000104FB8420BD0B0F1804F08D00E4FB842E7
:1047000005D00E4FB84202D00D4FB84206D14FF639
:10471000DF77394046F01007394305E04FF65F7701
:10472000394044F01007394302830184F0BD000092
:10473000002C01400034014000040040000800400B
:10474000000C0040F0B50C46154600220021002662
:10475000078C4FF6FF6C07EA0C070784828B018CED
:104760004FF6FF7707EA04264FF60C773A404FF6EC
:10477000FF7707EA03172F433A43114FB8420ED091
:10478000104FB8420BD0B0F1804F08D00E4FB84256
:1047900005D00E4FB84202D00D4FB84206D14FF6A9
:1047A000FF57394046F48077394305E04FF2FF5711
:1047B000394044F48077394382830184F0BD00009E
:1047C000002C01400034014000040040000800407B
:1047D000000C0040F0B50C461546002200210026D2
:1047E000078C4EF6FF7C07EA0C070784828B018C4E
:1047F0004FF6FF7707EA043640F6FF473A404FF698
:10480000FF7707EA05273A434FF6FF7707EA0337B2
:104810003A43114FB8420ED0104FB8420BD0B0F10E
:10482000804F08D00E4FB84205D00E4FB84202D08C
:104830000D4FB84206D14DF6FF77394046F4805708
:10484000394305E047F6FF57394044F48057394370
:1048500082830184F0BD0000002C0140003401403F
:104860000004004000080040000C004030B587B054
:1048700005460C4604F02EFF01210846FFF71EFAFC
:10488000ADF80850ADF804400020ADF80A00ADF8CE
:10489000060001A94FF0804000F07AFC0420ADF83A
:1048A00010000020ADF812000120ADF81400002027
:1048B000ADF81600ADF8180004A94FF0804000F0E4
:1048C00075FA1C208DF8000001208DF801008DF88C
:1048D00002008DF803006846FEF7A8FC01220521BE
:1048E000880700F0C2FA0121880700F01DF907B01F
:1048F00030BD00004FF08041088A2C49097801F052
:10490000800100294DD100F00101D1B1274909787A
:1049100001F04001A9B12549097801F03F013F2983
:104920000AD12249098841F08001204A11804FF6BE
:10493000FF711F4A118004E01C490988491C1B4A69
:10494000118000F0040161B31849097801F04001B9
:1049500099B11649098841F08001144A11804FF03D
:104960008041098F124A11804FF08041098C21F05B
:1049700020014FF08042118413E000210B4A118086
:104980000B4A11800949098841F04001074A11800A
:1049900000214FF0804291841146098C41F02001A2
:1049A000118400214FF0804211827047DC0000200A
:1049B000DE000020044800880348008820F0010041
:1049C0000149088070470000100400400448008836
:1049D0000348008820F0010001490880704700006A
:1049E0001008004010B50121254800F0CEF900283C
:1049F00045D00121224800F094F822480088401C4C
:104A00002049088020480078401C1F4908701F4832
:104A10000088002804DD1D480088401E1B490880CE
:104A2000FDF764FD01201A49087017480078022834
:104A300023DD002014490870FDF74AFD044615489F
:104A400001682046FBF715FC1249086012480078FF
:104A5000401C114908700846007832280DD10F49D2
:104A60000C480068FBF78FFC0D49086000200949DD
:104A700008600949087004F0E5FC02F0D5F810BDA3
:104A800000100040CC000020C5000020C60000201F
:104A9000CF000020C0000020C400002000004842D9
:104AA000E40000201FB501211020FFF707F941F6AF
:104AB0001F40ADF804006320ADF8080001A91048BC
:104AC00000F066FB01210E4800F028F80122114693
:104AD0000B4800F0CAF936208DF8000004208DF84C
:104AE000010002208DF8020001208DF803006846C5
:104AF000FEF79CFB0121024800F016F81FBD0000E4
:104B00000010004021B1028842F08002028004E0DF
:104B100002884FF67F731A4002807047CA430282B0
:104B20007047CA430282704721B1028842F00102F5
:104B3000028004E002884FF6FE731A40028070473C
:104B400031B1B0F8442042F40042A0F8442005E01E
:104B5000B0F84420C2F30E02A0F8442070470000D1
:104B600010B504466848844208D10121C014FFF7FB
:104B7000D5F80021E014FFF7D1F8C4E0B4F1804F7C
:104B800008D101210846FFF7A9F800210120FFF70D
:104B9000A5F8B8E05D48844208D101210220FFF762
:104BA0009DF800210220FFF799F8ACE058488442B4
:104BB00008D101210420FFF791F800210420FFF71C
:104BC0008DF8A0E05348844208D101210820FFF766
:104BD00085F800210820FFF781F894E04E488442D0
:104BE00008D101211020FFF779F800211020FFF7EC
:104BF00075F888E04948844208D101212020FFF758
:104C00006DF800212020FFF769F87CE044488442D9
:104C100008D101214014FFF781F800216014FFF74B
:104C20007DF870E03F48844209D10121C804FFF7B4
:104C300075F800214FF40020FFF770F863E03A4860
:104C4000844209D101210805FFF768F800214FF4DB
:104C50008010FFF763F856E03448844209D10121FF
:104C60004805FFF75BF800214FF40010FFF756F8F6
:104C700049E02F48844208D101214020FFF72EF857
:104C800000214020FFF72AF83DE02A48844208D15D
:104C900001218020FFF722F800218020FFF71EF875
:104CA00031E02548844208D101218015FFF716F82C
:104CB0000021A015FFF712F825E02048844209D111
:104CC00001210804FFF72AF800214FF48030FFF794
:104CD00025F818E01A48844209D101214804FFF759
:104CE0001DF800214FF40030FFF718F80BE01548CD
:104CF000844208D101218804FFF710F800214FF405
:104D00008020FFF70BF810BD002C0140000400408C
:104D100000080040000C004000100040001400405B
:104D200000340140004C014000500140005401405B
:104D300000180040001C00400020004000400140DE
:104D40000044014000480140F0B50C4615461E469F
:104D50000021002200230189028B038C4FF6F87793
:104D6000394021434FF6FC473A4040F201173A439D
:104D70004FF6DD773B404FF6FF7707EA06172F43E4
:104D80003B43018102830384F0BD30B5024600201D
:104D900000230024158A05EA0103958905EA010428
:104DA00013B10CB1012000E0002030BD70B5054604
:104DB0000C46244885420ED0234885420BD0B5F1DD
:104DC000804F08D02148854205D02148854202D035
:104DD0002048854200D100E000BF208850B92389D7
:104DE000A28861882846FFF721FCE188284600F068
:104DF000A2F925E0208804280AD12389A2886188A5
:104E00002846FFF753FCE188284600F09DF917E09B
:104E1000208808280AD12389A28861882846FFF7BC
:104E200091FCE188284600F09CF909E02389A288DA
:104E300061882846FFF7CEFCE188284600F09AF901
:104E400070BD0000002C014000340140000400400F
:104E500000080040000C0040002101804180012139
:104E600081800021C180018170471AB183890B4381
:104E7000838102E083898B438381704770B500246E
:104E800000220023058C4FF6FE7635400584028C07
:104E90008388048B4FF68F752C40B51E2C400D88EF
:104EA0002C43751E2A400D892A434D882A43144DF0
:104EB000A8420BD0134DA84208D0134DA84205D0EC
:104EC000124DA84202D0124DA84213D14FF6F775E9
:104ED0002A404D892A434FF6FB752A408D882A4384
:104EE0004FF6FF652B404FF6FF552B408D892B4326
:104EF000CD892B4383800483CD888586028470BD51
:104F0000002C0140003401400040014000440140B9
:104F1000004801400A460021018B4FF6F773194003
:104F2000114301837047000070B500240022002364
:104F3000058C4FF6EF7635400584028C8388048B10
:104F400048F6FF752C404FF6FF452C400D884FF674
:104F5000FF7606EA05252C434FF6DF752A400D89BA
:104F600006EA05152A434D8806EA05152A43154D1C
:104F7000A84202D0144DA8421DD14FF67F752A4099
:104F80004D894FF6FF7606EA05152A434FF6BF75A1
:104F90002A408D8806EA05152A434FF6FF352B4037
:104FA0004FF2FF752B408D8906EA85052B43CD898D
:104FB00006EA85052B4383800483CD880587028418
:104FC00070BD0000002C0140003401400A46002161
:104FD000018B4FF2FF7319404FF6FF7303EA022370
:104FE000194301837047000070B50024002200239C
:104FF000058C4FF6FF6635400584028C8388848BD0
:105000004FF68F752C404FF6FC752C400D882C43C5
:105010004FF6FF552A400D894FF6FF7606EA052523
:105020002A434D8806EA05252A43154DA84202D099
:10503000144DA8421DD14FF2FF752A404D894FF6FD
:10504000FF7606EA05252A434FF6FF352A408D886C
:1050500006EA05252A434EF6FF752B404DF6FF75EF
:105060002B408D8906EA05152B43CD8906EA0515E7
:105070002B4383808483CD888587028470BD0000A4
:10508000002C0140003401400A460021818B4FF67C
:10509000F7731940114381837047000070B50022F7
:1050A00000230024058C4EF6FF7635400584038CE2
:1050B0008488828B48F6FF752A404FF6FF452A40C8
:1050C0000D884FF6FF7606EA05252A434DF6FF7553
:1050D0002B400D8906EA05352B434D8806EA053538
:1050E0002B430B4DA84202D00A4DA84208D14BF6E3
:1050F000FF752C408D894FF6FF7606EA85152C4307
:1051000084808283CD88A0F84050038470BD000065
:10511000002C0140003401400A460021818B4FF2EF
:10512000FF7319404FF6FF7303EA0223194381838B
:10513000704781847047028B4FF6F3731A400283E5
:10514000028B0A4302837047028B4FF2FF331A40EF
:105150000283028B4FF6FF7303EA01231A43028393
:105160007047828B4FF6F3731A408283828B0A4317
:1051700082837047828B4FF2FF331A408283828B87
:105180004FF6FF7303EA01231A438283704700003E
:10519000002202881D4B98420ED01D4B98420BD026
:1051A000B0F1804F08D01B4B984205D01A4B984263
:1051B00002D01A4B984204D14FF68F731A404B8895
:1051C0001A43174B984207D0164B984204D04FF61B
:1051D000FF431A40CB881A4302808B8883850B8853
:1051E00003850A4B98420BD0094B984208D00E4BCE
:1051F000984205D00D4B984202D00D4B984201D1F8
:105200000B7A03860123838270470000002C014043
:10521000003401400004004000080040000C004041
:1052200000100040001400400040014000440140D4
:10523000004801404FF6FF71818000210180C1804C
:1052400041800172704700002DE9F0410546884613
:1052500013492846FBF7FEFA13D312492846FBF7F9
:1052600003FB0ED310480068FBF7ACFA06464FF07C
:1052700033320E4BFBF7BAFA03D30D4800780128FE
:105280000AD1012400200B490880091D0880091D4E
:105290000880091D088000E000242046BDE8F08158
:1052A000000020C200002042E400002033332340ED
:1052B00030000020343401402DE9F04705463248E3
:1052C000066832480078032806D13148006880F02B
:1052D0000040304908601BE02C480078042804D1C5
:1052E0002B4800682B49086012E028480078052800
:1052F00003D12948274908600AE024480078062895
:1053000003D126482349086002E0002021490860B3
:105310001E480078012803D01C480078022802D1DA
:105320001F48046800E0002421462846FAF7F9FFE8
:1053300082461C49FBF727F880463146154800682D
:10534000FAF7EFFF82461749FBF71DF88146414601
:10535000FAF78FFF0746144801683846FAF789FFC5
:105360001249086012480078012807D111480168E5
:105370000E480068FAF7D5FF0C4908600B48006832
:10538000FBF7F3F9BDE8F08704010020500100208D
:105390001C010020340100200000F0C10000F04199
:1053A000080100200000C8422C0000203801002025
:1053B000310000201401002010B540F225510648AC
:1053C00000F074F930B1044800F02CFAC4B2204661
:1053D00001F080FC10BD00000050004070B5054693
:1053E0002C4603E0207800F029F9641C207800287E
:1053F000F8D170BD10B5002440F22551054800F0E9
:1054000055F930B1034800F00DFAC4B2204600F05F
:1054100003F810BD0038014010B5044600BF8021DC
:10542000044800F036F90028F9D02146014800F080
:10543000FEF910BD0038014010B540F22551084872
:1054400000F034F958B140F22551054800F006F952
:10545000034800F0E7F9C4B22046FCF79DFB10BDFD
:105460000044004010B586B0044601214804FEF710
:1054700025FC01210420FEF741FC0420ADF81400B6
:1054800018208DF8170003208DF8160005A91B4879
:10549000FCF752FD0820ADF8140004208DF8170029
:1054A00005A91648FCF748FD26208DF800000120CC
:1054B0008DF801008DF802008DF803006846FDF7B5
:1054C000B5FE01940020ADF80800ADF80A00ADF873
:1054D0000C00ADF810000C20ADF80E0001A9084832
:1054E00000F034F9012240F22551054800F008F996
:1054F0000121034800F0C1F806B010BD00080140CA
:105500000044004000B587B001218804FEF7D6FBB7
:1055100001211120FEF7F2FB01212548FCF798FD3F
:105520004FF48060ADF8180018208DF81B000320A0
:105530008DF81A0006A91F48FCF7FEFC4FF4006026
:10554000ADF8180004208DF81B0006A91948FCF7D7
:10555000F3FC42F6B10002900020ADF80C00ADF86B
:105560000E00ADF81000ADF814000C20ADF81200DC
:1055700002A9114800F0EAF827208DF80400012064
:105580008DF8050002208DF8060001208DF8070037
:1055900001A8FDF74BFE012240F22551064800F01C
:1055A000AFF80121044800F068F807B000BD000022
:1055B00010001400001001400048004010B50446DF
:1055C00000BF8021044800F064F80028F9D021468B
:1055D000014800F02CF910BD0048004010B540F221
:1055E0002551134800F062F800B910BD40F2255172
:1055F0000F4800F033F80E4800F014F9C4B2242C20
:1056000003D101200B49087010E00A4800780128F6
:1056100009D1312C07DB332C05DC0748047000204E
:105620000449087002E000200249087000BFDCE76E
:1056300000480040E1000020E000002010B50446D2
:1056400000BF8021044800F024F80028F9D021464A
:10565000014800F0ECF810BD0050004010B50022E9
:10566000002340F66A14A14200D100BF0A120124AF
:105670009440A3B2DC43048010BD21B1828942F47E
:105680000052828104E082894DF6FF731A408281C4
:10569000704702460020B1F5007F00D100BF13889B
:1056A0000B400BB1012000E00020704770B50246AE
:1056B000002400230025002040F66A16B14200D1E4
:1056C00000BFC1F3421501F01F03012606FA03F3E0
:1056D000012D02D19689334006E0022D02D1168AAF
:1056E000334001E0968A33400C12012606FA04F496
:1056F0001688344013B10CB1012000E0002070BDC9
:10570000F0B50346002400260025002040F66A1765
:10571000B94200D100BF1846C1F3421401F01F0680
:10572000012707FA06F5012C01D10C3004E0022C08
:1057300001D1103000E014301AB107682F43076020
:1057400002E00768AF430760F0BD00002DE9F047B5
:1057500086B005460E460024A24600BFA14600279B
:10576000B08900B100BF2F462C8A4CF6FF70044070
:10577000F08804432C82AC894EF6F3100440B088C4
:1057800031890843718908430443AC81AC8A4FF6E0
:10579000FF400440B0890443AC8201A8FEF7CEFA72
:1057A0001F48874202D1DDF810A001E0DDF80CA00F
:1057B000A88900F4004040B10AEBCA0000EB0A10CF
:1057C00031684900B0FBF1F807E00AEBCA0000EBD2
:1057D0000A1031688900B0FBF1F86420B8FBF0F0E2
:1057E00004012009642101FB1089A88900F400400C
:1057F00040B1322000EBC900B0FBF1F000F007002F
:10580000044308E0322000EB09106421B0FBF1F002
:1058100000F00F0004432C8106B0BDE8F0870000C3
:105820000038014001468888C0F308007047C1F382
:1058300008028280704700BFFEE700002DE9FC5F90
:105840000446894651480078012804D15048006830
:10585000504908600EE04D480078022806D14C48B7
:10586000006880F000404B49086003E04A48006847
:105870004849086004EB09014842FAF74AFF4749E2
:10588000086047480068FAF79DFF0746454A464BBF
:10589000FAF75EFE0546FAF7C1FF414908603F4846
:1058A0000068FAF78FFF0546404A414BFAF750FE71
:1058B000074688463A480068FAF784FF82463A4627
:1058C0004346FAF79EFDCDE90001FAF7A7FF3449F8
:1058D00008600846016837480068FAF7CAFC35498D
:1058E00008602C48016833480068FAF7C2FC314967
:1058F000086031492F480068FAF7B6FF02D22E48F7
:105900002C4908602D492B480068FAF7A3FF02D202
:105910002A48284908602A48016826480068FAF79A
:1059200000FD07462749FAF72EFD05461C4800688A
:1059300080F00048244801684046FAF7F2FC074628
:105940002049FAF720FD06462946FAF7E4FC1F49EC
:1059500008601F4801681F480068FFF775FC0128B0
:1059600002D10020134908601B480078012807D1A4
:105970001A48016815480068FAF7D3FC1349086013
:1059800012480068FAF7F1FEBDE8FC9F50010020C4
:10599000180100202C0100202800002024010020F4
:1059A00028010020E17A14AE47E1EA3F7B14AE47BC
:1059B000E17AC43F300100200000FA450000FAC53A
:1059C000000100200000C842FC000020200100204F
:1059D000E40000200400002031000020100100201D
:1059E0000FB4054B10B503A9044A029800F07EF9E4
:1059F00010BC5DF814FB0000397A00089C00002000
:105A00000FB4084B10B504A902AA039800F06EF970
:105A1000044602A9002000F0ECFC204610BC5DF812
:105A200014FB0000F3630008490050EAC12018BFCE
:105A300004204A0D18BF40F0010040F2FF72B2EBA3
:105A4000515F08BF40F00200012808BF05207047E1
:105A50002DE9F0414F1E00EBC7010446D1E90001DA
:105A600015461E4637F006020DD02A463346FAF791
:105A70006FFD7F1E04EBC703D3E90023FAF7C1FCD7
:105A800037F00602F1D1022F25D0042F13D0062FB4
:105A900018BFBDE8F0812A463346FAF759FDD4E92C
:105AA0000A23FAF7AEFC2A463346FAF751FDD4E949
:105AB0000823FAF7A6FC2A463346FAF749FDD4E94B
:105AC0000623FAF79EFC2A463346FAF741FDD4E94D
:105AD0000423FAF796FC2A463346FAF739FDD4E94F
