:030000000200E912
:0C00E900787FE4F6D8FD75810B02000E54
:1000CB00D3EF9400EE940040147DFA7C00ED1D708C
:0D00DB00011CED4C70F7EF1F70E61E80E376
:0100E80022F5
:10000E00C297758901758CFF758A9CD2AFD2A9D221
:10001E008C750A05750805E4F509F50B20B7267FE2
:10002E00287E001200CB20B71CD3E50A94147480EE
:10003E0094805008E50A2405F5088003750819E434
:10004E00F50B30B7FD20B6D47F287E001200CB20F2
:10005E00B6CAC3E50A940A748094804008E50A245F
:10006E00FBF5088003750805E4F50B20B6AE80FBA2
:03000B0002007E72
:10007E00C0E0C0D0758CFF758A9C0509C3E5099454
:10008E00C8748094804003750900E509C3950A5031
:10009E00028001C39297E50A6508601C050BC3E553
:1000AE000B942874809480400F750B00E50A950818
:0D00BE005004050A8002150AD0D0D0E032AF
:00000001FF
