:020000040800F2
:100000005007002049010008A12400089D23000892
:100010009D2400080D0A0008A33500080000000018
:10002000000000000000000000000000CB270008D6
:10003000392100080000000015250008B529000836
:100040006301000863010008630100086301000800
:1000500063010008630100086301000863010008F0
:1000600063010008630100086301000863010008E0
:1000700063010008630100086301000863010008D0
:1000800063010008630100086301000863010008C0
:1000900063010008630100086301000863010008B0
:1000A00063010008630100086301000863010008A0
:1000B00063010008592C0008712C00086301000836
:1000C0006301000863010008630100086301000880
:1000D00063010008A53300086301000863010008FC
:1000E0006301000863010008630100086301000860
:1000F0006301000863010008630100086301000850
:10010000630100086301000863010008630100083F
:10011000630100086301000863010008630100082F
:10012000630100086301000863010008630100081F
:10013000DFF810D000F0BAFB00480047593F000834
:10014000AFF300805007002006488047064800476C
:10015000FEE7FEE7FEE7FEE7FEE7FEE7FEE7FEE777
:10016000FEE7FEE7B929000831010008F0B480EA93
:100170000102D40F4200B2EB410F02D20246084600
:1001800011464A0042D0C30DDDB2C1F3C752AD1AC9
:10019000202D35DAC1F3160141F4000204B15242B8
:1001A000C5F1200602FA06F12A411044B3EBD05FF4
:1001B00023D0C4B1012DA0EBC35009DCF0BC4FF03B
:1001C000004202EAC352DBB200F5000000F00CBAB4
:1001D000400000F1807000EBC350A0F1807040EA55
:1001E000D170490009E0490841EAC071A0EBC35051
:1001F00000F50000400800EBC350F0BC00F0EBB984
:100200006142012202EB4101001BF6E7F0BC70479E
:1002100081F00041AAE780F00040A7E780EA0102F0
:1002200010B502F00043400022D04A001FD0010E5A
:1002300001EB1261C0F35600C2F3560240F4000015
:1002400042F40002A0FB022000047F39140400D015
:10025000401C50EA124001D44000491EC2B20C06B4
:1002600004EBD010401C4008802A02D003E000209C
:1002700010BD20F00100002900DA0020184310BD55
:1002800030B480EA010202F0004530F0004221F073
:10029000004013D090B1C30DD40DC2F31601C0F3CA
:1002A0001600E41A41F4000140F400027D3491424A
:1002B00001D3641C00E04900002C02DA30BC0020AD
:1002C00070474FF400000023914201D3891A034381
:1002D00040084FEA4101F7D151B1914202D14FF0AC
:1002E000004105E002D24FF0010101E06FF0010191
:1002F00003EBC450284430BC00F06DB92DE9FE4F2B
:1003000081EA030404F0004421F0004100944FF01E
:10031000000B23F0004350EA01045ED052EA0304CC
:100320005BD0C3F30A54C1F30A552C44A4F2F3344E
:100330000194A0FB0254C1F3130141F48011C3F3F3
:10034000130343F4801301FB024400FB034E840AB1
:10035000970A44EA815447EA8357A4FB0768029549
:100360008D0A05FB07854FEA932C04FB0C542705E7
:10037000029D4FEA065847EA1637B5EB08056EEBC3
:10038000070C870E920E47EA811742EA8312A7FBF9
:100390000201B6EB0B0164EB00042B0D43EA0C33B6
:1003A0005E1844EB1C50DA465146E7FB0201C5F3E8
:1003B00013044FEA0B3343EA14534FEA0432019C0F
:1003C00043EA0603A4F10C040294009CCDE900B4B6
:1003D00000F047F903B0BDE8F08F00200146F9E7CF
:1003E0002DE9F04D81EA030404F0004B21F00045B3
:1003F00014464FF0000A23F0004150EA050220D0D5
:1004000054EA01021DD0C5F30A570246C5F313038F
:10041000C1F31300C1F30A5640F4801543F480136E
:10042000A7EB0608101BD64608F2FD3873EB050053
:1004300002D308F1010801E092185B41B8F1000F06
:1004400003DA00200146BDE8F08D00204FF4801152
:10045000064684460EE0171B73EB050705D3121BF7
:1004600063EB050306434CEA010C49084FEA3000F0
:1004700092185B4150EA0107EDD152EA030012D015
:1004800082EA040083EA0501084305D0101BAB4152
:1004900006D20122002306E000224FF0004302E0D2
:1004A0006FF0010253101AEB06004CEB085110EBF1
:1004B0000A0041EB0B01BDE8F04D00F0C3B8C10FDD
:1004C00080EAE0700844CA079623002100F08CB847
:1004D00096230022114600F087B800F0004220F079
:1004E0000040C10DC0F3160040F400007F2901DA7E
:1004F00000207047962903DCC1F19601C84001E055
:1005000096398840002AF4D04042704700F00042FB
:1005100030F000400AD0C10D01F56071C0F3160043
:1005200042EA0151C20840071143704700200146CA
:1005300070470000002801DBC0F10040002901DB0A
:10054000C1F100418842704730B50B46014600209A
:100550002022012409E021FA02F59D4205D303FA85
:1005600002F5491B04FA02F52844151EA2F1010206
:10057000F1DC30BD2DE9F05F0546002092469B4638
:1005800088460646814640241BE0284641464746A9
:10059000224600F0ACF953465A46C01A914110D396
:1005A00011461846224600F093F92D1A67EB010810
:1005B0004F4622460120002100F08AF917EB00097E
:1005C0004E41201EA4F10104DFDC484631462A4694
:1005D0004346BDE8F09F0029A8BF7047401C490072
:1005E00008BF20F00100704710B4B0FA80FC00FA98
:1005F0000CF050EA010404BF10BC704749B1CCF1C3
:10060000200421FA04F411FA0CF118BF012121434E
:100610000843A3EB0C01CB1D4FEA00614FEA102009
:1006200042BF002010BC704700EBC35010440029AB
:10063000A4BF10BC7047401C490008BF20F0010057
:1006400010BC704710B5141E73F1000408DA401C8A
:1006500041F1000192185B411A4301D120F00100E1
:1006600010BD2DE9F04D92469B4611B1B1FA81F2D1
:1006700002E0B0FA80F22032904600F029F90446F8
:100680000F4640EA0A0041EA0B0153465A46084326
:1006900013D0114653EA010019D0C8F14002504668
:1006A00000F025F905460E4650465946424600F0F0
:1006B0000FF9084305D0012004E020463946BDE883
:1006C000F08D0020054346EAE0762C4337430A9834
:1006D0006305E40AA0EB08000022FD0A44EA47543F
:1006E0000A3002D500200146E9E7010510196941E9
:1006F000DDE9084500196941BDE8F04DA2E72DE9A3
:10070000FE4F804681EA0300C00F0C46009021F0A6
:10071000004123F00045B8EB0200A94105D2404654
:10072000214690461C460B46024623F000401043EB
:1007300047D0270DC7F30A00C3F30A510290401AAD
:10074000019040286BDAC3F3130040F4801B00983B
:10075000924620B10023D2EB030A63EB0B0B019806
:100760005946C0F14002504600F0B2F806460D4628
:1007700050465946019A00F0CAF810EB0800614152
:10078000002487EA115284EAE7731A4340D0009AA2
:1007900062B3019A012A4FEA075215DC001B61EB94
:1007A00002014FF0004202EA0752CDE90042001C6C
:1007B00041F5801132462B46FFF753FF03B0BDE8E9
:1007C000F08F40462146F9E7001B61EB0201001C57
:1007D00041F5801300185B412018A2F5001747EB84
:1007E000030140EAD570B6196D4111E06D084FEA7A
:1007F000360645EAC0754FEA0752001B61EB02015D
:10080000001C41F5801149084FEA300000195141A0
:1008100032462B4603B0BDE8F04FFFF713BF0098F8
:10082000012240000023D0EB020263EBE07300984A
:1008300021464FEAE074B8EB000061EB0401E9E700
:1008400083F000435BE781F0004158E7C1F30A52AF
:10085000C1F3130140F2FF3341F480119A4202DAEE
:1008600000200146704740F233439A42A2F23342DD
:1008700002DC524200F03BB800F02AB830B5041E4A
:1008800071F1000404DB4FF00044404264EB0101CD
:10089000141E73F1000405DB1C464FF00043524266
:1008A00063EB0403994208BF904230BD064C074DEC
:1008B00006E0E06840F0010394E807009847103430
:1008C000AC42F6D3FFF738FC4C4300086C430008F9
:1008D000202A04DB203A00FA02F100207047914000
:1008E000C2F1200320FA03F3194390407047202AF5
:1008F00004DB203A21FA02F00021704721FA02F3CA
:10090000D040C2F120029140084319467047202A86
:1009100006DBCB17203A41FA02F043EAE07306E027
:1009200041FA02F3D040C2F1200291400843194637
:100930007047000008B50121102001F093FE4FF42C
:100940007070ADF8000018208DF8030003208DF8BA
:1009500002006946014801F08DFC08BD001001400D
:1009600030B587B005460C460121480301F07AFEF8
:10097000254802F0B3F9681E80B2ADF81400ADF856
:1009800010400020ADF81600ADF8120004A91E4872
:1009900002F0ACFC6020ADF800000120ADF80200D0
:1009A0000020ADF80600ADF808006946164802F0D0
:1009B00013FB6946144802F065FB6946124802F0D1
:1009C000C1FB6946104802F017FC01210E4802F0F5
:1009D00076F908210C4802F04BFB08210A4802F086
:1009E000A3FB0821084802F0FDFB0821064802F09D
:1009F00041FC0121044802F047F90121024802F0BC
:100A000052F907B030BD00000034014000BFFEE7DE
:100A10002DE9F04105460C4605B114B90020BDE8AA
:100A2000F0812846FFF74BFD80460849FFF728FC78
:100A300006462046FFF74CFD80460549FFF720FC9F
:100A4000074639463046FFF71BFCE8E70000A543A0
:100A500000606A472DE9F04F9FB000201E901D9066
:100A60001C901B901A901990DDA002F09DFDDDA056
:100A700002F09AFDEAA002F097FDF7A002F094FDC3
:100A8000002451E2002012901190109000252EE0D9
:100A9000C4EB041000EB4410FE4A02EB8000001D82
:100AA00000EB0510C1681298FFF760FB1290C4EBD1
:100AB000041000EB4410F74A02EB8000001D00EB2D
:100AC000051041681198FFF751FB1190C4EB041019
:100AD00000EB4410EF4A02EB8000001D00EB051014
:100AE00081681098FFF742FB1090681CC5B2052D75
:100AF000CEDBE9491298FFF7C3FBC4EB041101EB0D
:100B00004411E44A02EB8101C1F8A400E2491198C2
:100B1000FFF7B6FBC4EB041101EB4411DD4A02EB15
:100B20008101C1F8AC00DC491098FFF7A9FBC4EBC8
:100B3000041101EB4411D74A02EB8101C1F8B00066
:100B40004FF00009CA46CB4600252EE0C4EB041046
:100B500000EB4410CF4A02EB8000543000EB05104C
:100B6000C1684846FFF702FB8146C4EB041000EB66
:100B70004410C84A02EB8000543000EB0510416875
:100B80005046FFF7F3FA8246C4EB041000EB441022
:100B9000C04A02EB8000543000EB051081685846D3
:100BA000FFF7E4FA8346681CC5B2052DCEDBBA49CF
:100BB0004846FFF765FBC4EB041101EB4411B54A4D
:100BC00002EB8101C1F8A800B3495046FFF758FB7A
:100BD000C4EB041101EB4411AE4A02EB8101C1F8F0
:100BE000B400AD495846FFF74BFBC4EB041101EBD1
:100BF0004411A84A02EB8101C1F8B800C4EB04110A
:100C000001EB441102EB8101D1F8A400FFF77EFC57
:100C100006460F46C4EB041202EB44129D4B03EB55
:100C20008202D2F8B010C4EB041202EB441203EBC0
:100C30008202D2F8AC00FFF7EBFA0790FFF766FCF0
:100C4000CDE90E01C4EB041101EB4411914A02EB12
:100C50008101D1F8B000FFF759FCCDE90C01C4EBDC
:100C6000041101EB44118B4A02EB8101D1F8AC0075
:100C7000FFF74CFCCDE90A01884931F81400FFF771
:100C800027FC87490690FFF7FBFA0790FFF73EFC29
:100C9000CDE90667CDE90801DDE90E01CDE90401E2
:100CA000DDE90C01CDE90201DDE90A01CDE9000130
:100CB0007CA0DDE9082302F077FCC4EB041101EB12
:100CC0004411744A02EB8101D1F8A800FFF71EFC21
:100CD000C4EB041202EB44126E4B03EB8202CDE92B
:100CE0000E01D2F8B810C4EB041202EB441203EB6D
:100CF0008202D2F8B400FFF78BFA0990FFF706FCE6
:100D000006460F46C4EB041101EB4411614A02EBA5
:100D10008101D1F8B800FFF7F9FBCDE90C01C4EB74
:100D2000041101EB44115B4A02EB8101D1F8B400DC
:100D3000FFF7ECFBCDE90A01DDE90E01CDE9026721
:100D4000CDE90401DDE90C01CDE9000161A0DDE997
:100D50000A2302F029FC032C02DA3FA002F024FC53
:100D6000C4EB041000EB44104A4A02EB8000D0F8B8
:100D7000A4101E98FFF7FAF91E90C4EB041000EBC4
:100D80004410444A02EB8000D0F8A8101D98FFF7E9
:100D9000EDF91D90C4EB041000EB44103D4A02EB4A
:100DA0008000D0F8AC101C98FFF7E0F91C90C4EB61
:100DB000041000EB4410374A02EB8000D0F8B0106A
:100DC0001B98FFF7D3F91B90C4EB041000EB441001
:100DD000304A02EB8000D0F8B4101A9892E000007C
:100DE0000D0A00003D3D3D3D3D3D3D3D3D3D3D3D10
:100DF0003D3D3D3D3D3D2043414C494252415449DA
:100E00004F4E2044415441203D3D3D3D3D3D3D3D03
:100E10003D3D3D3D3D3D3D3D3D3D0D0A0000000059
:100E20004475747920207C20446972207C20204CF9
:100E30005F52504D2020207C2020525F52504D2088
:100E400020207C20446966662852504D29207C2051
:100E5000526174696F0D0A002D2D2D2D2D2D2D2D14
:100E60002D2D2D2D2D2D2D2D2D2D2D2D2D2D2D2DB2
:100E70002D2D2D2D2D2D2D2D2D2D2D2D2D2D2D2DA2
:100E80002D2D2D2D2D2D2D2D2D2D2D2D2D2D0D0AD5
:100E9000000000005C0000200000A0408C42000820
:100EA00000009042252E3066252520207C204657C4
:100EB00044207C2025382E3166207C2025382E3198
:100EC00066207C2025382E3166207C20252E346635
:100ED0000D0A00002020202020207C2042574420A2
:100EE0007C2025382E3166207C2025382E31662046
:100EF0007C2025382E3166207C20252E34660D0A74
:100F000000000000FFF732F91A90C4EB041000EB68
:100F100044107C4A02EB8000D0F8B8101998FFF713
:100F200025F91990601CC4B2042CFFF6ABAD76A075
:100F300002F03AFB4FF081411E98FFF7A1F918909B
:100F40004FF081411D98FFF79BF91790DDE91710CD
:100F5000FFF70CF906464FF08041FFF791F9804604
:100F60004FF081411C98FFF78BF916904FF08141AB
:100F70001B98FFF785F915904FF081411A98FFF7FC
:100F80007FF914904FF081411998FFF779F9139088
:100F90006CA002F009FB1898FFF7B8FA0646324633
:100FA0000B4675A002F000FB1798FFF7AFFA064654
:100FB00032460B467AA002F0F7FA4046FFF7A6FA4F
:100FC000064632460B4680A002F0EEFAAFF2F01071
:100FD00002F0EAFA1698FFF799FA064632460B46EF
:100FE00083A002F0E1FA1598FFF790FA0646324620
:100FF0000B4687A002F0D8FA1498FFF787FA064646
:1010000032460B468AA002F0CFFA1398FFF77EFA19
:10101000064632460B468EA002F0C6FA94A002F0B5
:10102000C3FA4FF07E514046FFF784FA1CD8414680
:101030004FF07E50FFF724F9994908604FF07E5039
:101040009849086001464046FFF7E2F88246964913
:10105000FFF7E4F88146FFF759FA064632460B4699
:1010600092A002F0A1FA18E04FF07E508C4908607F
:101070008C48C0F8008041464FF07E50FFF7C8F81A
:1010800082468949FFF7CAF88146FFF73FFA0646CC
:1010900032460B4694A002F087FAA2A002F084FA2E
:1010A0007F480068FFF732FA064632460B46AAA090
:1010B00002F07AFA7B480068FFF728FA06463246C3
:1010C0000B46AEA002F070FAB5A002F06DFA7448BB
:1010D0000068FFF71BFA064632460B46B7A002F03F
:1010E00063FA70480068FFF711FA064632460B466D
:1010F000BBA002F059FA06A002F056FA1FB0BDE8F4
:10110000F08F00005C0000203D3D3D3D3D3D3D3DFC
:101110003D3D3D3D3D3D3D3D3D3D3D3D3D3D3D3DFF
:101120003D3D3D3D3D3D3D3D3D3D3D3D3D3D3D3DEF
:101130003D3D3D3D3D3D3D3D3D3D3D3D3D3D0D0A42
:10114000000000000D0A3D3D3D3D3D3D3D3D3D3D26
:101150003D3D3D3D3D3D3D3D2053554D4D41525959
:10116000203D3D3D3D3D3D3D3D3D3D3D3D3D3D3DCC
:101170003D3D3D0D0A0000004F766572616C6C20AC
:10118000466F727761726420526174696F20284CD7
:101190002F52293A2020252E34660D0A0000000027
:1011A0004F766572616C6C204261636B776172642B
:1011B00020526174696F20284C2F52293A20252E25
:1011C00034660D0A000000004F766572616C6C2079
:1011D0004176657261676520526174696F20284CA1
:1011E0002F52293A2020252E34660D0A00000000D7
:1011F00041766720466F727761726420204C656685
:10120000742052504D3A2020252E31660D0A0000E0
:1012100041766720466F7277617264202052696759
:1012200068742052504D3A20252E31660D0A000078
:10123000417667204261636B77617264204C65661A
:10124000742052504D3A2020252E31660D0A0000A0
:10125000417667204261636B7761726420526967EF
:1012600068742052504D3A20252E31660D0A000038
:101270003D3D3D3D3D3D3D3D3D3D3D3D3D3D3D3D9E
:101280003D3D3D3D3D3D3D3D3D3D3D3D3D3D3D3D8E
:101290003D3D3D3D3D3D3D3D3D3D3D3D3D0D0A001E
:1012A00014000020180000200000C8420D0A3E3E35
:1012B0003E204C656674206D6F746F7220697320D8
:1012C0004641535445522028252E31662525292C88
:1012D000207265647563696E67206C656674205062
:1012E000574D0D0A000000000D0A3E3E3E20526997
:1012F000676874206D6F746F722069732046415364
:101300005445522028252E31662525292C2072652A
:10131000647563696E672072696768742050574D01
:101320000D0A00000D0A3D3D3D3D3D3D3D3D3D3D2D
:1013300020434F4D50454E534154494F4E20434F4B
:10134000454646494349454E5453203D3D3D3D3D6C
:101350003D3D3D3D3D0D0A004C656674204D6F746A
:101360006F7220436F6D70656E736174696F6E3A52
:101370002020252E34660D0A00000000526967689F
:1013800074204D6F746F7220436F6D70656E736162
:1013900074696F6E3A20252E34660D0A0000000035
:1013A000436F6D70656E73617465642050574D2096
:1013B000466F726D756C613A0D0A000020204C6515
:1013C00066745F50574D20203D204F726967696EEB
:1013D000616C5F50574D202A20252E34660D0A007F
:1013E000202052696768745F50574D203D204F722E
:1013F0006967696E616C5F50574D202A20252E3435
:10140000660D0A002DE9F04F8BB0FC4800780A28E1
:101410007ED2DFE800F005124A66EDECEBEA060C3E
:1014200000BFF74800683230F549086074E3F448BB
:1014300000683230F24908606EE3F2A002F0B4F8BE
:10144000FB49FC4A127831F81200FFF741F8834655
:10145000F949FEF715FF8246FFF758F807460B4695
:10146000F348F44A127830F812103A46F3A002F02A
:101470009BF8FBA002F098F84FF49671FEA002F0E2
:1014800093F8EB4AEB4B1B7832F81310E94B1B78BF
:1014900032F8130001F00EFA0020D9490860FE4925
:1014A00008700220D549087036E3D548006832300C
:1014B000D349086008460068B0F5967F10D3002035
:1014C0000860F6490860F4490870F5A002F06CF86D
:1014D00005226421FEA002F067F80320C7490870C6
:1014E0001AE3C74800683230C5490860EB48006815
:1014F0003230EA49086008460068642874D3002046
:10150000086001F055F9054601F058F9044600E07D
:1015100001E3C8480078C0EB001101EB4010F74927
:1015200001EB8000001DDC49097800EB011005800B
:10153000C0480078C0EB001101EB4010EF4901EB0F
:101540008000001DD449097800EB01104480284632
:1015500002F044FE07B264213846FFF759FA064606
:10156000204602F03BFE07B264213846FFF750FAEE
:101570008146B0480078C0EB001101EB4010DF4914
:1015800001EB8000001DC449097800EB01104660A2
:10159000A8490978C1EB011202EB4111D74A02EBCD
:1015A0008101091DBC4A127801EB0211C1F80890B3
:1015B000FCB12046FEF783FF07462846FEF77FFF73
:1015C00080463946FEF75CFE9A490978C1EB011264
:1015D00002EB4111C94A02EB8101091DAE4A1278A2
:1015E00001EB0211C86015E059E055E29EE083E08E
:1015F00056E04FF07E518F480078C0EB001202EBAE
:101600004010BE4A02EB8000001DA34A127800EB96
:101610000210C16087490978C1EB011202EB411148
:10162000B64A02EB8101091D9B4A127801EB0211B7
:10163000C868FEF76BFF074688464846FEF766FF18
:1016400082468B463046FEF761FFCDE9078009915F
:101650002B460522CDE904AB06970094CDE90201A3
:101660008D480178491CA64801F09EFF8A48007801
:10167000401C894908700846007805280FDBA1A0A6
:1016800001F092FFA9A001F08FFF0021084601F0B0
:1016900011F900205A4908600420584908703BE2BB
:1016A0005748006832305649086008460068B0F56F
:1016B000FA7F20D300200860A5490870A54908706A
:1016C00076490860A4A001F06FFF4FF496716AA0FC
:1016D00001F06AFF564A574B1B7832F813205142EB
:1016E000534A544B1B7832F81320504201F0E2F871
:1016F0000520424908700FE24148006832304049F5
:10170000086008460068B0F5967F0ED30020086098
:101710006249086096A001F047FF052264216CA091
:1017200001F042FF062035490870F5E134480068B1
:1017300032303349086059480068323057490860F0
:1017400008460068642856D3002008608148007865
:10175000401C804908700846007803284CDD7C480E
:101760000078052848DA01F023F8074602F036FD34
:1017700005B201F023F8074602F030FD04B22D480F
:101780000078C0EB001101EB40105C4901EB8000D8
:1017900054306F49097800EB011005802548007826
:1017A000C0EB001101EB4010544901EB80005430B4
:1017B0006749097800EB0110448064212846FFF74F
:1017C00027F9064664212046FFF722F98146194889
:1017D0000078C0EB001101EB4010484901EB80009C
:1017E00054305B49097800EB0110466011490978D3
:1017F000C1EB0112D4E04EE13CE10000000000200A
:10180000080000203D3D3D3D3D3D3D3D3D3D3D3DD4
:101810003D3D3D3D3D3D3D3D3D3D3D3D3D3D3D3DF8
:101820003D3D3D3D3D3D3D3D3D3D3D3D0D0A0000C5
:101830008C4200080100002000009042546573743F
:10184000696E6720447574793A2025642F373230E9
:10185000302028252E30662525290D0A000000009D
:10186000446972656374696F6E3A20464F525741FE
:1018700052440D0A0000000053746162696C697A79
:10188000696E67206D6F746F7220666F72202564B9
:101890006D732E2E2E0D0A00020000200C00002079
:1018A0004D6F746F722073746162696C697A6564DC
:1018B0002E20537461727420666F72776172642097
:1018C00073616D706C696E672E2E2E0D0A0000001C
:1018D00053616D706C6520706572696F643A202584
:1018E000646D732C20546F74616C2073616D706C27
:1018F00065733A2025640D0A0D0A00005C00002083
:10190000F04200080D0A3E3E3E20466F727761723B
:1019100064206D6561737572656D656E7420636FAB
:101920006D706C657465210D0A0000003E3E3E201E
:1019300053746F7070696E67206D6F746F72206280
:10194000726965666C792E2E2E0D0A0D0A00000054
:101950000300002004000020446972656374696F0D
:101960006E3A204241434B574152440D0A00000059
:101970004D6F746F722073746162696C697A65640B
:101980002E205374617274206261636B776172649C
:101990002073616D706C696E672E2E2E0D0A00002B
:1019A00002EB41115E4A02EB810154315D4A12782B
:1019B00001EB0211C1F80890D4B12046FEF77FFD7B
:1019C00007462846FEF77BFD80463946FEF758FC61
:1019D00055490978C1EB011202EB4111504A02EB63
:1019E000810154314F4A127801EB0211C86010E0B6
:1019F0004FF07E514C480078C0EB001202EB4010D3
:101A0000474A02EB80005430464A127800EB02103D
:101A1000C16045490978C1EB011202EB4111404A0E
:101A200002EB810154313F4A127801EB0211C86880
:101A3000FEF76CFD074688464846FEF767FD82467E
:101A40008B463046FEF762FDCDE9078009912B46B3
:101A50000522CDE904AB06970094CDE90201314897
:101A60000178491C314801F09FFD2E480078401C48
:101A70002C4908702B48007805280CDB2CA001F0BD
:101A800093FD0021084600F015FF00203249086050
:101A90000720324908703FE02F48006832302E4955
:101AA000086008460068B0F5487F33D3002008601E
:101AB0001D480078401C1C4908700846007804281E
:101AC00009DA24A001F070FD25A001F06DFD0120D0
:101AD000224908701EE008202049087001202B4987
:101AE00008701CA001F060FDAFF2E82001F05CFD81
:101AF00027A001F059FDAFF2F42001F055FDFEF7EB
:101B0000A9FF14A001F050FD2CA001F04DFD37A05D
:101B100001F04AFD00E000BF00BF0BB0BDE8F08F50
:101B20005C00002003000020010000209442000817
:101B30000D0A3E3E3E204261636B77617264206D08
:101B40006561737572656D656E7420636F6D706C21
:101B5000657465210D0A00000800002000000020C7
:101B60003E3E3E20537769746368696E6720746FE8
:101B7000206E6578742064757479206379636C6570
:101B80002E2E2E203C3C3C0D0A0D0A001C0000208D
:101B900020202020202043414C4942524154494FAB
:101BA0004E20434F4D504C455445212020202020AD
:101BB00020202020202020200D0A00005072657374
:101BC00073204B45593120746F20656E7465722007
:101BD000436F6D70656E736174696F6E20546573C9
:101BE00074204D6F64652E2E2E0D0A003D3D3D3D47
:101BF0003D3D3D3D3D3D3D3D3D3D3D3D3D3D3D3D15
:101C00003D3D3D3D3D3D3D3D3D3D3D3D3D3D3D3D04
:101C10003D3D3D3D0D0A0D0A0000000010B50022BB
:101C2000644B1A70644B1A70644B1A70644B1A70D0
:101C3000644B1A60644B1A60644B1A70644B1A70E0
:101C40004FF07E52634B1A60634B1A600020A8E08D
:101C5000624A32F81020C0EB001303EB4013604CD3
:101C600024F823200022C0EB001303EB401304EB05
:101C70008303C3F8A420C0EB001303EB401304EB71
:101C80008303C3F8A820C0EB001303EB401304EB5D
:101C90008303C3F8AC20C0EB001303EB401304EB49
:101CA0008303C3F8B020C0EB001303EB401304EB35
:101CB0008303C3F8B420C0EB001303EB401304EB21
:101CC0008303C3F8B820002167E00023C0EB0012B3
:101CD00002EB4012424C04EB8202121D02EB011295
:101CE0001380C0EB001202EB401204EB8202121DC3
:101CF00002EB01125380C0EB001202EB401204EB26
:101D00008202121D02EB01125360C0EB001202EBC3
:101D1000401204EB8202121D02EB01129360C0EB31
:101D2000001202EB401204EB8202121D02EB0112C0
:101D3000D360C0EB001202EB401204EB820254327B
:101D400002EB01121380C0EB001202EB401204EB15
:101D50008202543202EB01125380C0EB001202EBFC
:101D6000401204EB8202543202EB01125360C0EBCA
:101D7000001202EB401204EB8202543202EB011219
:101D80009360C0EB001202EB401204EB820254326B
:101D900002EB0112D3604A1CD1B2052995DB421C2B
:101DA000D0B20428FFF654AF00220E4B1A800E4B1F
:101DB0001A8010BD01000020020000200300002056
:101DC00004000020080000200C0000201D0000205E
:101DD0001C00002014000020180000208C42000885
:101DE0005C00002010000020120000202DE9F041CE
:101DF0004FF4616449480078052802DB0020474918
:101E0000087047A001F0D0FB4448007805287ED236
:101E1000DFE800F00316283B67000021084600F0C9
:101E200049FD3E48017849A001F0BEFB4D48B0F99C
:101E300000204D48B0F900104CA001F0B5FB66E061
:101E40002146204600F036FD344801784EA001F0CE
:101E5000ABFB2246214656A001F0A6FB5DA001F097
:101E6000A3FB54E00021084600F024FD2B48017834
:101E700036A001F099FB3B48B0F900203A48B0F990
:101E8000001060A001F090FB41E02146204600F0E8
:101E90004FFD2248017866A001F086FB2046FEF740
:101EA0000EFB80466C4801684046FEF7B7F90746CE
:101EB000FEF713FB05B22046FEF701FB804667489C
:101EC00001684046FEF7AAF90746FEF706FB06B290
:101ED0002A46314636A001F067FB61A001F064FBA1
:101EE00015E00021084600F0E5FC0C48017817A039
:101EF00001F05AFB1B48B0F900201B48B0F9001054
:101F000061A001F051FB6AA001F04EFB00BF00BFD1
:101F100073A001F049FBBDE8F08100001D00002026
:101F20000D0A3D3D3D3D3D3D3D3D3D3D20434F4D39
:101F300050454E534154494F4E2054455354203D33
:101F40003D3D3D3D3D3D3D3D3D0D0A0053746570B9
:101F50002025643A204D4F544F522053544F500D7A
:101F60000A0000001200002010000020456E636F80
:101F70006465722052657365743A204C3D25642C6B
:101F800020523D25640D0A00537465702025643A83
:101F900020464F525741524420284E6F20436F6DC8
:101FA00070656E736174696F6E290D0A0000000020
:101FB00020204C6566745F50574D203D2025642CD1
:101FC0002052696768745F50574D203D2025640D8D
:101FD0000A00000020204F6273657276653A204344
:101FE0006172206D6179206465766961746520662F
:101FF000726F6D207374726169676874206C696EAA
:10200000650D0A00456E636F6465722061667465D4
:1020100072206E6F2D636F6D7020746573743A203B
:102020004C3D25642C20523D25640D0A0000000023
:10203000537465702025643A20464F5257415244EC
:1020400020285769746820436F6D70656E736174E2
:10205000696F6E290D0A000018000020140000208E
:1020600020204F6273657276653A20436172207357
:10207000686F756C6420676F20737472616967683C
:1020800074210D0A00000000456E636F64657220C4
:10209000616674657220636F6D7020746573743A45
:1020A000204C3D25642C20523D25640D0A00000083
:1020B0000D0A5072657373204B45593120746F209F
:1020C0006379636C65207468726F756768207465E6
:1020D00073742073746570732E2E2E0D0A00000029
:1020E0003D3D3D3D3D3D3D3D3D3D3D3D3D3D3D3D20
:1020F0003D3D3D3D3D3D3D3D3D3D3D3D3D3D3D3D10
:102100003D3D3D3D3D3D3D3D0D0A0D0A00000000B9
:102110000146072323EA01021202054B18684FF615
:10212000FF031840034B18431043014B18607047DE
:102130000CED00E00000FA057047000000B587B024
:102140000121022000F06EFA0121042000F08AFA39
:10215000C020ADF8000004208DF8030069461C483B
:1021600000F088F804A801F013F90020ADF8100081
:102170004FF6FF70ADF814000020ADF81600ADF872
:10218000120004A9134801F0B1F800231A460321F4
:10219000104800F097FE01A800F00CFF0A20ADF8EF
:1021A0000C0001A90B4800F0AFFE0121094800F026
:1021B00077FD01221146074800F005FF0021054880
:1021C00001F065F80121034800F06DFD07B000BD86
:1021D000000801400004004000B587B00121042040
:1021E00000F020FA0121082000F03CFAC020ADF8F0
:1021F000000004208DF8030069461C4800F03AF8FE
:1022000004A801F0C5F80020ADF810004FF6FF70EB
:10221000ADF814000020ADF81600ADF8120004A9C6
:10222000134801F063F800231A460321104800F018
:1022300049FE01A800F0BEFE0A20ADF80C0001A97D
:102240000B4800F061FE0121094800F029FD012240
:102250001146074800F0B7FE0021054801F017F8C5
:102260000121034800F01FFD07B000BD000C014034
:10227000000800402DE9F04102460025002600201C
:1022800000230024002791F803C00CF00F0591F8FB
:1022900003C00CF0100CBCF1000F03D091F802C089
:1022A0004CEA050591F800C0BCF1000F31D014686C
:1022B00000202BE04FF0010C0CFA00F3B1F800C045
:1022C0000CEA03069E4220D183004FF00F0C0CFA5B
:1022D00003F7BC4305FA03FC4CEA040491F803C07D
:1022E000BCF1280F06D14FF0010C0CFA00FCC2F82B
:1022F00014C00AE091F803C0BCF1480F05D14FF0BB
:10230000010C0CFA00FCC2F810C0401C0828D1D304
:102310001460B1F800C0BCF1FF0F34DD5468002038
:102320002EE000F1080C4FF0010808FA0CF3B1F8A8
:1023300000C00CEA03069E4221D183004FF00F0C2F
:102340000CFA03F7BC4305FA03FC4CEA040491F8C9
:1023500003C0BCF1280F05D100F1080C08FA0CF8F5
:10236000C2F8148091F803C0BCF1480F07D100F106
:10237000080C4FF0010808FA0CF8C2F81080401C55
:102380000828CED35460BDE8F0810246002093684F
:102390000B400BB1012000E00020704700BFFEE7BA
:1023A00008B50121082000F05DF90820ADF8000013
:1023B00010208DF8030002208DF8020069460348C2
:1023C000FFF758FF00200249086008BD000C0140DB
:1023D0008C81214201464906084A926942F0010275
:1023E000064B9A61064A526822F0E062044B5A603A
:1023F0001A4652680A435A607047000000100240B3
:102400000000014010B500F001F810BD08B5012131
:10241000042000F027F94FF48070ADF80000482048
:102420008DF8030069460248FFF724FF08BD00004D
:102430000008014010B5044600F022F801280BD135
:10244000601C0D490988B1EB400F0ADA0A48008880
:10245000401C0949088004E000200749088007491A
:10246000088005480088022803D10120034908801C
:1024700010BD0020FCE700005A000020580000209A
:1024800010B54FF480710448FFF77FFF08B90120B1
:1024900010BD0020FCE700000008014000BFFEE77F
:1024A0007047000070B5002100230F22C47804B3E8
:1024B000154C246804F4E064C4F5E064210AC1F119
:1024C0000403CA40447804FA03F184781440214399
:1024D00009010E4C0678A155047804F01F0501246B
:1024E000AC4005786D11AD0005F1E025C5F800415F
:1024F00009E0047804F01F050124AC40044D06787F
:10250000761145F8264070BD0CED00E000E400E0D7
:1025100080E100E0704700002DE9F04F87B02B48C4
:1025200000682B490968401AC82803D22848006867
:10253000002847D1254800682549086000F038F98F
:10254000044600F03BF9054622480088201A06B2EE
:1025500021480088281A0FFA80F9304601F03EFE23
:1025600007B2C8213846FEF753FA8246484601F0C2
:1025700035FE07B2C8213846FEF74AFA8346002ED8
:1025800001DA8AF0004AB9F1000F01DA8BF0004B52
:102590005846FDF7BBFF074688465046FDF7B6FF95
:1025A000CDE9038005918DE883000C48B0F9002047
:1025B0000B48B0F900100BA000F0F6FF05480480AE
:1025C0000548058007B0BDE8F08F00000800002036
:1025D00020000020240000202600002012000020FF
:1025E000100000205B52545D20456E635F4C3A251D
:1025F0006420456E635F523A2564207C20537065E9
:1026000065645F4C3A252E31662052504D20537040
:102610006565645F523A252E31662052504D0D0A91
:102620000000000029B1064AD2690243044BDA6176
:1026300004E0034AD2698243014BDA61704700002B
:102640000010024029B1064A12690243044B1A6184
:1026500004E0034A12698243014B1A61704700008B
:102660000010024029B1064A92690243044B9A6164
:1026700004E0034A92698243014B9A61704700006B
:102680000010024029B1064AD2680243044BDA60C6
:1026900004E0034AD2688243014BDA6070470000CD
:1026A0000010024030B500210022002400232D4DEF
:1026B0006D6805F00C0121B1042905D0082923D14A
:1026C00005E0294D056022E0274D05601FE0254DFE
:1026D0006D6805F47012234D6D6805F48034022591
:1026E00005EB92421CB9214D554305600BE01D4D91
:1026F0006D6805F400351DB11C4D5543056002E0C1
:10270000194D5543056002E0174D056000BF00BF3D
:10271000144D6D6805F0F0010909154D6B5C0568F5
:10272000DD4045600F4D6D6805F4E061090A104D0C
:102730006B5C4568DD4085600A4D6D6805F460514D
:10274000C90A0B4D6B5C4568DD40C560054D6D6881
:1027500005F44041890B074D6B5CC568B5FBF3F58B
:10276000056130BD0010024000127A0000093D00F2
:102770003C0000204C000020014611B101290ED17F
:1027800006E0094A128810B20022074B1A8008E0BE
:10279000064A128810B20022044B1A8001E0002081
:1027A00000BF00BF70470000240400402408004020
:1027B00010B50020FFF7E0FF00B210BD10B50120FA
:1027C000FFF7DAFF404200B210BD704710B500F0CD
:1027D00001F810BD0CB5002001900090334800684E
:1027E00040F480303149086000BF3048006800F490
:1027F000003000900198401C0190009818B9019891
:10280000B0F5A06FF1D12948006800F4003010B194
:102810000120009001E0002000900098012843D1A1
:102820002348006840F0100021490860084600680D
:1028300020F0030008600846006840F002000860CD
:102840001A48406819494860084640684860084688
:10285000406840F4806048600846406820F47C107E
:1028600048600846406840F4E81048600846006840
:1028700040F08070086000BF0C48006800F00070F5
:102880000028F9D00948406820F003000749486053
:102890000846406840F00200486000BF03484068B6
:1028A00000F00C000828F9D10CBD00000010024017
:1028B0000020024000B503460A4623B900201B4908
:1028C0000880091D08802AB90020184908310880AD
:1028D000091D0880002B09DD184601F07FFC134913
:1028E000091D08800020091F088008E000200F490A
:1028F000091D0880184601F071FC0C490880002A67
:1029000009DD104601F06AFC084908310880002002
:10291000091D088009E0002004490831088010469C
:1029200001F05CFC01490C31088000BD34340140E9
:102930002DE9F04105460C4611480078C8B12846FB
:10294000FDF7BDFD07460F4801683846FDF766FCF8
:102950000646FDF7C2FD05B22046FDF7B0FD07466D
:10296000094801683846FDF759FC0646FDF7B5FDF4
:1029700004B221462846FFF79DFFBDE8F081000024
:102980001C0000201400002018000020042808D19A
:102990004FF0E021096941F004014FF0E02211619C
:1029A00007E04FF0E021096921F004014FF0E02237
:1029B000116170477047000010B51348006840F07F
:1029C00001001149086008464068104908400E4956
:1029D0004860084600680E4908400B4908600846F0
:1029E000006820F4802008600846406820F4FE005B
:1029F00048604FF41F008860FFF7E8FE4FF000606A
:102A00000449086010BD0000001002400000FFF8FB
:102A1000FFFFF6FE08ED00E0F0B50C46154600227B
:102A20000021068C4FF6FE773E400684028B018C17
:102A30004FF60C7632407E1C06EA03162E433243D4
:102A4000104EB0420ED0104EB0420BD0B0F1804FBD
:102A500008D00E4EB04205D00D4EB04202D00D4E01
:102A6000B04206D14FF6FD76314044F001063143C5
:102A700005E04FF6F576314044F00106314302831C
:102A80000184F0BD002C01400034014000040040EE
:102A900000080040000C0040F0B50C46154600222E
:102AA00000210026078C4FF6EF7C07EA0C0707840D
:102AB000028B018C4FF6FF7707EA041640F6FF47BA
:102AC0003A404FF6FF7707EA03373A434FF6FF776E
:102AD00007EA05273A43114FB8420ED0104FB842CB
:102AE0000BD0B0F1804F08D00E4FB84205D00E4F3A
:102AF000B84202D00D4FB84206D14FF6DF773940C9
:102B000046F01007394305E04FF65F77394044F04F
:102B10001007394302830184F0BD0000002C0140FE
:102B2000003401400004004000080040000C004058
:102B3000F0B50C461546002200210026078C4FF602
:102B4000FF6C07EA0C070784828B018C4FF6FF7736
:102B500007EA04264FF60C773A404FF6FF7707EA6C
:102B600003172F433A43114FB8420ED0104FB842CB
:102B70000BD0B0F1804F08D00E4FB84205D00E4FA9
:102B8000B84202D00D4FB84206D14FF6FF57394038
:102B900046F48077394305E04FF2FF57394044F45B
:102BA0008077394382830184F0BD0000002C01400E
:102BB000003401400004004000080040000C0040C8
:102BC000F0B50C461546002200210026078C4EF673
:102BD000FF7C07EA0C070784828B018C4FF6FF7796
:102BE00007EA043640F6FF473A404FF6FF7707EA18
:102BF00005273A434FF6FF7707EA03373A43114F69
:102C0000B8420ED0104FB8420BD0B0F1804F08D070
:102C10000E4FB84205D00E4FB84202D00D4FB84209
:102C200006D14DF6FF77394046F48057394305E029
:102C300047F6FF57394044F4805739438283018473
:102C4000F0BD0000002C01400034014000040040B1
:102C500000080040000C0040044800880348008839
:102C600020F0010001490880704700001004004076
:102C7000044800880348008820F0010001490880CA
:102C8000704700001008004021B1028842F0800225
:102C9000028004E002884FF67F731A40028070477A
:102CA000CA430282704721B1028842F001020280C9
:102CB00004E002884FF6FE731A400280704731B17B
:102CC000B0F8442042F40042A0F8442005E0B0F8F7
:102CD0004420C2F30E02A0F84420704710B5044609
:102CE0006848844208D10121C014FFF7CBFC0021C1
:102CF000E014FFF7C7FCC4E0B4F1804F08D1012114
:102D00000846FFF79FFC00210120FFF79BFCB8E07D
:102D10005D48844208D101210220FFF793FC002185
:102D20000220FFF78FFCACE05848844208D1012113
:102D30000420FFF787FC00210420FFF783FCA0E0BC
:102D40005348844208D101210820FFF77BFC002171
:102D50000820FFF777FC94E04E48844208D1012117
:102D60001020FFF76FFC00211020FFF76BFC88E0BC
:102D70004948844208D101212020FFF763FC00214B
:102D80002020FFF75FFC7CE04448844208D1012109
:102D90004014FFF777FC00216014FFF773FC70E02C
:102DA0003F48844209D10121C804FFF76BFC002190
:102DB0004FF40020FFF766FC63E03A48844209D1F3
:102DC00001210805FFF75EFC00214FF48010FFF79A
:102DD00059FC56E03448844209D101214805FFF7E7
:102DE00051FC00214FF40010FFF74CFC49E02F4844
:102DF000844208D101214020FFF724FC002140201B
:102E0000FFF720FC3DE02A48844208D101218020C0
:102E1000FFF718FC00218020FFF714FC31E0254863
:102E2000844208D101218015FFF70CFC0021A01578
:102E3000FFF708FC25E02048844209D1012108045D
:102E4000FFF720FC00214FF48030FFF71BFC18E057
:102E50001A48844209D101214804FFF713FC0021DC
:102E60004FF40030FFF70EFC0BE01548844208D108
:102E700001218804FFF706FC00214FF48020FFF7B2
:102E800001FC10BD002C014000040040000800407F
:102E9000000C0040001000400014004000340140CD
:102EA000004C014000500140005401400018004017
:102EB000001C004000200040004001400044014050
:102EC00000480140F0B50C4615461E460021002280
:102ED00000230189028B038C4FF6F8773940214398
:102EE0004FF6FC473A4040F201173A434FF6DD7780
:102EF0003B404FF6FF7707EA06172F433B4301811C
:102F000002830384F0BD000070B505460C462448DA
:102F100085420ED0234885420BD0B5F1804F08D0B2
:102F20002148854205D02148854202D0204885426B
:102F300000D100E000BF208850B92389A2886188B1
:102F40002846FFF769FDE188284600F0A2F925E050
:102F5000208804280AD12389A28861882846FFF79F
:102F60009BFDE188284600F09DF917E0208808289D
:102F70000AD12389A28861882846FFF7D9FDE18814
:102F8000284600F09CF909E02389A2886188284638
:102F9000FFF716FEE188284600F09AF970BD0000A0
:102FA000002C0140003401400004004000080040B3
:102FB000000C00400021018041800121818000211E
:102FC000C180018170471AB183890B43838102E07C
:102FD00083898B438381704770B5002400220023CE
:102FE000058C4FF6FE7635400584028C8388048B71
:102FF0004FF68F752C40B51E2C400D882C43751E46
:103000002A400D892A434D882A43144DA8420BD0EB
:10301000134DA84208D0134DA84205D0124DA84226
:1030200002D0124DA84213D14FF6F7752A404D89B0
:103030002A434FF6FB752A408D882A434FF6FF65D9
:103040002B404FF6FF552B408D892B43CD892B43C9
:1030500083800483CD888586028470BD002C014066
:10306000003401400040014000440140004801405C
:103070000A460021018B4FF6F77319401143018373
:103080007047000070B5002400220023058C4FF625
:10309000EF7635400584028C8388048B48F6FF75F3
:1030A0002C404FF6FF452C400D884FF6FF7606EA80
:1030B00005252C434FF6DF752A400D8906EA0515D4
:1030C0002A434D8806EA05152A43154DA84202D029
:1030D000144DA8421DD14FF67F752A404D894FF6F9
:1030E000FF7606EA05152A434FF6BF752A408D88FC
:1030F00006EA05152A434FF6FF352B404FF2FF75C0
:103100002B408D8906EA85052B43CD8906EA850586
:103110002B4383800483CD880587028470BD000023
:10312000002C0140003401400A460021018B4FF27F
:10313000FF7319404FF6FF7303EA0223194301831B
:103140007047000070B5002400220023058C4FF664
:10315000FF6635400584028C8388848B4FF68F751B
:103160002C404FF6FC752C400D882C434FF6FF5534
:103170002A400D894FF6FF7606EA05252A434D8839
:1031800006EA05252A43154DA84202D0144DA8424F
:103190001DD14FF2FF752A404D894FF6FF7606EAA2
:1031A00005252A434FF6FF352A408D8806EA052576
:1031B0002A434EF6FF752B404DF6FF752B408D8947
:1031C00006EA05152B43CD8906EA05152B438380B6
:1031D0008483CD888587028470BD0000002C014067
:1031E000003401400A460021818B4FF6F7731940E5
:1031F000114381837047000070B500220023002432
:10320000058C4EF6FF7635400584038C8488828BCE
:1032100048F6FF752A404FF6FF452A400D884FF6C5
:10322000FF7606EA05252A434DF6FF752B400D89EA
:1032300006EA05352B434D8806EA05352B430B4D31
:10324000A84202D00A4DA84208D14BF6FF752C4087
:103250008D894FF6FF7606EA85152C43848082839C
:10326000CD88A0F84050038470BD0000002C0140C0
:10327000003401400A460021818B4FF2FF73194050
:103280004FF6FF7303EA0223194381837047818459
:103290007047028B4FF6F3731A400283028B0A4386
:1032A00002837047028B4FF2FF331A400283028B76
:1032B0004FF6FF7303EA01231A4302837047828BA0
:1032C0004FF6F3731A408283828B0A4382837047DE
:1032D000828B4FF2FF331A408283828B4FF6FF734B
:1032E00003EA01231A438283704700000022028808
:1032F0001D4B98420ED01D4B98420BD0B0F1804F21
:1033000008D01B4B984205D01A4B984202D01A4B5A
:10331000984204D14FF68F731A404B881A43174BCB
:10332000984207D0164B984204D04FF6FF431A40FC
:10333000CB881A4302808B8883850B8803850A4BD0
:1033400098420BD0094B984208D00E4B984205D0BA
:103350000D4B984202D00D4B984201D10B7A038657
:103360000123838270470000002C0140003401409B
:103370000004004000080040000C00400010004025
:10338000001400400040014000440140004801405A
:103390004FF6FF71818000210180C1804180017260
:1033A0007047000010B5002440F22551054800F098
:1033B00034F830B1034800F0EBF8C4B2204600F016
:1033C00003F810BD0038014010B5044600BF80214D
:1033D000044800F015F80028F9D02146014800F013
:1033E000DCF810BD0038014021B1828942F400525E
:1033F000828104E082894DF6FF731A408281704712
:1034000002460020B1F5007F00D100BF13880B40B9
:103410000BB1012000E00020704770B50246002487
:1034200000230025002040F66A16B14200D100BFFB
:10343000C1F3421501F01F03012606FA03F3012D23
:1034400002D19689334006E0022D02D1168A33401C
:1034500001E0968A33400C12012606FA04F416881D
:10346000344013B10CB1012000E0002070BDF0B574
:103470000346002400260025002040F66A17B942C2
:1034800000D100BF1846C1F3421401F01F06012706
:1034900007FA06F5012C01D10C3004E0022C01D111
:1034A000103000E014301AB107682F43076002E0C3
:1034B0000768AF430760F0BD2DE9F04786B00546C9
:1034C0000E460024A24600BFA1460027B08900B1E5
:1034D00000BF2F462C8A4CF6FF700440F08804434E
:1034E0002C82AC894EF6F3100440B0883189084331
:1034F000718908430443AC81AC8A4FF6FF40044015
:10350000B0890443AC8201A8FFF7CCF81F4887427A
:1035100002D1DDF810A001E0DDF80CA0A88900F4CC
:10352000004040B10AEBCA0000EB0A1031684900C4
:10353000B0FBF1F807E00AEBCA0000EB0A103168B3
:103540008900B0FBF1F86420B8FBF0F00401200919
:10355000642101FB1089A88900F4004040B13220A9
:1035600000EBC900B0FBF1F000F00700044308E0F5
:10357000322000EB09106421B0FBF1F000F00F00E5
:1035800004432C8106B0BDE8F087000000380140FC
:1035900001468888C0F308007047C1F308028280A2
:1035A000704700BFFEE700000FB4054B10B503A93C
:1035B000044A029800F0DAF810BC5DF814FB000031
:1035C0003D3F00085400002002E008C8121F08C157
:1035D000002AFAD170477047002001E001C1121F94
:1035E000002AFBD1704700002DE9FF5F82B0002167
:1035F000DDE90430020DDDF840B0034318D044F695
:103600001050A2F2FF3242431514119801281FD026
:10361000A5EB0B00401C5FEA000A4FF000064E4F7E
:10362000DFF83891B046504615D5CAF1000413E0D2
:10363000119801244AA3012801D16FEA0B010298D5
:10364000119AC0E90031C0E9024206B0BDE8F09F1E
:10365000CBF10000DFE704460021404A491842EB65
:103660000450CDE9001012E0E00707D032463B4697
:1036700040464946FCF742FE8046894632463B4674
:1036800010461946FCF73AFE06460F466410002C19
:10369000EAD1DDE90401DDE90023BAF1000F06DA21
:1036A000FCF72CFE42464B46FCF728FE05E0FCF7F3
:1036B00097FE42464B46FCF793FE04460E46002218
:1036C000284BFDF7DBF803D84FF0FF30014607E049
:1036D0000022254B20463146FDF711F8FDF7B6F8DC
:1036E000102409E0002C0ADB0A220023FCF742FF29
:1036F000039B30321A55641E50EA0102F2D1641C59
:10370000039AC4F111031444119A012A03D001222F
:1037100008430DD10AE0084304D000204FF0110BFC
:10372000119072E7A3EB0B056D1E0DE05B4504DD08
:103730004FF0000205F1010504E003DA4FF000024A
:10374000A5F10105002AECD002981199C0E90231D7
:10375000C0E9004579E70000000014400000F03F98
:10376000300000000000F0430000E03F2DE9FF4F73
:1037700095B09A46884606460025EEE1252877D181
:1037800000242746F94A0121039400E0044316F877
:10379000013F203B01FA03F01042F7D130782A288C
:1037A00011D06FF02F033078A0F13002092A16D81B
:1037B000039A44F0020402EB820203EB420210443B
:1037C000761C0390EFE758F8042B0392002A03DAE3
:1037D000504244F40054039044F00204761C3078C4
:1037E0002E2816D116F8010F44F004042A280DD013
:1037F0006FF02F023078A0F13003092B09D807EBC6
:10380000870302EB4303C718761CF3E758F8047BE1
:10381000761C30786C280FD006DC4C2817D068282E
:103820000DD06A2814D104E0742810D07A280FD162
:103830000DE044F400140AE044F4801401E044F480
:1038400040147278824202D104F58014761C761CF2
:10385000307866280BD013DC582877D009DC002894
:1038600075D04528F6D04628F4D047281AD193E1E0
:1038700018E0632835D0642879D0652812D18BE10F
:10388000702873D008DC6728F1D069286FD06E28C3
:103890000DD06F2806D1ACE073282CD0752874D0D9
:1038A000782853D05246179990476D1C54E1C4F3C1
:1038B0000250022809D003280DD0D8F8001004289F
:1038C0000DD00D6008F1040846E1D8F80010EA17A1
:1038D000C1E90052F6E7D8F800100D80F2E70D704C
:1038E000F0E718F8041B8DF8001000208DF8010097
:1038F000EB46012003E058F804BB4FF0FF306107AE
:103900004FF0000102D40DE009F101018946B942EE
:103910000FDA8145F8DB1BF809100029F4D108E023
:1039200009F1010189468142FADB1BF809100029DF
:10393000F6D103985346A0EB090721463846179A5B
:1039400000F080FA284400EB090507E044E008E1B4
:103950000DE01BF8010B524617999047B9F1010988
:10396000F7D2534621463846179AF2E039E00A2149
:10397000C4F302524FF0000B0091022A06D058F80F
:10398000040BC117032A09D00AE023E008F107005D
:1039900020F00702F2E80201904605E000B2C117EC
:1039A000042A01D140B2C117002906DA0A460021D3
:1039B000404261EB02012D2202E0220504D52B22B8
:1039C0008DF80420012203E0E20701D02022F7E76E
:1039D000914657E00A2100E010214FF0000B0091C2
:1039E0000BE010214FF0000B44F004040827009175
:1039F00003E008204FF0000B0090C4F30252022AAB
:103A000005D058F8040B0021032A08D008E008F17B
:103A1000070020F00702F2E80201904603E080B2BE
:103A2000042A00D1C0B24FF0000922072AD532780B
:103A3000702A07D0DDF800C08CF0100C5CEA0B0C8B
:103A400005D00EE040228DF80420012208E050EA63
:103A5000010306D030238DF804308DF805200222B2
:103A60009146009B83F0080353EA0B030AD150EA06
:103A7000010201D1620705D530228DF804204FF0F4
:103A800001097F1E3278582A04D039A20C920CAA60
:103A900002920BE03BA2F9E75B46009AFCF76AFD55
:103AA0000C9B9B5C029A521E0292137050EA010218
:103AB000F2D1029804A9081A00F1200B600702D580
:103AC00024F4803400E001275F4502DDA7EB0B0002
:103AD00000E0002000EB0B01009003984944401ADD
:103AE0000390E00306D453462146179A039800F04A
:103AF000A9F90544002706E001A85246C05D1799C0
:103B000090476D1C7F1C4F45F6DBE0030CD55346F8
:103B10002146179A039800F095F9054404E03020F7
:103B20005246179990476D1C0099481E0090002935
:103B3000F5DC08E00298029952460078491C02918F
:103B4000179990476D1CBBF10001ABF1010BF1DC43
:103B50005BE100F065F90544761C307800287FF4BD
:103B60000DAE19B02846BDE8F08F0000092801000D
:103B700030313233343536373839616263646566E3
:103B800000000000303132333435363738394142A5
:103B90004344454600000000600700D4062708F1B2
:103BA000070020F00700F0E80223804603F0004CF5
:103BB0005FEA0C0001D097A009E0200501D596A08E
:103BC00005E0E00701D095A001E0AFF24C001390B2
:103BD000307823F0004365280CD006DC452809D056
:103BE00046281DD047287FD13BE0662818D067289B
:103BF0007AD136E00021112F01DB112000E0781C82
:103C0000CDE9000104A90CA8FFF7EEFCDDE90D01E8
:103C10000C9A4FF0000B07F10109109200914EE051
:103C20004FF000400097CDE9011004A90CA8FFF760
:103C3000DBFCDDE90D020C9B0F994FF0000B914668
:103C40001093009211B9791C00EB0109B7EB090040
:103C500003D4C0F1FF3B07F10109A9EB0700019074
:103C600042E0012F00DA01270021112F01DD112090
:103C700000E03846CDE9000104A90CA8FFF7B4FC28
:103C8000DDE90D010C9A00914FF0000BB94610923E
:103C900021070FD4009A4A4503DA914601E0A9F1C1
:103CA0000109B9F1010F05DD109AA9F10101515C7B
:103CB0003029F4D0B84202DA10F1040F03DA0121FE
:103CC000CDE9011010E0002803DC8344A9EB0001DA
:103CD00002E0411C494500DD8946A0EB0B00401C79
:103CE00001904FF000400290200705D4019848450C
:103CF00002DB4FF0FF30019000208DF84B0002985E
:103D00000DF14B07B0F1004F25D002200C902B2075
:103D10000D90029800280CDA404202902D200D9060
:103D200007E00A210298FCF70FFC3031029007F8F7
:103D3000011D0C99481E0C900029F2DC0298002805
:103D4000EFD1791E0D980870307800F0200040F017
:103D5000450007F8020D11A8C01BC01D0290139862
:103D6000007800B1012000EB0901019801EBE0713E
:103D7000029801440398401A401E0390E00306D4C1
:103D800053462146179A039800F05CF805441398AF
:103D9000007818B15246179990476D1CE00323D55F
:103DA00053462146179A039800F04CF805441BE04F
:103DB000BBF1000F07DB0098584504DD10981799F8
:103DC00010F80B0001E017993020524690470198F7
:103DD0000BF1010B401E05F10105019004D12E20CD
:103DE0005246179990476D1CB9F10001A9F10109DC
:103DF000DEDC05E017F8010B5246179990476D1C61
:103E00000299481E02900029F4DC53462146179A75
:103E100003989EE62D0000002B000000200000000B
:103E20002DE9F041044600251E461746880404D4B7
:103E300005E039462020B0476D1C641EF9D52846A0
:103E4000BDE8F0812DE9F041044600251E4690466C
:103E5000C80301D5302700E02027880404D505E0F9
:103E600041463846B0476D1C641EF9D52846BDE86A
:103E7000F08110B50220FEF74BF900F01BF802208C
:103E8000FEF7A8FA0120FEF7A5FAFEF789FA4FF42B
:103E9000E13000F0ABF9FEF7B5FAFCF74BFD00217D
:103EA0004FF43460FCF75CFDFEF748F9FEF794F937
:103EB00010BD000010B50E4800680E49B0FBF1F0CF
:103EC000C4B26FF00400FEF761FDE11704EB51711D
:103ED000C910094A11701046007800EB4001C1EB8F
:103EE000C0104FF6FF7101EAC0000449088010BD00
:103EF0002800002040420F00500000205200002007
:103F000001460D4A12884A434FF0E0235A610022CD
:103F10009A6101221A6100BF4FF0E022106900F09F
:103F200001021AB100F48032002AF5D000224FF0CD
:103F3000E0231A619A6170475200002000BF054AD1
:103F4000128802F04002002AF9D0C2B2014B1B1DB8
:103F50001A80704700380140FFF78BFF36A0FFF74B
:103F600023FB36A0FFF720FB3FA0FFF71DFB33A08C
:103F7000FFF71AFB47A0FFF717FB1E220B2150A0EB
:103F8000FFF712FB4FF4A57156A0FFF70DFB2BA016
:103F9000FFF70AFB5AA0FFF707FB63A0FFF704FB3C
:103FA00048E00020FEF7E8FB6B490988084400B2AE
:103FB000694908800120FEF7DFFB40426749098814
:103FC000084400B265490880FEF7A6FA0120FEF712
:103FD00031FA002829D062A0FFF7E6FA6748007896
:103FE00040B9FDF71BFE01206449087064A0FFF78B
:103FF000DBFA1AE06148007808280BD100206A49F2
:10400000087009205D49087068A0FFF7CDFAFDF738
:10401000EDFE0AE059480078092806D16248007888
:10402000401C61490870FDF7E1FEFDF7EBF9322015
:10403000FFF766FFB5E700000D0A00003D3D3D3D7E
:104040003D3D3D3D3D3D3D3D3D3D3D3D3D3D3D3DA0
:104050003D3D3D3D3D3D3D3D3D3D3D3D3D3D3D3D90
:104060003D3D3D3D0D0A0000202020204D6F746F26
:10407000722043616C6962726174696F6E20457869
:10408000706572696D656E74202020202020200DDF
:104090000A000000546573742044757479204379D4
:1040A000636C65733A20333025252C203530252567
:1040B0002C20373025252C20393025250D0A0000ED
:1040C000456E636F646572205050523A2025642C0F
:1040D000204765617220526174696F3A2025640D32
:1040E0000A00000050756C7365732050657220578C
:1040F0006865656C205265763A2025640D0A0000DB
:104100005072657373204B45593120746F2073745E
:104110006172742063616C6962726174696F6E2E82
:104120002E2E0D0A000000003D3D3D3D3D3D3D3D34
:104130003D3D3D3D3D3D3D3D3D3D3D3D3D3D3D3DAF
:104140003D3D3D3D3D3D3D3D3D3D3D3D3D3D3D3D9F
:104150000D0A0D0A000000001000002012000020CF
:104160000D0A3E3E3E205B4B45592050524553536D
:1041700045445D203C3C3C0D0A000000000000204E
:104180000D0A3E3E3E205374617274696E67204D85
:104190006F746F722043616C6962726174696F6ED3
:1041A0002E2E2E0D0A0D0A001D0000200D0A3E3E87
:1041B0003E20537769746368696E6720746F20438B
:1041C0006F6D70656E736174696F6E205465737482
:1041D000204D6F64652E2E2E0D0A00000146002929
:1041E00001DA484200E008467047000010B586B08A
:1041F0000446012144F20400FEF734FA4FF4007043
:10420000ADF8140003208DF8160018208DF8170063
:1042100005A91C48FEF72EF84FF48060ADF8140095
:1042200004208DF8170005A91648FEF723F801941D
:104230000020ADF80800ADF80A00ADF80C00ADF8AC
:1042400010000C20ADF80E0001A90F48FFF734F95B
:10425000002240F225510C48FFF709F901210A48D4
:10426000FFF7C2F825208DF8000000208DF801002E
:1042700001208DF802008DF803006846FEF712F960
:1042800006B010BD00080140003801407008100E53
:10429000B013501920205B4257442053616D706C5D
:1042A000652025642F25645D204C5F50756C736517
:1042B000733A256420525F50756C7365733A2564B8
:1042C000207C204C5F52504D3A252E316620525FA3
:1042D00052504D3A252E3166207C20526174696F10
:1042E000284C2F52293A252E34660D0A0000000072
:1042F00020205B4657442053616D706C6520256417
:104300002F25645D204C5F50756C7365733A25648E
:1043100020525F50756C7365733A2564207C204C85
:104320005F52504D3A252E316620525F52504D3A21
:10433000252E3166207C20526174696F284C2F52E3
:10434000293A252E34660D0A000000006C4300084F
:10435000000000205C000000C8350008C8430008C9
:104360005C000020F4060000D835000800000000C2
:10437000000000000000000000000000000000003D
:104380000000803F0000803F0000000000000000AF
:104390000000000000A24A0400000000000000002D
:1043A00001020304060708090000000001020304DB
:1043B00001020304060708090204060800000000C1
:0843C0000000000000000000F5
:0400000508000131BD
:00000001FF
